:100000000C942A000C94670E0C94940E0C94C10E60
:100010000C9447000C9447000C9447000C940A225F
:100020000C9447000C9447000C9447000C94470034
:100030000C9447000C9447000C9447000C94470024
:100040000C94A3050C9447000C9447000C944700B3
:100050000C94470011241FBECFE5D8E0DEBFCDBF12
:1000600010E0A0E6B0E0E8E7FDE502C005900D92E3
:10007000AA38B107D9F715E0AAE8B0E001C01D928F
:10008000AB33B107E1F70E94CA2D0C94BA2E0C9441
:100090000000EF92FF920F931F937B018C0120E0F1
:1000A00030E040E05FE40E94490388238CF0C801FF
:1000B000B70120E030E040E05FE40E94C1010E940F
:1000C000A9039B01AC01205030404040504806C07D
:1000D000C801B7010E94A9039B01AC01B901CA0183
:1000E0001F910F91FF90EF900895A0E0B0E0EBE733
:1000F000F0E00C94642EDC012B01FA019C9192300B
:1001000008F439C1EB018881823008F433C194309E
:1001100069F4843009F02FC111969C91119789815F
:10012000981709F428C1AFE7B0E025C1843009F47D
:1001300021C18230A9F4923009F01DC19A01AD01AC
:1001400088E0EA010990AE01E90109929E0181501F
:10015000C1F7E201898111969C918923818308C1AD
:10016000923009F407C112962D903C901397EB0141
:100170008A819B811496AD90BD90CD90DC901797AD
:10018000EC80FD800E811F819101281B390BB90184
:1001900037FF04C066277727621B730B6032710537
:1001A0000CF061C0121613066CF537014801062EDB
:1001B00004C096948794779467940A94D2F721E0C8
:1001C00030E040E050E004C0220F331F441F551FB1
:1001D0006A95D2F721503040404050402E213F21B7
:1001E00040235123211531054105510521F021E01E
:1001F00030E040E050E079018A01E628F72808293C
:1002000019293CC0232BD1F1260E371E350146019A
:10021000062E04C096948794779467940A94D2F734
:1002200021E030E040E050E004C0220F331F441FC3
:10023000551F6A95D2F721503040404050402A2146
:100240003B214C215D21211531054105510521F04E
:1002500021E030E040E050E059016A01A628B728CB
:10026000C828D9280BC0821593052CF01C01AA249C
:10027000BB24650103C0EE24FF24870111969C91E5
:10028000D20111968C91981709F445C0992339F041
:10029000A80197012A193B094C095D0906C0A6016E
:1002A00095012E193F09400B510B57FD08C01182D3
:1002B0003382228224833583468357831DC081E0A5
:1002C00081833382228288279927DC01821B930B4A
:1002D000A40BB50B84839583A683B7830DC0220F2F
:1002E000331F441F551F24833583468357838281E0
:1002F000938101979383828324813581468157813D
:10030000DA01C9010197A109B1098F5F9F4FAF4F72
:10031000BF4328F30BC0918333822282EA0CFB1C7B
:100320000C1D1D1DE482F5820683178383E0808304
:10033000248135814681578157FF1AC0C901AA27F8
:1003400097FDA095BA2F81709070A070B0705695EF
:10035000479537952795822B932BA42BB52B848318
:100360009583A683B7838281938101969383828349
:10037000DF0101C0D201CD01CDB7DEB7E2E10C94BF
:10038000802EA0E2B0E0E7ECF1E00C94702E6983DF
:100390007A838B839C832D833E834F835887E9E048
:1003A000EE2EF12CEC0EFD1ECE010196B7010E943F
:1003B000D2048E010F5E1F4FCE010596B8010E9438
:1003C000D2048A8991E089278A8BC701B801AE01DE
:1003D000475E5F4F0E9475000E94FD03A096E6E015
:1003E0000C948C2EA0E2B0E0E8EFF1E00C94702EBB
:1003F00069837A838B839C832D833E834F835887C5
:10040000F9E0EF2EF12CEC0EFD1ECE010196B701A6
:100410000E94D2048E010F5E1F4FCE010596B801D7
:100420000E94D204C701B801AE01475E5F4F0E942F
:1004300075000E94FD03A096E6E00C948C2EA0E2CD
:10044000B0E0E5E2F2E00C94642E69837A838B835A
:100450009C832D833E834F835887CE010196BE0136
:10046000675F7F4F0E94D204CE010596BE016F5E8A
:100470007F4F0E94D2049985923088F0898982301A
:10048000C8F0943019F4823051F404C0843029F457
:10049000923081F48FE790E0C6C0923049F420E0BA
:1004A0009A858A89981321E02A87CE010996BBC0D4
:1004B000823049F420E09A858A89981321E02A8BBA
:1004C000CE014196B0C02D843E844F8458886D88FB
:1004D0007E888F88988CEE24FF248701AA24BB2471
:1004E000650140E050E060E070E0E0E0F0E0C10174
:1004F00081709070892BE9F0E60CF71C081D191D1E
:100500009A01AB012A0D3B1D4C1D5D1D80E090E062
:10051000A0E0B0E0E614F7040805190520F481E036
:1005200090E0A0E0B0E0BA01A901480F591F6A1F8E
:100530007B1FAA0CBB1CCC1CDD1C97FE08C081E0F5
:1005400090E0A0E0B0E0A82AB92ACA2ADB2A3196B6
:10055000E032F10549F0660C771C881C991C569412
:10056000479437942794C3CFFA85EA892B893C892D
:100570008B859C85280F391F2E5F3F4F17C0CA01FE
:1005800081709070892B61F016950795F794E79428
:1005900080E090E0A0E0B0E8E82AF92A0A2B1B2BC3
:1005A00076956795579547952F5F3F4F77FDE7CF36
:1005B0000CC0440F551F661F771F17FD4160EE0CDE
:1005C000FF1C001F111F21503040403090E05907A0
:1005D00090E0690790E4790760F32B8F3C8FDB0193
:1005E000CA018F779070A070B07080349105A1051A
:1005F000B10561F447FD0AC0E114F10401051105DC
:1006000029F0405C5F4F6F4F7F4F40781A8EFE1786
:1006100011F081E08A8F4D8F5E8F6F8F78A383E01A
:10062000898FCE0149960E94FD03A096E2E10C94C9
:10063000802EA8E1B0E0EFE1F3E00C94702E698326
:100640007A838B839C832D833E834F83588789E0F5
:10065000E82EF12CEC0EFD1ECE010196B7010E9492
:10066000D2048E010F5E1F4FCE010596B8010E9485
:10067000D2048985823040F08989823028F0C70110
:10068000B8010E944A0501C08FEF6896E6E00C941D
:100690008C2EA8E1B0E0EFE4F3E00C94702E6983B7
:1006A0007A838B839C832D833E834F83588789E095
:1006B000E82EF12CEC0EFD1ECE010196B7010E9432
:1006C000D2048E010F5E1F4FCE010596B8010E9425
:1006D000D2048985823040F08989823028F0C701B0
:1006E000B8010E944A0501C08FEF6896E6E00C94BD
:1006F0008C2EA8E1B0E0EFE7F3E00C94702E698354
:100700007A838B839C832D833E834F83588789E034
:10071000E82EF12CEC0EFD1ECE010196B7010E94D1
:10072000D2048E010F5E1F4FCE010596B8010E94C4
:10073000D2048985823040F08989823028F0C7014F
:10074000B8010E944A0501C081E06896E6E00C9479
:100750008C2EACE0B0E0EFEAF3E00C94742E6983E9
:100760007A838B839C83CE010196BE016B5F7F4FA2
:100770000E94D2048D81823061F1823050F1843048
:1007800021F48E81882351F12EC02F81388537FDC9
:1007900020C06E812F3131051CF06623F9F023C093
:1007A0008EE190E0821B930B29853A854B855C8511
:1007B00004C056954795379527958A95D2F76623B5
:1007C000B1F050954095309521953F4F4F4F5F4F79
:1007D0000EC020E030E040E050E009C02FEF3FEFD6
:1007E0004FEF5FE704C020E030E040E050E8B9019F
:1007F000CA012C96E2E00C94902EDF92EF92FF92C9
:100800000F931F93FC01E480F58006811781D1804E
:100810008081823048F480E090E0A0E1B0E0E82AF6
:10082000F92A0A2B1B2BA5C0843009F49FC0823003
:1008300021F4EE24FF24870105C0E114F104010531
:10084000110519F4E0E0F0E096C0628173819FEF3A
:10085000623879070CF05BC022E83FEF261B370BAC
:100860002A3131052CF020E030E040E050E02AC091
:10087000B801A701022E04C0769567955795479554
:100880000A94D2F781E090E0A0E0B0E004C0880FC5
:10089000991FAA1FBB1F2A95D2F70197A109B10979
:1008A0008E219F21A023B1230097A105B10521F03E
:1008B00081E090E0A0E0B0E09A01AB01282B392B59
:1008C0004A2B5B2BDA01C9018F779070A070B07052
:1008D00080349105A105B10539F427FF09C0205CDA
:1008E0003F4F4F4F5F4F04C0215C3F4F4F4F5F4F13
:1008F000E0E0F0E02030A0E03A07A0E04A07A0E402
:100900005A0710F0E1E0F0E079018A0127C0603871
:10091000710564F5FB01E158FF4FD801C7018F77DE
:100920009070A070B07080349105A105B10539F4C4
:10093000E7FE0DC080E490E0A0E0B0E004C08FE3EB
:1009400090E0A0E0B0E0E80EF91E0A1F1B1F17FFA1
:1009500005C016950795F794E794319687E01695AC
:100960000795F794E7948A95D1F705C0EE24FF2404
:100970008701EFEFF0E06E2F679566276795902F60
:100980009F77D794DD24D7948E2F8695492F462BB9
:10099000582F5D29B701CA011F910F91FF90EF9069
:1009A000DF900895FC01DB01408151812281622F9B
:1009B0006F7770E0221F2227221F9381892F880FD3
:1009C000822B282F30E0991F9927991F11969C930D
:1009D000119721153105A9F54115510561057105DD
:1009E00011F482E037C082E89FEF13969C938E93B8
:1009F00012979A01AB0167E0220F331F441F551F66
:100A00006A95D1F783E08C930DC0220F331F441FEA
:100A1000551F12968D919C911397019713969C9355
:100A20008E931297203080E0380780E0480780E4FA
:100A3000580758F314962D933D934D935C93179755
:100A400008952F3F310579F4411551056105710570
:100A500019F484E08C93089564FF03C081E08C93C3
:100A600012C01C9210C02F57304013963C932E9307
:100A7000129783E08C9387E0440F551F661F771F02
:100A80008A95D1F7706414964D935D936D937C9322
:100A9000179708951F93DC01FB019C91923008F495
:100AA00047C08081823008F443C0943051F41196DD
:100AB0001C91843099F58181682F70E0611B710968
:100AC0003FC0843021F0923031F48230B9F181811D
:100AD000882389F12DC011961C9111978230F1F075
:100AE00081811817D9F412962D913C911397828128
:100AF00093818217930794F028173907BCF0149656
:100B00008D919D910D90BC91A02D248135814681C0
:100B10005781281739074A075B0718F4112341F05A
:100B20000AC082179307A407B50740F4112319F0F0
:100B300061E070E005C06FEF7FEF02C060E070E041
:100B4000CB011F9108951F920F920FB60F9211249F
:100B50002F933F934F935F936F937F938F939F93C5
:100B6000AF93BF93EF93FF93DF93CF93CDB7DEB7F0
:100B70002091240530912505E4E2F0E08081918107
:100B80009370F9010995CF91DF91FF91EF91BF919A
:100B9000AF919F918F917F916F915F914F913F9115
:100BA0002F910F900FBE0F901F901895DF93CF934A
:100BB000CDB7DEB7A7E2B0E0E7E2F0E080818F7763
:100BC0008C93A7E2B0E0E7E2F0E080818F7B8C932A
:100BD000A7E2B0E0E7E2F0E080818F7D8C93A6E2AF
:100BE000B0E0E6E2F0E0808180688C93A6E2B0E0BD
:100BF000E6E2F0E0808188608C930E94650FA6E2B7
:100C0000B0E0E6E2F0E0808181608C93A6E2B0E0A3
:100C1000E6E2F0E0808182608C93A6E2B0E0E6E25A
:100C2000F0E0808184608C93CF91DF910895DF9311
:100C3000CF930F92CDB7DEB78983A7E2B0E0E7E2AA
:100C4000F0E08081807E8C93A7E2B0E0E7E2F0E004
:100C500090818981892B8C93A6E2B0E0E6E2F0E0F6
:100C6000808180648C930F90CF91DF910895DF9302
:100C7000CF93CDB7DEB7A6E2B0E0E6E2F0E0808148
:100C800080688C93CF91DF910895DF93CF93CDB798
:100C9000DEB7A6E2B0E0E6E2F0E080818F778C93E9
:100CA000CF91DF910895DF93CF9300D00F92CDB70E
:100CB000DEB79B838A831982E6E2F0E08081829529
:100CC0008F70882F90E081709070882391F0A6E259
:100CD000B0E0E6E2F0E0808180618C93E4E2F0E055
:100CE000808191819370EA81FB819183808381E08F
:100CF000898389810F900F900F90CF91DF91089594
:100D0000DF93CF93CDB7DEB7E6E2F0E08081829546
:100D10008F70882F90E0817090700097A9F3E4E2C3
:100D2000F0E0808191819370CF91DF910895DF93FE
:100D3000CF9300D0CDB7DEB79A83898389819A811A
:100D400090932505809324050F900F90CF91DF910C
:100D50000895DF93CF93CDB7DEB72D970FB6F894F4
:100D6000DEBF0FBECDBF198618861F821E821D8270
:100D70001C821B821A820E947E11898389818031A4
:100D8000D1F38981882339F41D821C821B821A8247
:100D90000E944312F0CF8D81882381F481E08D83FE
:100DA00089810E947B0789878985882F90E0A0E050
:100DB000B0E0BC01CD010E94A712DDCF8B8188235A
:100DC00089F581E08B838981282F30E03D872C874E
:100DD0008C859D8587309105C9F02C853D8528300F
:100DE000310534F48C859D858330910561F016C002
:100DF0002C853D852B30310561F08C859D858F30AC
:100E0000910551F00BC08BE28F8308C08DE28F8378
:100E100005C08AE28F8302C08FE28F838F810E9498
:100E20004D12A9CF8C81882381F481E08C83898144
:100E30000E947B0788878885882F90E0A0E0B0E03B
:100E4000BC01CD010E94A71296CF8A81882309F0A8
:100E500092CF8981823009F08ECF81E08A838F81A1
:100E6000282F30E03B872A878A859B858B32910526
:100E7000B1F02A853B852C32310534F48A859B8577
:100E80008A329105B1F022C02A853B852D32310589
:100E900059F08A859B858F32910591F017C089851D
:100EA0009885890F8E8312C089859885891B8E83CA
:100EB0000DC089859885899F802D11248E8306C059
:100EC00089859885692F0E941B2E8E838DE30E9451
:100ED0004D1281E060E00E94831280E690E00E9463
:100EE0005A128E81882F90E0A0E0B0E0BC01CD01C5
:100EF0000E94A71240CFDF93CF9300D000D0CDB790
:100F0000DEB78A8319828A81282F30E03C832B83C5
:100F10008B819C818830910509F44BC02B813C81E9
:100F200029303105DCF48B819C8184309105C1F13D
:100F30002B813C812530310534F48B819C818130BB
:100F4000910561F147C02B813C812530310559F174
:100F50008B819C818630910549F13CC02B813C817D
:100F60002C30310579F18B819C818D3091055CF4B9
:100F70002B813C8129303105F9F08B819C818A30AD
:100F80009105E9F027C02B813C812D303105E9F036
:100F90008B819C818E309105D9F01CC019821AC0BA
:100FA00081E0898317C082E0898314C083E089834C
:100FB00011C084E089830EC085E089830BC086E080
:100FC000898308C087E0898305C088E0898302C0DF
:100FD00089E0898389810F900F900F900F90CF91B6
:100FE000DF910895DF93CF9300D000D0CDB7DEB767
:100FF00089836A838981282F30E03C832B838B810E
:101000009C818130910549F12B813C812230310551
:101010002CF48B819C81009761F05AC02B813C811C
:101020002230310571F18B819C8183309105E9F18A
:101030004FC0ABE3B0E0EBE3F0E08081482F8A8162
:10104000282F30E081E090E0022E02C0880F991F27
:101050000A94E2F784278C933BC0A8E3B0E0E8E36E
:10106000F0E08081482F8A81282F30E081E090E0F5
:10107000022E02C0880F991F0A94E2F784278C93EE
:1010800027C0A5E3B0E0E5E3F0E08081482F8A8146
:10109000282F30E081E090E0022E02C0880F991FD7
:1010A0000A94E2F784278C9313C0A2E3B0E0E2E352
:1010B000F0E08081482F8A81282F30E081E090E0A5
:1010C000022E02C0880F991F0A94E2F784278C939E
:1010D0000F900F900F900F90CF91DF910895DF93B5
:1010E000CF93CDB7DEB729970FB6F894DEBF0FBE0A
:1010F000CDBF89836A834B838B81882309F0C2C06B
:101100008981282F30E03987288788859985813023
:10111000910509F43FC028853985223031052CF42A
:1011200088859985009771F0E1C12885398522303D
:10113000310509F457C0888599858330910509F4F4
:1011400079C0D4C1AAE3B0E0EAE3F0E08081482F9F
:101150008A81282F30E081E090E002C0880F991F3B
:101160002A95E2F7809584238C93ABE3B0E0EBE320
:10117000F0E08081482F8A81282F30E081E090E0E4
:10118000022E02C0880F991F0A94E2F780958423EB
:101190008C93ACC1A7E3B0E0E7E3F0E08081482F97
:1011A0008A81282F30E081E090E002C0880F991FEB
:1011B0002A95E2F7809584238C93A8E3B0E0E8E3D6
:1011C000F0E08081482F8A81282F30E081E090E094
:1011D000022E02C0880F991F0A94E2F7809584239B
:1011E0008C9384C1A4E3B0E0E4E3F0E08081482F75
:1011F0008A81282F30E081E090E002C0880F991F9B
:101200002A95E2F7809584238C93A5E3B0E0E5E38B
:10121000F0E08081482F8A81282F30E081E090E043
:10122000022E02C0880F991F0A94E2F7809584234A
:101230008C935CC1A1E3B0E0E1E3F0E08081482F52
:101240008A81282F30E081E090E002C0880F991F4A
:101250002A95E2F7809584238C93A2E3B0E0E2E341
:10126000F0E08081482F8A81282F30E081E090E0F3
:10127000022E02C0880F991F0A94E2F780958423FA
:101280008C9334C18B81813009F0BEC08981282FB5
:1012900030E03F832E838E819F818130910509F458
:1012A0003EC02E813F81223031052CF48E819F81FA
:1012B000009771F01BC12E813F812230310509F466
:1012C00055C08E819F818330910509F476C00EC18F
:1012D000AAE3B0E0EAE3F0E08081482F8A81282F7A
:1012E00030E081E090E002C0880F991F2A95E2F774
:1012F000809584238C93ABE3B0E0EBE3F0E0808156
:10130000482F8A81282F30E081E090E0022E02C031
:10131000880F991F0A94E2F7842B8C93E7C0A7E308
:10132000B0E0E7E3F0E08081482F8A81282F30E0A9
:1013300081E090E002C0880F991F2A95E2F780951E
:1013400084238C93A8E3B0E0E8E3F0E08081482FA9
:101350008A81282F30E081E090E0022E02C0880FC1
:10136000991F0A94E2F7842B8C93C0C0A4E3B0E0E9
:10137000E4E3F0E08081482F8A81282F30E081E08B
:1013800090E002C0880F991F2A95E2F78095842388
:101390008C93A5E3B0E0E5E3F0E08081482F8A81FB
:1013A000282F30E081E090E0022E02C0880F991FC4
:1013B0000A94E2F7842B8C9399C0A1E3B0E0E1E3B7
:1013C000F0E08081482F8A81282F30E081E090E092
:1013D00002C0880F991F2A95E2F7809584238C9389
:1013E000A2E3B0E0E2E3F0E08081482F8A81282F79
:1013F00030E081E090E0022E02C0880F991F0A942D
:10140000E2F7842B8C9372C08B81823009F06EC01E
:101410008981282F30E03D832C838C819D81813010
:10142000910549F12C813D81223031052CF48C81CC
:101430009D81009761F05AC02C813D812230310599
:1014400071F18C819D8183309105E9F14FC0AAE350
:10145000B0E0EAE3F0E08081482F8A81282F30E075
:1014600081E090E0022E02C0880F991F0A94E2F7F3
:10147000842B8C933BC0A7E3B0E0E7E3F0E08081EE
:10148000482F8A81282F30E081E090E0022E02C0B0
:10149000880F991F0A94E2F7842B8C9327C0A4E34A
:1014A000B0E0E4E3F0E08081482F8A81282F30E02B
:1014B00081E090E0022E02C0880F991F0A94E2F7A3
:1014C000842B8C9313C0A1E3B0E0E1E3F0E08081D2
:1014D000482F8A81282F30E081E090E0022E02C060
:1014E000880F991F0A94E2F7842B8C9329960FB6E4
:1014F000F894DEBF0FBECDBFCF91DF910895DF938B
:10150000CF93CDB7DEB72A970FB6F894DEBF0FBEE4
:10151000CDBF89836A838A818823D9F58981282F61
:1015200030E03A87298789859A8581309105E1F0F5
:1015300029853A85223031052CF489859A850097D2
:1015400061F0D2C029853A8522303105A1F0898524
:101550009A8583309105B1F0C7C0EAE3F0E01082CC
:10156000EBE3F0E01082C0C0E7E3F0E01082E8E3D4
:10157000F0E01082B9C0E4E3F0E01082E5E3F0E0CF
:101580001082B2C0E1E3F0E01082E2E3F0E010820A
:10159000ABC08A81813009F03FC08981282F30E0BB
:1015A00038872F838F81988581309105E9F02F81CD
:1015B0003885223031052CF48F819885009761F0B1
:1015C00093C02F81388522303105B1F08F81988505
:1015D00083309105C9F088C0EAE3F0E01082EBE3C4
:1015E000F0E08FEF808380C0E7E3F0E01082E8E373
:1015F000F0E08FEF808378C0E4E3F0E01082E5E371
:10160000F0E08FEF808370C0E1E3F0E01082E2E36E
:10161000F0E08FEF808368C08A81823099F58981FC
:10162000282F30E03E832D838D819E81813091056E
:10163000D1F02D813E81223031052CF48D819E81A7
:10164000009761F051C02D813E812230310581F03B
:101650008D819E818330910581F046C0EAE3F0E000
:101660008FEF808341C0E7E3F0E08FEF80833CC0E1
:10167000E4E3F0E08FEF808337C0E1E3F0E08FEF49
:10168000808332C08981282F30E03C832B838B817B
:101690009C8181309105D1F02B813C812230310534
:1016A0002CF48B819C81009761F01EC02B813C81C2
:1016B0002230310581F08B819C818330910581F04E
:1016C00013C0EAE3F0E08A8180830EC0E7E3F0E034
:1016D0008A81808309C0E4E3F0E08A81808304C0CA
:1016E000E1E3F0E08A8180832A960FB6F894DEBFAA
:1016F0000FBECDBFCF91DF910895DF93CF93CDB7CC
:10170000DEB727970FB6F894DEBF0FBECDBF898333
:101710006A834B838B81813009F06FC08981282FC8
:1017200030E03F832E838E819F818130910549F186
:101730002E813F81223031052CF48E819F810097CC
:1017400061F0D2C02E813F812230310571F18E814E
:101750009F8183309105E9F1C7C0ABE3B0E0EBE3D3
:10176000F0E08081482F8A81282F30E081E090E0EE
:10177000022E02C0880F991F0A94E2F7842B8C93E3
:10178000B3C0A8E3B0E0E8E3F0E08081482F8A81AD
:10179000282F30E081E090E0022E02C0880F991FD0
:1017A0000A94E2F7842B8C939FC0A5E3B0E0E5E3B5
:1017B000F0E08081482F8A81282F30E081E090E09E
:1017C000022E02C0880F991F0A94E2F7842B8C9393
:1017D0008BC0A2E3B0E0E2E3F0E08081482F8A8191
:1017E000282F30E081E090E0022E02C0880F991F80
:1017F0000A94E2F7842B8C9377C08B81882309F0BD
:1018000073C08981282F30E03D832C838C819D819A
:101810008130910559F12C813D81223031052CF424
:101820008C819D81009769F05FC02C813D812230C1
:10183000310589F18C819D818330910509F440C087
:1018400053C0ABE3B0E0EBE3F0E08081482F8A8146
:10185000282F30E081E090E0022E02C0880F991F0F
:101860000A94E2F7809584238C933EC0A8E3B0E00D
:10187000E8E3F0E08081482F8A81282F30E081E082
:1018800090E0022E02C0880F991F0A94E2F780951B
:1018900084238C9329C0A5E3B0E0E5E3F0E08081E8
:1018A000482F8A81282F30E081E090E0022E02C08C
:1018B000880F991F0A94E2F7809584238C9314C0B3
:1018C000A2E3B0E0E2E3F0E08081482F8A81282F94
:1018D00030E081E090E0022E02C0880F991F0A9448
:1018E000E2F7809584238C9327960FB6F894DEBF99
:1018F0000FBECDBFCF91DF910895DF93CF93CDB7CA
:10190000DEB728970FB6F894DEBF0FBECDBF898330
:101910006A838A81813099F58981282F30E0388760
:101920002F838F81988581309105D1F02F81388563
:10193000223031052CF48F819885009761F083C0A7
:101940002F8138852230310581F08F819885833051
:10195000910581F078C0EBE3F0E08FEF808373C0F6
:10196000E8E3F0E08FEF80836EC0E5E3F0E08FEF17
:10197000808369C0E2E3F0E08FEF808364C08A81F6
:10198000882379F58981282F30E03E832D838D814E
:101990009E8181309105C9F02D813E812230310533
:1019A0002CF48D819E81009761F04DC02D813E8188
:1019B0002230310571F08D819E818330910569F06F
:1019C00042C0EBE3F0E010823EC0E8E3F0E01082BA
:1019D0003AC0E5E3F0E0108236C0E2E3F0E01082C6
:1019E00032C08981282F30E03C832B838B819C81FE
:1019F00081309105D1F02B813C81223031052CF4CE
:101A00008B819C81009761F01EC02B813C8122302C
:101A1000310581F08B819C818330910581F013C069
:101A2000EBE3F0E08A8180830EC0E8E3F0E08A8196
:101A3000808309C0E5E3F0E08A81808304C0E2E3AB
:101A4000F0E08A81808328960FB6F894DEBF0FBE3F
:101A5000CDBFCF91DF910895DF93CF9300D000D019
:101A60000F92CDB7DEB78A836B8319828A81282FC4
:101A700030E03D832C834C815D814130510541F143
:101A80008C819D818230910534F42C813D8121151A
:101A9000310561F052C04C815D814230510551F1F8
:101AA0008C819D8183309105B9F147C0E9E3F0E075
:101AB0008081282F30E08B81882F90E0A90102C01F
:101AC000559547958A95E2F7CA018170898335C09B
:101AD000E6E3F0E08081282F30E08B81882F90E0D2
:101AE000A90102C0559547958A95E2F7CA01817010
:101AF000898323C0E3E3F0E08081282F30E08B81ED
:101B0000882F90E0A90102C0559547958A95E2F784
:101B1000CA018170898311C0E0E3F0E08081282F41
:101B200030E08B81882F90E0A90102C05595479540
:101B30008A95E2F7CA018170898389810F900F909D
:101B40000F900F900F90CF91DF910895DF93CF9377
:101B500000D000D0CDB7DEB78A8319828A81282FC2
:101B600030E03C832B838B819C818130910549F14E
:101B70002B813C81223031052CF48B819C81009794
:101B800061F05AC02B813C812230310571F18B818B
:101B90009C8183309105E9F14FC0E9E3F0E0808159
:101BA0008F3F19F481E0898347C0E9E3F0E0808149
:101BB000882311F4198240C0E9E3F0E08081898331
:101BC0003BC0E6E3F0E080818F3F19F481E0898338
:101BD00033C0E6E3F0E08081882311F419822CC041
:101BE000E6E3F0E08081898327C0E3E3F0E08081D1
:101BF0008F3F19F481E089831FC0E3E3F0E0808127
:101C0000882311F4198218C0E3E3F0E0808189830E
:101C100013C0E0E3F0E080818F3F19F481E0898315
:101C20000BC0E0E3F0E08081882311F4198204C046
:101C3000E0E3F0E08081898389810F900F900F901D
:101C40000F90CF91DF910895DF93CF93CDB7DEB79B
:101C50000E94810FCF91DF910895DF93CF9300D041
:101C60000F92CDB7DEB789836A834B830E94930FAF
:101C700089810E94AE0F8A810E94AE0F8B810E94E3
:101C8000AE0F0E94A30F0F900F900F90CF91DF9196
:101C90000895DF93CF9300D0CDB7DEB789836A83F1
:101CA0000E94930F89810E94AE0F8A810E94AE0F1D
:101CB0000E94930F89818160898389810E94AE0F80
:101CC0000E94D80F0F900F90CF91DF9108951F922F
:101CD0000F920FB60F9211242F933F934F935F9360
:101CE0006F937F938F939F93AF93BF93EF93FF93E4
:101CF000DF93CF93CDB7DEB7E0912805F0912905AA
:101D00000995CF91DF91FF91EF91BF91AF919F9195
:101D10008F917F916F915F914F913F912F910F9094
:101D20000FBE0F901F9018951F920F920FB60F9233
:101D300011242F933F934F935F936F937F938F93D0
:101D40009F93AF93BF93EF93FF93DF93CF93CDB761
:101D5000DEB7E0912605F09127050995CF91DF9137
:101D6000FF91EF91BF91AF919F918F917F916F9173
:101D70005F914F913F912F910F900FBE0F901F9049
:101D800018951F920F920FB60F9211242F933F9325
:101D90004F935F936F937F938F939F93AF93BF9373
:101DA000EF93FF93DF93CF93CDB7DEB7E0912A0592
:101DB000F0912B050995CF91DF91FF91EF91BF91A4
:101DC000AF919F918F917F916F915F914F913F91D3
:101DD0002F910F900FBE0F901F901895DF93CF9308
:101DE000CDB7DEB7ABE5B0E0EBE5F0E08081806435
:101DF0008C930E94650FA5E5B0E0E5E5F0E08081F9
:101E000081608C93A5E5B0E0E5E5F0E080818D7F11
:101E10008C93ABE5B0E0EBE5F0E0808180688C93DB
:101E2000A5E5B0E0E5E5F0E0808184608C93A5E570
:101E3000B0E0E5E5F0E08081877F8C93ABE5B0E032
:101E4000EBE5F0E0808180628C93A5E5B0E0E5E50C
:101E5000F0E080818F7B8C93CF91DF910895DF93A9
:101E6000CF9300D0CDB7DEB79A83898389819A81D9
:101E700090932905809328050F900F90CF91DF91C3
:101E80000895DF93CF9300D0CDB7DEB79A838983CF
:101E900089819A8190932705809326050F900F9052
:101EA000CF91DF910895DF93CF9300D0CDB7DEB708
:101EB0009A83898389819A8190932B0580932A053F
:101EC0000F900F90CF91DF910895DF93CF93CDB70F
:101ED000DEB7AFE5B0E0EFE5F0E0808180688C939D
:101EE000CF91DF910895DF93CF93CDB7DEB7AFE504
:101EF000B0E0EFE5F0E080818F778C93CF91DF91B8
:101F00000895DF93CF93CDB7DEB7E0E2F0E082E053
:101F10008083E1E2F0E01082E6E5F0E084E0808397
:101F2000CF91DF910895DF93CF93CDB7DEB7E6E58C
:101F3000F0E084EA8083E6E5F0E080818823DCF746
:101F4000CF91DF910895DF93CF93CDB7DEB7E6E56C
:101F5000F0E084E98083CF91DF910895DF93CF9300
:101F60000F92CDB7DEB78983E3E2F0E08981808309
:101F7000E6E5F0E084E88083E6E5F0E08081882310
:101F8000DCF70F90CF91DF910895DF93CF93CDB71A
:101F9000DEB7E6E5F0E084EC8083E6E5F0E0808102
:101FA0008823DCF7E3E2F0E08081CF91DF910895B0
:101FB000DF93CF93CDB7DEB7E6E5F0E084E880832A
:101FC000E6E5F0E080818823DCF7E3E2F0E0808161
:101FD000CF91DF910895DF93CF93CDB7DEB783E044
:101FE00060E041E00E946F0883E061E041E00E9410
:101FF0006F0883E062E041E00E946F0883E063E0E5
:1020000041E00E946F0883E064E042E00E946F08B4
:1020100083E065E042E00E946F0883E066E042E012
:102020000E946F0883E067E042E00E946F08CF9152
:10203000DF910895DF93CF93CDB7DEB728970FB622
:10204000F894DEBF0FBECDBF8C8381E08B838C8183
:10205000869586958A838C818370898383E064E08A
:1020600041E00E947D0B83E065E041E00E947D0B32
:1020700083E066E041E00E947D0B83E067E041E0A1
:102080000E947D0B8981282F30E038872F838F8134
:10209000988581309105D9F02F813885223031051E
:1020A0002CF48F819885009761F022C02F813885AC
:1020B0002230310591F08F8198858330910599F018
:1020C00017C083E064E040E00E947D0B11C083E014
:1020D00065E040E00E947D0B0BC083E066E040E0DD
:1020E0000E947D0B05C083E067E040E00E947D0B0D
:1020F0008A81282F30E03E832D838D819E8181301F
:102100009105E9F02D813E81223031052CF48D813D
:102110009E81009761F02AC02D813E8122303105D9
:10212000B1F08D819E8183309105C9F01FC083E09D
:1021300060E00E942C0D8823C9F41B8217C083E045
:1021400061E00E942C0D882389F41B820FC083E07C
:1021500062E00E942C0D882349F41B8207C083E0B3
:1021600063E00E942C0D882309F41B828B81289642
:102170000FB6F894DEBF0FBECDBFCF91DF910895AB
:10218000DF93CF93CDB7DEB728970FB6F894DEBFB5
:102190000FBECDBF8C8381E08B838C818695869525
:1021A0008A838C818370898383E064E041E00E94AC
:1021B0007D0B83E065E041E00E947D0B83E066E0FB
:1021C00041E00E947D0B83E067E041E00E947D0BCF
:1021D0008981282F30E038872F838F81988581303F
:1021E0009105D9F02F813885223031052CF48F816B
:1021F0009885009761F022C02F8138852230310503
:1022000091F08F8198858330910599F017C083E014
:1022100064E040E00E947D0B11C083E065E040E097
:102220000E947D0B0BC083E066E040E00E947D0BC6
:1022300005C083E067E040E00E947D0B8A81282F83
:1022400030E03E832D838D819E818130910519F18F
:102250002D813E81223031052CF48D819E810097A5
:1022600061F042C02D813E812230310511F18D8116
:102270009E818330910559F137C083E060E00E9470
:102280002C0D882389F51B8283E060E00E942C0DD1
:102290008823D1F329C083E061E00E942C0D8823BC
:1022A00019F51B8283E061E00E942C0D8823D1F395
:1022B0001BC083E062E00E942C0D8823A9F41B82DE
:1022C00083E062E00E942C0D8823D1F30DC083E0EF
:1022D00063E00E942C0D882339F41B8283E063E0C5
:1022E0000E942C0D8823D1F38B8128960FB6F89489
:1022F000DEBF0FBECDBFCF91DF910895DF93CF93A7
:1023000000D0CDB7DEB71A8280E189831A820BC074
:102310008A810E94C010882319F48A81898306C0AB
:102320008A818F5F8A838A81803190F389810F90BF
:102330000F90CF91DF910895DF93CF93CDB7DEB7A4
:102340002F970FB6F894DEBF0FBECDBF1F860E9439
:10235000731580E090E0A0EFB1E48B879C87AD8798
:10236000BE876B857C858D859E8520E030E04AEFB9
:1023700054E40E941F02DC01CB018F839887A98758
:10238000BA876F81788589859A8520E030E040E8BA
:102390005FE30E94790388232CF481E090E09E8320
:1023A0008D833FC06F81788589859A8520E03FEFD6
:1023B0004FE757E40E94190318164CF56B857C858E
:1023C0008D859E8520E030E040E251E40E941F02AE
:1023D000DC01CB01BC01CD010E944900DC01CB0135
:1023E0009E838D830FC088EC90E09C838B838B81D0
:1023F0009C810197F1F79C838B838D819E8101974E
:102400009E838D838D819E81009769F714C06F81B3
:10241000788589859A850E944900DC01CB019E83DD
:102420008D838D819E819A83898389819A81019789
:10243000F1F79A83898380E38F878F8588608F8700
:102440008F8584608F878F850E949D1388E08F879A
:102450008F8584608F878F8581608F878F8582606D
:102460008F878F8582608F878F850E949D1381E083
:102470000E949D132F960FB6F894DEBF0FBECDBFFE
:10248000CF91DF910895DF93CF93CDB7DEB781E091
:102490000E949D13CF91DF910895DF93CF930F9208
:1024A000CDB7DEB7898389810E9488140F90CF91C0
:1024B000DF910895DF93CF9300D00F92CDB7DEB7B1
:1024C0009B838A8319820EC08981282F30E08A81FC
:1024D0009B81FC01E20FF31F80810E944D128981D4
:1024E0008F5F89838981282F30E08A819B81FC015D
:1024F000E20FF31F8081882339F70F900F900F9020
:10250000CF91DF910895DF93CF9300D00F92CDB795
:10251000DEB78A836B838A81882F90E000249695AA
:1025200087950794969587950794982F802D982FD7
:102530008B81890F898389818068898389810E9441
:102540009D130F900F900F90CF91DF910895EF9210
:10255000FF920F931F93DF93CF93CDB7DEB72A97E8
:102560000FB6F894DEBF0FBECDBF6F837887898723
:102570009A871B821C821D821E821A828F819885F7
:10258000A985BA85BB239CF48F819885A985BA85D6
:10259000B095A095909581959F4FAF4FBF4F8F837A
:1025A0009887A987BA878DE20E944D1245C08F8116
:1025B0009885A985BA850097A105B105E9F580E35D
:1025C0000E944D1239C08B819C81AD81BE812AE071
:1025D00030E040E050E0BC01CD010E94FC2D7B01C9
:1025E0008C018F819885A985BA852AE030E040E08A
:1025F00050E0BC01CD010E94492EDC01CB018E0DC3
:102600009F1DA01FB11F8B839C83AD83BE838F81D1
:102610009885A985BA852AE030E040E050E0BC0109
:10262000CD010E94492EDA01C9018F839887A987BD
:10263000BA878A818F5F8A838F819885A985BA85B9
:102640000097A105B10509F0BECF2AC08B819C81FE
:10265000AD81BE812AE030E040E050E0BC01CD0118
:102660000E94272EDC01CB0189838981805D8983CB
:1026700089810E944D128B819C81AD81BE812AE0AF
:1026800030E040E050E0BC01CD010E94272EDA018D
:10269000C9018B839C83AD83BE838A8181508A83E9
:1026A0008B819C81AD81BE810097A105B10571F63A
:1026B00006C080E30E944D128A8181508A838A81FC
:1026C0008823B9F72A960FB6F894DEBF0FBECDBFA8
:1026D000CF91DF911F910F91FF90EF900895DF93BD
:1026E000CF9300D0CDB7DEB78A83198206C088E1C8
:1026F0000E949D1389818F5F898399818A819817B0
:10270000B0F30F900F90CF91DF910895DF93CF93A7
:1027100000D0CDB7DEB78A83198206C08CE10E9453
:102720009D1389818F5F898399818A819817B0F37E
:102730000F900F90CF91DF910895DF93CF93CDB796
:10274000DEB72F970FB6F894DEBF0FBECDBF8F87D1
:1027500081E062E040E00E947D0B81E061E040E0CA
:102760000E947D0B8F85982F917080E067E0492F44
:102770000E947D0B8F858695982F917080E066E092
:10278000492F0E947D0B8F8586958695982F917095
:1027900080E065E0492F0E947D0B8F8586958695A8
:1027A0008695982F917080E064E0492F0E947D0B00
:1027B0008F8582958F70982F917080E063E0492F0C
:1027C0000E947D0B8F85829586958770982F9170DA
:1027D00080E062E0492F0E947D0B8F85829586956F
:1027E00086958370982F917080E061E0492F0E9458
:1027F0007D0B8F85982F991F9927991F80E060E0A6
:10280000492F0E947D0B81E060E041E00E947D0B3A
:1028100080E090E0A0E0B0E48B879C87AD87BE8726
:102820006B857C858D859E8520E030E04AEF54E401
:102830000E941F02DC01CB018F839887A987BA878A
:102840006F81788589859A8520E030E040E85FE3F4
:102850000E94790388232CF481E090E09E838D838D
:102860003FC06F81788589859A8520E03FEF4FE7EB
:1028700057E40E94190318164CF56B857C858D85ED
:102880009E8520E030E040E251E40E941F02DC011E
:10289000CB01BC01CD010E944900DC01CB019E832C
:1028A0008D830FC088EC90E09C838B838B819C810F
:1028B0000197F1F79C838B838D819E8101979E8385
:1028C0008D838D819E81009769F714C06F81788513
:1028D00089859A850E944900DC01CB019E838D8306
:1028E0008D819E819A83898389819A810197F1F7ED
:1028F0009A83898381E060E040E00E947D0B2F96FF
:102900000FB6F894DEBF0FBECDBFCF91DF91089513
:10291000DF93CF93CDB7DEB72F970FB6F894DEBF16
:102920000FBECDBF8F8781E062E041E00E947D0B4A
:1029300081E061E040E00E947D0B8F85982F9170CF
:1029400080E067E0492F0E947D0B8F858695982F48
:10295000917080E066E0492F0E947D0B8F858695FF
:102960008695982F917080E065E0492F0E947D0B3D
:102970008F85869586958695982F917080E064E086
:10298000492F0E947D0B8F8582958F70982F9170B3
:1029900080E063E0492F0E947D0B8F8582958695AC
:1029A0008770982F917080E062E0492F0E947D0B24
:1029B0008F858295869586958370982F917080E09B
:1029C00061E0492F0E947D0B8F85982F991F9927D1
:1029D000991F80E060E0492F0E947D0B81E060E05C
:1029E00041E00E947D0B80E090E0A0E0B0E48B87A6
:1029F0009C87AD87BE876B857C858D859E8520E015
:102A000030E04AEF54E40E941F02DC01CB018F83C7
:102A10009887A987BA876F81788589859A8520E00C
:102A200030E040E85FE30E94790388232CF481E0E2
:102A300090E09E838D833FC06F81788589859A85DC
:102A400020E03FEF4FE757E40E94190318164CF5BA
:102A50006B857C858D859E8520E030E040E251E4E9
:102A60000E941F02DC01CB01BC01CD010E94490084
:102A7000DC01CB019E838D830FC088EC90E09C83AA
:102A80008B838B819C810197F1F79C838B838D8154
:102A90009E8101979E838D838D819E81009769F72A
:102AA00014C06F81788589859A850E944900DC0170
:102AB000CB019E838D838D819E819A8389838981B9
:102AC0009A810197F1F79A83898381E060E040E081
:102AD0000E947D0B2F960FB6F894DEBF0FBECDBFC0
:102AE000CF91DF910895DF93CF93CDB7DEB781E02B
:102AF00062E042E00E946F0881E061E042E00E94F3
:102B00006F0881E060E042E00E946F0880E067E0CB
:102B100042E00E946F0880E066E042E00E946F0899
:102B200080E065E042E00E946F0880E064E042E0FF
:102B30000E946F0880E063E042E00E946F0880E03E
:102B400062E042E00E946F0880E061E042E00E94A3
:102B50006F0880E060E042E00E946F08CF91DF9153
:102B60000895DF93CF93CDB7DEB7ADE2B0E0EDE2ED
:102B7000F0E0808180648C93ADE2B0E0EDE2F0E0C3
:102B800080818F7E8C9381E065E040E00E946F0839
:102B900081E066E042E00E946F0881E067E040E08B
:102BA0000E946F0881E064E040E00E946F08ADE29F
:102BB000B0E0EDE2F0E0808180628C93CF91DF9114
:102BC0000895DF93CF930F92CDB7DEB78983EFE2FD
:102BD000F0E089818083EEE2F0E080818823DCF7F9
:102BE0000F90CF91DF910895DF93CF93CDB7DEB7EC
:102BF000EEE2F0E080818823DCF7EFE2F0E0808114
:102C0000CF91DF910895DF93CF93CDB7DEB782E008
:102C100060E042E00E946F0882E061E042E00E94D2
:102C20006F0882E062E042E00E946F0882E063E0A9
:102C300042E00E946F0882E064E042E00E946F0878
:102C400082E065E042E00E946F0882E066E042E0D8
:102C50000E946F08CF91DF910895DF93CF9300D04A
:102C60000F92CDB7DEB789838981282F30E03B836F
:102C70002A838A819B818430910509F4D7C02A81F7
:102C80003B8125303105ECF48A819B8181309105AF
:102C900009F460C02A813B81223031052CF48A81FD
:102CA0009B81009799F19AC12A813B81223031059D
:102CB00009F474C08A819B818330910509F492C024
:102CC0008DC12A813B812730310509F41BC18A81DE
:102CD0009B81883091056CF42A813B812530310538
:102CE00009F4C8C08A819B818630910509F4E6C049
:102CF00075C12A813B812830310509F427C18A81B9
:102D00009B818930910509F445C168C182E060E08A
:102D100041E00E947D0B82E061E041E00E947D0B7A
:102D200082E062E041E00E947D0B82E063E041E0EE
:102D30000E947D0B82E064E041E00E947D0B82E016
:102D400065E041E00E947D0B82E066E040E00E9489
:102D50007D0B67C182E060E040E00E947D0B82E075
:102D600061E041E00E947D0B82E062E041E00E9470
:102D70007D0B82E063E040E00E947D0B82E064E036
:102D800040E00E947D0B82E065E040E00E947D0B08
:102D900082E066E040E00E947D0B43C182E060E09B
:102DA00041E00E947D0B82E061E041E00E947D0BEA
:102DB00082E062E040E00E947D0B82E063E041E05F
:102DC0000E947D0B82E064E041E00E947D0B82E086
:102DD00065E040E00E947D0B82E066E041E00E94F9
:102DE0007D0B1FC182E060E041E00E947D0B82E02C
:102DF00061E041E00E947D0B82E062E041E00E94E0
:102E00007D0B82E063E041E00E947D0B82E064E0A4
:102E100040E00E947D0B82E065E040E00E947D0B77
:102E200082E066E041E00E947D0BFBC082E060E052
:102E300040E00E947D0B82E061E041E00E947D0B5A
:102E400082E062E041E00E947D0B82E063E040E0CE
:102E50000E947D0B82E064E040E00E947D0B82E0F6
:102E600065E041E00E947D0B82E066E041E00E9467
:102E70007D0BD7C082E060E041E00E947D0B82E0E4
:102E800061E040E00E947D0B82E062E041E00E9450
:102E90007D0B82E063E041E00E947D0B82E064E014
:102EA00040E00E947D0B82E065E041E00E947D0BE6
:102EB00082E066E041E00E947D0BB3C082E060E00A
:102EC00041E00E947D0B82E061E040E00E947D0BCA
:102ED00082E062E041E00E947D0B82E063E041E03D
:102EE0000E947D0B82E064E041E00E947D0B82E065
:102EF00065E041E00E947D0B82E066E041E00E94D7
:102F00007D0B8FC082E060E041E00E947D0B82E09B
:102F100061E041E00E947D0B82E062E041E00E94BE
:102F20007D0B82E063E040E00E947D0B82E064E084
:102F300040E00E947D0B82E065E040E00E947D0B56
:102F400082E066E040E00E947D0B6BC082E060E0C2
:102F500041E00E947D0B82E061E041E00E947D0B38
:102F600082E062E041E00E947D0B82E063E041E0AC
:102F70000E947D0B82E064E041E00E947D0B82E0D4
:102F800065E041E00E947D0B82E066E041E00E9446
:102F90007D0B47C082E060E041E00E947D0B82E053
:102FA00061E041E00E947D0B82E062E041E00E942E
:102FB0007D0B82E063E041E00E947D0B82E064E0F3
:102FC00040E00E947D0B82E065E041E00E947D0BC5
:102FD00082E066E041E00E947D0B23C082E060E079
:102FE00040E00E947D0B82E061E040E00E947D0BAA
:102FF00082E062E040E00E947D0B82E063E040E01E
:103000000E947D0B82E064E040E00E947D0B82E044
:1030100065E040E00E947D0B82E066E040E00E94B7
:103020007D0B0F900F900F90CF91DF9108950F932C
:10303000DF93CF93CDB7DEB72B970FB6F894DEBFF3
:103040000FBECDBF89836A834B832C830D83A0E49D
:10305000B0E0E0E4F0E0808180688C9383E060E0A1
:1030600040E00E946F0883E061E042E00E946F0848
:103070008981882341F4A0E4B0E0E0E4F0E08081BD
:103080008F7B8C930AC08981813039F4A0E4B0E051
:10309000E0E4F0E0808180648C938A81282F30E026
:1030A0003B872A878A859B8581309105C1F02A85D7
:1030B0003B852230310511F18A859B85009761F5AA
:1030C000A0E4B0E0E0E4F0E080818F7E8C93A0E4A7
:1030D000B0E0E0E4F0E080818F7D8C931DC0A0E43F
:1030E000B0E0E0E4F0E080818F7E8C93A0E4B0E07B
:1030F000E0E4F0E0808180628C930EC0A0E4B0E058
:10310000E0E4F0E0808180618C93A0E4B0E0E0E452
:10311000F0E0808180628C938B81882341F4A0E46D
:10312000B0E0E0E4F0E08081877F8C930AC08B817F
:10313000813039F4A0E4B0E0E0E4F0E08081886020
:103140008C938C81282F30E0398728878885998552
:103150008230910509F448C028853985233031052E
:1031600054F488859985009799F028853985213010
:10317000310521F17AC0888599858330910509F45C
:1031800049C0288539852430310509F459C06DC0FE
:10319000A0E4B0E0E0E4F0E080818D7F8C93A0E4D7
:1031A000B0E0E0E4F0E080818B7F8C93A0E4B0E0BD
:1031B000E0E4F0E080818B7F8C9357C0A0E4B0E026
:1031C000E0E4F0E080818D7F8C93A0E4B0E0E0E467
:1031D000F0E080818B7F8C93A0E4B0E0E0E4F0E04D
:1031E00080818B7F8C9341C0A0E4B0E0E0E4F0E00C
:1031F00080818D7F8C93A0E4B0E0E0E4F0E08081FA
:1032000084608C93A0E4B0E0E0E4F0E080818B7F08
:103210008C932BC0A0E4B0E0E0E4F0E08081826019
:103220008C93A0E4B0E0E0E4F0E0808184608C93D3
:10323000A0E4B0E0E0E4F0E080818B7F8C9315C0E7
:10324000A0E4B0E0E0E4F0E0808182608C93A0E450
:10325000B0E0E0E4F0E0808184608C93A0E4B0E032
:10326000E0E4F0E0808184608C938D81282F30E051
:103270003F832E838E819F818130910571F02E8155
:103280003F812230310571F08E819F81009771F46A
:10329000E9E2F0E080EA808309C0E9E2F0E08FEC47
:1032A000808304C0E9E2F0E087E68083AAE2B0E030
:1032B000EAE2F0E0808180618C93AAE2B0E0EAE289
:1032C000F0E0808188608C932B960FB6F894DEBF77
:1032D0000FBECDBFCF91DF910F910895DF93CF93B4
:1032E0000F92CDB7DEB78983ECE2F0E0898180836D
:1032F000EBE2F0E080818295869586958370882F39
:1033000090E081709070009799F30F90CF91DF91CA
:103310000895DF93CF93CDB7DEB7EBE2F0E0808185
:103320008823DCF7ECE2F0E08081CF91DF91089513
:10333000DF93CF93CDB7DEB7A1E4B0E0E1E4F0E0F6
:10334000808188608C93CF91DF910895DF93CF9334
:10335000CDB7DEB7E1E4F0E08CE08083CF91DF9180
:103360000895DF93CF9300D00F92CDB7DEB7898356
:103370008981282F30E03B832A838A819B81833097
:10338000910509F470C02A813B812430310584F411
:103390008A819B8181309105D1F12A813B81223044
:1033A00031050CF04AC08A819B810097D1F0C9C0D9
:1033B0002A813B812530310509F481C08A819B81B6
:1033C000853091050CF465C02A813B81263031059A
:1033D00009F48BC08A819B818730910509F49BC0D9
:1033E000B0C0A1E4B0E0E1E4F0E080818E7F8C9396
:1033F000A1E4B0E0E1E4F0E080818D7F8C93A1E472
:10340000B0E0E1E4F0E080818B7F8C93AFC0A1E479
:10341000B0E0E1E4F0E0808181608C93A1E4B0E071
:10342000E1E4F0E080818D7F8C93A1E4B0E0E1E401
:10343000F0E080818B7F8C9399C0A1E4B0E0E1E45F
:10344000F0E080818E7F8C93A1E4B0E0E1E4F0E0D5
:10345000808182608C93A1E4B0E0E1E4F0E08081BF
:103460008B7F8C9383C0A1E4B0E0E1E4F0E0808145
:1034700081608C93A1E4B0E0E1E4F0E080818260BF
:103480008C93A1E4B0E0E1E4F0E080818B7F8C9349
:103490006DC0A1E4B0E0E1E4F0E080818E7F8C9328
:1034A000A1E4B0E0E1E4F0E080818D7F8C93A1E4C1
:1034B000B0E0E1E4F0E0808184608C9357C0A1E447
:1034C000B0E0E1E4F0E0808181608C93A1E4B0E0C1
:1034D000E1E4F0E080818D7F8C93A1E4B0E0E1E451
:1034E000F0E0808184608C9341C0A1E4B0E0E1E42D
:1034F000F0E080818E7F8C93A1E4B0E0E1E4F0E025
:10350000808182608C93A1E4B0E0E1E4F0E080810E
:1035100084608C932BC0A1E4B0E0E1E4F0E0808112
:1035200081608C93A1E4B0E0E1E4F0E0808182600E
:103530008C93A1E4B0E0E1E4F0E0808184608C93BE
:1035400015C0A1E4B0E0E1E4F0E080818E7F8C93CF
:10355000A1E4B0E0E1E4F0E080818D7F8C93A1E410
:10356000B0E0E1E4F0E080818B7F8C930F900F90CE
:103570000F90CF91DF910895DF93CF93CDB7DEB752
:1035800027970FB6F894DEBF0FBECDBF9D838C8307
:103590006E834F838AE190E00E94941D9A83898311
:1035A00089819A81009709F46FC080918A00909177
:1035B0008B00009741F489819A8190938B008093CE
:1035C0008A000E94231D8E81823010F081E08E835C
:1035D000E981FA81118E108EE981FA818E81868BC4
:1035E000E981FA818F81878BE981FA818C819D81C4
:1035F0009183808389819A8102960E942A1E898103
:103600009A810C960E942A1EE981FA8189819A8109
:1036100091878087E981FA8189819A81938B828B56
:103620008E81282F30E087E090E0821B930BE981A8
:10363000FA8195878487E981FA81968980918C0047
:10364000891728F4E981FA81868980938C00E981C1
:10365000FA818689282F30E0C901880F991F880FC9
:10366000991F880F991F820F931FAC014D565F4F12
:1036700089819A819C012E5F3F4FCA01B9010E9446
:103680003A1E81E08B8302C08FEF8B838B8127965C
:103690000FB6F894DEBF0FBECDBFCF91DF91089576
:1036A000DF93CF9300D000D000D0CDB7DEB79C839E
:1036B0008B837E836D8320918D0030918E008B8172
:1036C0009C81820F931F9A83898380918A009091B5
:1036D0008B0002960E94F21EE0918A00F0918B000E
:1036E00089819A819383828320918D0030918E000D
:1036F00089819A818217930770F48091B900909123
:10370000BA0020918A0030918B002E5F3F4FB901A3
:103710000E94861E0DC08091B7009091B800209144
:103720008A0030918B002E5F3F4FB9010E94861EA8
:103730008D819E81009761F080918A0090918B002D
:103740009C01245F3F4F8D819E81B9010E94861E9E
:1037500026960FB6F894DEBF0FBECDBFCF91DF9196
:103760000895DF93CF9300D0CDB7DEB73AC0F89479
:10377000E091C000F091C100868197819A8389838E
:1037800089819A810C960E94F21E789489819A818F
:1037900002960E94F21EE981FA81968980918C003E
:1037A000891728F4E981FA81868980938C00E98160
:1037B000FA818689282F30E0C901880F991F880F68
:1037C000991F880F991F820F931FAC014D565F4FB1
:1037D00089819A819C012E5F3F4FCA01B9010E94E5
:1037E0003A1E8091BB00882309F0C1CF0F900F9043
:1037F000CF91DF910895DF93CF9300D000D0CDB764
:10380000DEB70E947F2920918F0030919000821BAB
:10381000930B909392008093910085C080918D00CE
:1038200090918E00019690938E0080938D008091F0
:103830009100909192000197909392008093910053
:1038400080918D0090918E00009709F064C0809166
:10385000B7009091B8009A8389838091B9009091C4
:10386000BA009093B8008093B70089819A819093B1
:10387000BA008093B9004FC0E091B700F091B80052
:103880000580F681E02D868197819C838B83EB8177
:10389000FC812281338180918D0090918E0082176E
:1038A000930708F440C0F8948B819C8102960E9493
:1038B000F21EEB81FC8184899589009729F08B8128
:1038C0009C810C960E94F21E7894EB81FC81968973
:1038D00080918C00891728F4EB81FC818689809384
:1038E0008C00EB81FC818689282F30E0C901880F8C
:1038F000991F880F991F880F991F820F931FAC0182
:103900004D565F4F8B819C819C012E5F3F4FCA01BA
:10391000B9010E943A1EE091B700F091B800808191
:10392000882309F0A9CF809191009091920000978F
:1039300009F074CF80918D0090918E00909390004B
:1039400080938F000F900F900F900F90CF91DF9189
:103950000895DF93CF9300D0CDB7DEB70E94B11B9F
:103960000E94FB1B0AC080918C00882309F466C06A
:1039700080918C00815080938C0080918C00282F46
:1039800030E0C901880F991F880F991F880F991F70
:10399000820F931FFC01ED56FF4F8081882319F39E
:1039A00080918C00282F30E0C901880F991F880F63
:1039B000991F880F991F820F931F8D569F4F9A83CF
:1039C0008983E981FA810180F281E02D82819381EE
:1039D000E981FA8192838183E981FA8121813281AF
:1039E00089819A8103962817390759F4E981FA8168
:1039F0000180F281E02D82819381E981FA819283B5
:103A00008183E981FA810180F281E02D86819781AD
:103A100090938B0080938A00E0918A00F0918B0054
:103A20004081518180918A0090918B00E0918A00C1
:103A3000F0918B002789622FFA0109950F900F9062
:103A4000CF91DF910895DF93CF930F92CDB7DEB77B
:103A5000198213C08981282F30E0C901880F991F6E
:103A6000880F991F880F991F820F931F8D569F4FA4
:103A70000E94001E89818F5F89838981823050F383
:103A800085EA90E00E94001E8EEA90E00E94001EEF
:103A90008BEB90E00E94001E85EA90E09093B800C6
:103AA0008093B7008EEA90E09093BA008093B900BB
:103AB0000F90CF91DF910895DF93CF9300D000D086
:103AC0000F92CDB7DEB79D838C83EC81FD8105809D
:103AD000F681E02D868197819B838A838A819B81F1
:103AE0000C960E94F21E8A819B819C01245F3F4FAD
:103AF0008BEB90E0B9010E943A1EEA81FB81968926
:103B0000E0918A00F0918B008689981718F081E087
:103B1000898301C0198289810F900F900F900F90B7
:103B20000F90CF91DF910895DF93CF9300D000D015
:103B3000CDB7DEB79C838B831A8219820E94E92855
:103B40008091C4009091C5002B813C81820F931F0E
:103B500023E0883E920718F52091C4003091C500FB
:103B60008B819C81280F391F8091C4009091C500E2
:103B700082179307A0F48091C4009091C5008A53E6
:103B80009F4F9A8389832091C4003091C5008B8117
:103B90009C81820F931F9093C5008093C4000E9464
:103BA000F52889819A810F900F900F900F90CF91F7
:103BB000DF910895DF93CF9300D0CDB7DEB79A831E
:103BC00089830F900F90CF91DF910895DF93CF936A
:103BD000CDB7DEB71092C5001092C400CF91DF912F
:103BE0000895DF93CF93CDB7DEB72091C400309115
:103BF000C50088EE93E0821B930BCF91DF9108956F
:103C0000DF93CF9300D0CDB7DEB79A8389838981C4
:103C10009A810396E981FA8192838183E981FA810D
:103C20008FEF9FEF9483838389819A810396E98143
:103C3000FA819683858389819A810396E981FA8145
:103C400090878783E981FA8110820F900F90CF913E
:103C5000DF910895DF93CF9300D0CDB7DEB79A837D
:103C60008983E981FA81118610860F900F90CF9198
:103C7000DF910895DF93CF9300D000D000D0CDB76F
:103C8000DEB79C838B837E836D83EB81FC81818196
:103C900092819A838983E981FA8182819381ED817E
:103CA000FE8193838283EB81FC8181819281ED810E
:103CB000FE8195838483E981FA810280F381E02D7E
:103CC0008D819E81958384838D819E81E981FA8196
:103CD000938382838D819E81EB81FC81928381839A
:103CE000ED81FE818B819C8191878087EB81FC81B6
:103CF00080818F5FEB81FC81808326960FB6F894DC
:103D0000DEBF0FBECDBFCF91DF910895DF93CF937C
:103D1000CDB7DEB728970FB6F894DEBF0FBECDBF84
:103D20009E838D8378876F83EF81F8858081918171
:103D30009A83898389819A812FEF8F3F920739F483
:103D4000ED81FE81878190859C838B8318C08D8156
:103D50009E8103969C838B8306C0EB81FC818281CC
:103D600093819C838B83EB81FC810280F381E02D26
:103D70002081318189819A818217930770F7EB81C5
:103D8000FC8182819381EF81F88593838283EF8127
:103D9000F8850280F381E02D8F8198859583848357
:103DA000EF81F8858B819C81958384838F819885B1
:103DB000EB81FC8193838283EF81F8858D819E81E5
:103DC00091878087ED81FE8180818F5FED81FE810B
:103DD000808328960FB6F894DEBF0FBECDBFCF917B
:103DE000DF910895DF93CF9300D000D0CDB7DEB739
:103DF0009C838B83EB81FC81A281B381EB81FC816D
:103E00008481958115969C938E931497EB81FC8108
:103E1000A481B581EB81FC818281938113969C936F
:103E20008E931297EB81FC81808591859A8389839B
:103E3000E981FA81218132818B819C8128173907A0
:103E400041F4EB81FC8184819581E981FA8192833F
:103E50008183EB81FC8111861086E981FA81808162
:103E60008150E981FA8180830F900F900F900F901D
:103E7000CF91DF910895DF93CF93CDB7DEB7289729
:103E80000FB6F894DEBF0FBECDBF9C838B837E83BD
:103E90006D8358874F83EB81FC8181E180838B8127
:103EA0009C8101979C838B83EB81FC8182E28083E0
:103EB0008B819C8101979C838B83EB81FC8183E3C5
:103EC00080838B819C8101979C838B838D819E81D4
:103ED0009A8389838981EB81FC8180838B819C819A
:103EE00001979C838B8389819A81892F99279A8353
:103EF00089838981EB81FC8180838B819C810197FF
:103F00009C838B83EB81FC8110828B819C81019748
:103F10009C838B83EB81FC8180E880838B819C81F7
:103F200001979C838B83EB81FC8110828B819C8128
:103F300001979C838B83EB81FC8182E080838B8162
:103F40009C8101979C838B83EB81FC8183E0808340
:103F50008B819C8101979C838B83EB81FC8184E026
:103F600080838B819C8101979C838B83EB81FC8177
:103F700085E080838B819C8101979C838B83EB817F
:103F8000FC8186E080838B819C8101979C838B835D
:103F9000EB81FC8187E080838B819C8101979C83EE
:103FA0008B83EB81FC8188E080838B819C810197EE
:103FB0009C838B83EB81FC8189E080838B819C8156
:103FC00001979C838B83EB81FC8180E180838B81D3
:103FD0009C8101979C838B83EB81FC8181E18083B1
:103FE0008B819C8101979C838B83EB81FC8182E197
:103FF00080838B819C8101979C838B83EB81FC81E7
:1040000083E180838B819C8101979C838B83EB81EF
:10401000FC8184E180838B819C8101979C838B83CD
:10402000EB81FC8185E180838B819C8101979C835E
:104030008B83EB81FC8186E180838B819C8101975E
:104040009C838B83EB81FC8187E180838B819C81C6
:1040500001979C838B83EB81FC8188E180838B813A
:104060009C8101979C838B83EB81FC8189E1808318
:104070008B819C8101979C838B83EB81FC8180E207
:1040800080838B819C8101979C838B83EB81FC8156
:1040900081E280838B819C8101979C838B83EB8160
:1040A000FC8182E280838B819C8101979C838B833E
:1040B000EB81FC8183E280838B819C8101979C83CF
:1040C0008B838F8198859A8389838981EB81FC8199
:1040D00080838B819C8101979C838B8389819A81CA
:1040E000892F99279A8389838981EB81FC81808339
:1040F0008B819C8101979C838B83EB81FC8186E281
:1041000080838B819C8101979C838B83EB81FC81D5
:1041100087E280838B819C8101979C838B83EB81D9
:10412000FC8188E280838B819C8101979C838B83B7
:10413000EB81FC8189E280838B819C8101979C8348
:104140008B83EB81FC8180E380838B819C81019751
:104150009C838B83EB81FC8181E380838B819C81B9
:1041600001979C838B838B819C8128960FB6F89452
:10417000DEBF0FBECDBFCF91DF910895DF93CF9308
:10418000CDB7DEB70E94AE21A091AE04B091AF04CE
:10419000CD91CDBFDD91DEBFFF91EF91DF91CF914A
:1041A000BF91AF919F918F917F916F915F914F914F
:1041B0003F912F911F910F91FF90EF90DF90CF9043
:1041C000BF90AF909F908F907F906F905F904F9037
:1041D0003F902F901F900F900FBE0F90089581E099
:1041E000CF91DF910895DF93CF93CDB7DEB7CF9115
:1041F000DF9108950F920FB6F8940F921F92112439
:104200002F923F924F925F926F927F928F929F92E6
:10421000AF92BF92CF92DF92EF92FF920F931F93D4
:104220002F933F934F935F936F937F938F939F93BE
:10423000AF93BF93CF93DF93EF93FF93A091AE041F
:10424000B091AF040DB60D920EB60D920E94892A60
:10425000A091AE04B091AF04CD91CDBFDD91DEBF92
:10426000FF91EF91DF91CF91BF91AF919F918F918E
:104270007F916F915F914F913F912F911F910F917E
:10428000FF90EF90DF90CF90BF90AF909F908F9076
:104290007F906F905F904F903F902F901F900F9066
:1042A0000FBE0F9008950F920FB6F8940F921F92C1
:1042B00011242F923F924F925F926F927F928F9232
:1042C0009F92AF92BF92CF92DF92EF92FF920F93A5
:1042D0001F932F933F934F935F936F937F938F938E
:1042E0009F93AF93BF93CF93DF93EF93FF93A091EF
:1042F000AE04B091AF040DB60D920EB60D920E94B1
:10430000B4290E94892AA091AE04B091AF04CD9146
:10431000CDBFDD91DEBFFF91EF91DF91CF91BF91D6
:10432000AF919F918F917F916F915F914F913F914D
:104330002F911F910F91FF90EF90DF90CF90BF9042
:10434000AF909F908F907F906F905F904F903F9035
:104350002F901F900F900FBE0F900895DF93CF9373
:1043600000D000D000D0CDB7DEB780E49FE1A0E060
:10437000B0E08B839C83AD83BE838B819C81AD81B8
:10438000BE81689415F8B695A7959795879516946C
:10439000D1F78B839C83AD83BE838B819C81AD8160
:1043A000BE810197A109B1098B839C83AD83BE8334
:1043B0008B8189838B819C81AD81BE81892F9A2FCE
:1043C000AB2FBB278B839C83AD83BE838B818A837A
:1043D000EBE4F0E08A818083EAE4F0E08981808385
:1043E0008BE08983EEE4F0E089818083E9E5F0E009
:1043F00080818983898180618983E9E5F0E0898111
:10440000808326960FB6F894DEBF0FBECDBFCF9146
:10441000DF9108950E9453211895DF93CF93CDB774
:10442000DEB728970FB6F894DEBF0FBECDBF8F83DF
:1044300068871A8219828F81882309F48CC08FE1E2
:1044400090E00E94941D9E838D838D819E810097B4
:1044500009F481C08F81282F30E08885882F90E073
:10446000AC01249FC001259F900D349F900D112415
:1044700001969C838B838B819C810E94941DED818E
:10448000FE8191838083ED81FE81808191810097FF
:1044900009F45DC0ED81FE81408151818F81282F1B
:1044A00030E08885882F90E0BC01269FC001279FBF
:1044B000900D369F900D1124840F951FED81FE8184
:1044C00093838283ED81FE81128EED81FE81808156
:1044D0009181ED81FE8195838483ED81FE81408110
:1044E00051818F81882F90E09C0121503040888538
:1044F000882F90E0BC01269FC001279F900D369F1A
:10450000900D1124840F951FED81FE819783868382
:10451000ED81FE818F81838FED81FE818885848F7F
:10452000ED81FE818FEF858FED81FE818FEF868F8C
:104530008D819E8108960E94001E8D819E814196EC
:104540000E94001E8D819E819A83898304C08D8183
:104550009E810E94DA1D89819A8128960FB6F8946F
:10456000DEBF0FBECDBFCF91DF910895DF93CF9314
:1045700000D000D0CDB7DEB78B836C838B8160E039
:104580000E940D229A83898389819A81009721F064
:10459000E981FA818C81828F89819A810F900F90B5
:1045A0000F900F90CF91DF910895DF93CF93CDB708
:1045B000DEB72C970FB6F894DEBF0FBECDBF9E833B
:1045C0008D8378876F835A8749872B8719820FB627
:1045D000F8940F92ED81FE81928DED81FE81838DA5
:1045E0009817D8F48D819E812F813885B9014B852C
:1045F0000E941025ED81FE818189882349F08D81FB
:104600009E8141960E94252B813011F40E94FA2050
:104610000F900FBE81E08C875CC089859A850097DA
:1046200021F40F900FBE1C8654C08981882331F479
:10463000CE0102960E948D2B81E089830F900FBEE0
:104640000E94E9280FB6F8940F92ED81FE81858DC6
:104650008F3F19F4ED81FE81158EED81FE81868DEF
:104660008F3F19F4ED81FE81168E0F900FBECE01A3
:1046700002969E01275F3F4FB9010E94A62B882317
:1046800009F58D819E810E9474268823A1F08D8179
:104690009E81089629853A85B9010E94EF2A8D816D
:1046A0009E810E94ED250E94F528882309F08FCF76
:1046B0000E94FA208CCF8D819E810E94ED250E9460
:1046C000F52885CF8D819E810E94ED250E94F528D9
:1046D0001C868C852C960FB6F894DEBF0FBECDBF1E
:1046E000CF91DF910895DF93CF93CDB7DEB72997B0
:1046F0000FB6F894DEBF0FBECDBF9C838B837E8345
:104700006D8358874F8329871982EB81FC81928DB5
:10471000EB81FC81838D981740F58B819C812D81E5
:104720003E81B90149850E941025EB81FC81868D6F
:104730008F3F89F4EB81FC818189882399F08B81FB
:104740009C8141960E94252B882361F0EF81F8859A
:1047500081E0808307C0EB81FC81868D8F5FEB81D8
:10476000FC81868F81E08A8301C01A828A81299622
:104770000FB6F894DEBF0FBECDBFCF91DF91089585
:10478000DF93CF93CDB7DEB72E970FB6F894DEBF89
:104790000FBECDBF98878F837A8769875C874B87E9
:1047A0002D871B820FB6F8940F92EF81F885828DCA
:1047B000882309F43FC0EF81F885868197819A8329
:1047C00089838F81988529853A85B9010E94A5251D
:1047D0008D858823B1F4EF81F885828D8150EF813A
:1047E000F885828FEF81F88580858823F1F08F81AD
:1047F000988508960E94252B8130B9F40E94FA20F2
:1048000014C0EF81F88589819A8197838683EF812F
:10481000F8858189882349F08F81988541960E9487
:10482000252B882311F00E94FA200F900FBE81E003
:104830008E875CC08B859C85009721F40F900FBEFE
:104840001E8654C08B81882331F4CE0104960E94C9
:104850008D2B81E08B830F900FBE0E94E9280FB64D
:10486000F8940F92EF81F885858D8F3F19F4EF81D1
:10487000F885158EEF81F885868D8F3F19F4EF81CD
:10488000F885168E0F900FBECE0104969E01255F0F
:104890003F4FB9010E94A62B882309F58F81988587
:1048A0000E9441268823A1F08F81988541962B850F
:1048B0003C85B9010E94EF2A8F8198850E94ED25E1
:1048C0000E94F528882309F06DCF0E94FA206ACF54
:1048D0008F8198850E94ED250E94F52863CF8F81F6
:1048E00098850E94ED250E94F5281E868E852E96BD
:1048F0000FB6F894DEBF0FBECDBFCF91DF91089504
:10490000DF93CF93CDB7DEB728970FB6F894DEBF0D
:104910000FBECDBF9C838B837E836D8358874F836F
:104920001982EB81FC81828D882371F18B819C81BE
:104930002D813E81B9010E94A525EB81FC81828DEC
:104940008150EB81FC81828FEB81FC81858D8F3FD3
:1049500089F4EB81FC818085882399F08B819C818F
:1049600008960E94252B882361F0EF81F88581E06D
:10497000808307C0EB81FC81858D8F5FEB81FC819B
:10498000858F81E08A8301C01A828A8128960FB6BA
:10499000F894DEBF0FBECDBFCF91DF910895DF93B6
:1049A000CF9300D00F92CDB7DEB79B838A830FB62B
:1049B000F8940F92EA81FB81828D89830F900FBE5C
:1049C00089810F900F900F90CF91DF910895DF9321
:1049D000CF9300D00F92CDB7DEB79B838A83EA8155
:1049E000FB81828D898389810F900F900F90CF91E9
:1049F000DF910895DF93CF9300D0CDB7DEB79A83D0
:104A00008983E981FA81808191810E94DA1D8981FF
:104A10009A810E94DA1D0F900F90CF91DF91089537
:104A2000DF93CF9300D000D00F92CDB7DEB79A833B
:104A300089837C836B834D83E981FA81848D88230C
:104A400009F474C08D81882399F5E981FA81648124
:104A50007581E981FA81848D482F50E02B813C815A
:104A6000CB01B9010E949B2EE981FA812481358115
:104A7000E981FA81848D882F90E0820F931FE9816C
:104A8000FA8195838483E981FA8124813581E981E2
:104A9000FA81828193812817390708F447C0E98198
:104AA000FA8180819181E981FA81958384833EC076
:104AB000E981FA8166817781E981FA81848D482FC5
:104AC00050E02B813C81CB01B9010E949B2EE981F2
:104AD000FA8126813781E981FA81848D882F90E0DF
:104AE000909581959F4F820F931FE981FA8197835B
:104AF0008683E981FA8126813781E981FA81808183
:104B000091812817390790F4E981FA812281338154
:104B1000E981FA81848D882F90E0909581959F4F4F
:104B2000820F931FE981FA8197838683E981FA8155
:104B3000828D8F5FE981FA81828F0F900F900F90A5
:104B40000F900F90CF91DF910895DF93CF9300D016
:104B500000D0CDB7DEB79A8389837C836B83E981EC
:104B6000FA8180819181009789F1E981FA8126811A
:104B70003781E981FA81848D882F90E0820F931F1D
:104B8000E981FA8197838683E981FA8126813781D9
:104B9000E981FA81828193812817390740F0E98100
:104BA000FA8180819181E981FA8197838683E98105
:104BB000FA8146815781E981FA81848D282F30E07E
:104BC0008B819C81BA01A9010E949B2E0F900F90AE
:104BD0000F900F90CF91DF910895DF93CF9300D086
:104BE000CDB7DEB79A8389830FB6F8940F9215C0BC
:104BF000E981FA8181898823A9F089819A81419686
:104C00000E94252B882311F00E94032CE981FA8150
:104C1000868D8150E981FA81868FE981FA81868DBE
:104C2000181634F3E981FA818FEF868F0F900FBE4B
:104C30000FB6F8940F9215C0E981FA818085882318
:104C4000A9F089819A8108960E94252B882311F06A
:104C50000E94032CE981FA81858D8150E981FA81D6
:104C6000858FE981FA81858D181634F3E981FA81FF
:104C70008FEF858F0F900FBE0F900F90CF91DF9128
:104C80000895DF93CF9300D00F92CDB7DEB79B830B
:104C90008A830FB6F8940F92EA81FB81828D198284
:104CA000882311F481E089830F900FBE89810F90D2
:104CB0000F900F90CF91DF910895DF93CF9300D0A5
:104CC0000F92CDB7DEB79B838A83EA81FB81828D09
:104CD0001982882311F481E0898389810F900F90D4
:104CE0000F90CF91DF910895DF93CF9300D00F9273
:104CF000CDB7DEB79B838A830FB6F8940F92EA8113
:104D0000FB81928DEA81FB81838D1982981711F4C2
:104D100081E089830F900FBE89810F900F900F90D3
:104D2000CF91DF910895DF93CF9300D00F92CDB74D
:104D3000DEB79B838A83EA81FB81928DEA81FB81C6
:104D4000838D1982981711F481E0898389810F90EE
:104D50000F900F90CF91DF910895AF92BF92CF92B5
:104D6000DF92EF92FF920F931F93DF93CF93CDB714
:104D7000DEB764970FB6F894DEBF0FBECDBF9F833A
:104D80008E83798768875B874A873D872C870E8764
:104D9000F88AEF86DA8AC98ABC8AAB8A8A859B85BB
:104DA00029893A89B9010E94322D9C838B838B819A
:104DB0009C81009709F499C0EB81FC812789308D93
:104DC0008A859B850197820F931F9A8389838B81A4
:104DD0009C8128853985EB89FC89AA85BB85B90129
:104DE0004E859F018D010E94172C89819A812E8109
:104DF0003F814C855D85B9010E943B1FEB81FC81A1
:104E0000918380838F859889009731F0EF85F889A9
:104E10008B819C81918380830FB6F8940F9280914F
:104E2000B1048F5F8093B1048091AE049091AF0480
:104E3000009769F48B819C819093AF048093AE04BA
:104E40008091B1048130A9F40E946E2C12C080912F
:104E5000B604882371F4E091AE04F091AF04968912
:104E60008E85891730F08B819C819093AF0480935D
:104E7000AE04EB81FC8196898091B404891728F4F3
:104E8000EB81FC8186898093B4048091BB048F5FA1
:104E90008093BB04EB81FC8196898091B5048917CE
:104EA00028F4EB81FC8186898093B504EB81FC8139
:104EB0008689282F30E0C901880F991F880F991F14
:104EC000880F991F820F931FAC0144545B4F8B8155
:104ED0009C819C012E5F3F4FCA01B9010E943A1E7E
:104EE00081E08D830F900FBE02C08FEF8D838D8187
:104EF000813071F48091B604882351F0E091AE04C2
:104F0000F091AF0496898E85981710F40E94FA20CC
:104F10008D8164960FB6F894DEBF0FBECDBFCF91E2
:104F2000DF911F910F91FF90EF90DF90CF90BF9096
:104F3000AF900895DF93CF9300D000D000D0CDB7CD
:104F4000DEB79C838B830FB6F8940F922091AE044A
:104F50003091AF048B819C818217930711F41C82DE
:104F60001B828B819C81009739F48091AE049091D3
:104F7000AF049E838D8304C08B819C819E838D832F
:104F80008D819E819A83898389819A8102960E946C
:104F9000F21EE981FA8184899589009729F0898137
:104FA0009A810C960E94F21E89819A819C012E5F43
:104FB0003F4F8AE195E0B9010E943A1E8091B0040A
:104FC0008F5F8093B0048091BB048F5F8093BB049C
:104FD0000F900FBE8091B604882331F08B819C81A5
:104FE000009711F40E94FA2026960FB6F894DEBFBF
:104FF0000FBECDBFCF91DF910895DF93CF93CDB793
:10500000DEB728970FB6F894DEBF0FBECDBF9E83E4
:105010008D8378876F8319820E94E928ED81FE8154
:10502000208131818F819885820F931F9C838B8390
:10503000ED81FE81208131818091B2049091B30491
:1050400082179307A8F4ED81FE81208131818B8145
:105050009C818217930700F52091B2043091B3042C
:105060008B819C8128173907B8F481E0898314C0AB
:10507000ED81FE81208131818B819C818217930794
:1050800048F02091B2043091B3048B819C812817A1
:10509000390710F481E08983ED81FE818B819C8149
:1050A000918380838981882359F08091AE04909107
:1050B000AF0402960E94F21E8B819C810E94E92C13
:1050C0000E94F5288A838A81882311F40E94FA209D
:1050D00028960FB6F894DEBF0FBECDBFCF91DF91FB
:1050E0000895DF93CF9300D000D00F92CDB7DEB7F5
:1050F0009D838C8319828C819D810097D1F00E94C1
:10510000E9282091B2043091B3048C819D81820FF3
:10511000931F9B838A838091AE049091AF04029683
:105120000E94F21E8A819B810E94E92C0E94F52830
:1051300089838981882311F40E94FA200F900F90AF
:105140000F900F900F90CF91DF910895AF92BF9283
:10515000CF92DF92EF92FF920F93DF93CF930F9254
:10516000CDB7DEB72AE630E08DE09CE2B90144E637
:1051700050E020E030E000E0EE24FF24CC24DD24E9
:10518000AA24BB240E94AD2689838981813051F4F1
:10519000F89481E08093B6041092B3041092B204A4
:1051A0000E94BE200F90CF91DF910F91FF90EF9062
:1051B000DF90CF90BF90AF900895DF93CF93CDB79E
:1051C000DEB7F8941092B6040E94F320CF91DF91DD
:1051D0000895DF93CF93CDB7DEB78091B7048F5F8B
:1051E0008093B704CF91DF910895DF93CF9300D0E0
:1051F00000D0CDB7DEB71A820FB6F8940F92809127
:10520000B70481508093B7048091B704882309F0D4
:105210006CC08091B104882309F467C0198241C031
:10522000E0911605F0911705868197819C838B8309
:105230008B819C810C960E94F21E8B819C81029630
:105240000E94F21EEB81FC8196898091B50489173A
:1052500028F4EB81FC8186898093B504EB81FC8185
:105260008689282F30E0C901880F991F880F991F60
:10527000880F991F820F931F84549B4F2B813C8171
:105280002E5F3F4FB9010E943A1EEB81FC81968947
:10529000E091AE04F091AF048689981710F081E098
:1052A000898380911105882309F0BACF8091B804D1
:1052B000882371F007C00E94B4298091B8048150FE
:1052C0008093B8048091B8048823A9F781E089838A
:1052D0008981813021F08091B904813031F481E0FD
:1052E0008A831092B9040E94FA200F900FBE8A811F
:1052F0000F900F900F900F90CF91DF910895DF9353
:10530000CF9300D0CDB7DEB70FB6F8940F9280914F
:10531000B2049091B3049A8389830F900FBE898160
:105320009A810F900F90CF91DF910895DF93CF93E3
:1053300000D00F92CDB7DEB719828091B204909160
:10534000B3049B838A838A819B810F900F900F9077
:10535000CF91DF910895DF93CF93CDB7DEB78091E2
:10536000B104CF91DF910895DF93CF9300D000D0A7
:1053700000D0CDB7DEB78091B704882309F0BBC059
:105380008091B2049091B30401969093B3048093FA
:10539000B2048091B2049091B3040097D1F580914A
:1053A0000D0590910E059C838B8380910F05909144
:1053B000100590930E0580930D058B819C81909331
:1053C000100580930F058091BA048F5F8093BA0413
:1053D000E0910D05F0910E058081882339F48FEF5F
:1053E0009FEF909388008093870013C0E0910D0594
:1053F000F0910E050580F681E02D868197819E83D0
:105400008D83ED81FE8182819381909388008093CA
:1054100087002091B2043091B3048091870090916D
:1054200088002817390708F46BC0E0910D05F0914A
:105430000E058081882339F48FEF9FEF90938800C9
:10544000809387005DC0E0910D05F0910E05058009
:10545000F681E02D868197819E838D83ED81FE818B
:10546000828193819A8389832091B2043091B3041D
:1054700089819A812817390738F489819A81909314
:105480008800809387003CC08D819E8102960E9497
:10549000F21EED81FE8184899589009729F08D8126
:1054A0009E810C960E94F21EED81FE81968980916C
:1054B000B504891728F4ED81FE8186898093B504AF
:1054C000ED81FE818689282F30E0C901880F991F60
:1054D000880F991F880F991F820F931FAC014454A6
:1054E0005B4F8D819E819C012E5F3F4FCA01B901A8
:1054F0000E943A1E9ACF8091B8048F5F8093B804BF
:1055000026960FB6F894DEBF0FBECDBFCF91DF91C8
:105510000895DF93CF9300D0CDB7DEB78091B70465
:10552000882349F081E08093B90454C08091B50488
:1055300081508093B5048091B504282F30E0C901D3
:10554000880F991F880F991F880F991F820F931F2B
:10555000FC01E454FB4F8081882341F38091B50422
:10556000282F30E0C901880F991F880F991F880FD5
:10557000991F820F931F84549B4F9A838983E981DB
:10558000FA810180F281E02D82819381E981FA81A3
:1055900092838183E981FA812181328189819A8193
:1055A00003962817390759F4E981FA810180F281BD
:1055B000E02D82819381E981FA8192838183E9815F
:1055C000FA810180F281E02D868197819093AF046A
:1055D0008093AE040F900F90CF91DF910895DF93E9
:1055E000CF9300D000D000D0CDB7DEB79C838B83A3
:1055F0007E836D834B815C818091AE049091AF047A
:105600009C01245F3F4FCA01B9010E94861E809110
:10561000AE049091AF0402960E94F21E2091B20453
:105620003091B3048D819E81820F931F9A83898369
:1056300089819A810E94E92C26960FB6F894DEBFE4
:105640000FBECDBFCF91DF910895DF93CF9300D0F0
:1056500000D00F92CDB7DEB79D838C83EC81FD81A6
:105660000580F681E02D868197819B838A838A81DC
:105670009B810C960E94F21E8091B704882361F5ED
:105680008A819B8102960E94F21EEA81FB819689A3
:105690008091B504891728F4EA81FB81868980937B
:1056A000B504EA81FB818689282F30E0C901880F83
:1056B000991F880F991F880F991F820F931FAC01A4
:1056C00044545B4F8A819B819C012E5F3F4FCA01EE
:1056D000B9010E943A1E0AC08A819B819C01245F05
:1056E0003F4F81E195E0B9010E943A1EEA81FB81BA
:1056F0009689E091AE04F091AF048689981718F06E
:1057000081E0898301C0198289810F900F900F90E9
:105710000F900F90CF91DF910895DF93CF9300D03A
:10572000CDB7DEB79A8389838091BA04E981FA8183
:1057300080838091B2049091B304E981FA819283CD
:1057400081830F900F90CF91DF910895DF93CF93D6
:1057500000D000D00F92CDB7DEB79B838A837D83C4
:105760006C830FB6F8940F92EA81FB81908180914F
:10577000BA04981771F0EA81FB812181328180910E
:10578000B2049091B3048217930718F081E08983E3
:105790002FC02091B2043091B304EA81FB81818152
:1057A0009281281B390BEC81FD8180819181281722
:1057B0003907E0F4EC81FD8140815181EA81FB8170
:1057C000218132818091B2049091B304B901681BA8
:1057D000790BCB01840F951FEC81FD819183808330
:1057E0008A819B810E948D2B198202C081E089836E
:1057F0000F900FBE89810F900F900F900F900F9018
:10580000CF91DF910895DF93CF93CDB7DEB781E0DD
:105810008093B904CF91DF910895DF93CF9300D0A7
:10582000CDB7DEB79A8389830E94AB2CFDCF0F934F
:105830001F93DF93CF93CDB7DEB729970FB6F894B8
:10584000DEBF0FBECDBF9A8389837C836B834D837C
:105850003F832E831987088789819A8149962B81F6
:105860003C81B90148E050E00E94AB2EE981FA8109
:1058700010A28D81873010F086E08D83E981FA8156
:105880008D81868B89819A8102960E942A1E898148
:105890009A810C960E942A1EE981FA8189819A8157
:1058A000918780878D81282F30E087E090E0821BF0
:1058B000930BE981FA8195878487E981FA8189814F
:1058C0009A81938B828B29960FB6F894DEBF0FBE18
:1058D000CDBFCF91DF911F910F910895DF93CF93AB
:1058E0000F92CDB7DEB7198213C08981282F30E01F
:1058F000C901880F991F880F991F880F991F820F60
:10590000931F84549B4F0E94001E89818F5F89835F
:105910008981873050F38BEF94E00E94001E84E071
:1059200095E00E94001E81E195E00E94001E8AE140
:1059300095E00E94001E8BEF94E090930E058093FB
:105940000D0584E095E09093100580930F050F906E
:10595000CF91DF910895DF93CF9300D00F92CDB711
:10596000DEB78091B004882371F10E94E92880910C
:105970001A051B82882311F481E08B830E94F5288D
:105980008B81882301F50FB6F8940F92E0911F05E3
:10599000F0912005868197819A83898389819A81F4
:1059A00002960E94F21E8091B10481508093B1044E
:1059B0008091B00481508093B0040F900FBE898114
:1059C0009A810E94822D0F900F900F90CF91DF91BE
:1059D0000895DF93CF9300D0CDB7DEB79A83898344
:1059E000E091AE04F091AF0489819A819383828320
:1059F0002091B2043091B30489819A818217930770
:105A000070F480910F05909110052091AE043091B3
:105A1000AF042E5F3F4FB9010E94861E1EC0409109
:105A20000D0550910E058091AE049091AF049C013C
:105A30002E5F3F4FCA01B9010E94861E2091870048
:105A40003091880089819A818217930730F4898187
:105A50009A8190938800809387000F900F90CF9148
:105A6000DF910895DF93CF93CDB7DEB728970FB6B8
:105A7000F894DEBF0FBECDBF9C838B837E836D8386
:105A800081E290E00E94941D9A83898389819A81A2
:105A9000009769F18D819E81009739F48B819C81FB
:105AA0000E94941D98878F8304C08D819E81988762
:105AB0008F83E981FA818F819885908F878BE98127
:105AC000FA818789908D009739F489819A810E94A3
:105AD000DA1D1A8219820BC0E981FA818789908DBB
