:100000000C942A000C943F000C943F000C943F0089
:100010000C943F000C943F000C943F000C943F0064
:100020000C943F000C943F000C943F000C943F0054
:100030000C943F000C943F000C943F000C943F0044
:100040000C943F000C943F000C943F000C943F0034
:100050000C943F0011241FBECFE5D8E0DEBFCDBF1A
:1000600010E0A0E6B0E0E4E0F5E402C005900D92F7
:10007000A637B107D9F70E9430110C9480220C9456
:100080000000EF92FF920F931F937B018C0120E001
:1000900030E040E05FE40E94410388238CF0C80117
:1000A000B70120E030E040E05FE40E94B9010E9427
:1000B000A1039B01AC01205030404040504806C095
:1000C000C801B7010E94A1039B01AC01B901CA019B
:1000D0001F910F91FF90EF900895A0E0B0E0E3E74B
:1000E000F0E00C944922DC012B01FA019C91923042
:1000F00008F439C1EB018881823008F433C19430AF
:1001000069F4843009F02FC111969C91119789816F
:10011000981709F428C1ADE6B0E025C1843009F490
:1001200021C18230A9F4923009F01DC19A01AD01BC
:1001300088E0EA010990AE01E90109929E0181502F
:10014000C1F7E201898111969C918923818308C1BD
:10015000923009F407C112962D903C901397EB0151
:100160008A819B811496AD90BD90CD90DC901797BD
:10017000EC80FD800E811F819101281B390BB90194
:1001800037FF04C066277727621B730B6032710547
:100190000CF061C0121613066CF537014801062EEB
:1001A00004C096948794779467940A94D2F721E0D8
:1001B00030E040E050E004C0220F331F441F551FC1
:1001C0006A95D2F721503040404050402E213F21C7
:1001D00040235123211531054105510521F021E02E
:1001E00030E040E050E079018A01E628F72808294C
:1001F00019293CC0232BD1F1260E371E35014601AB
:10020000062E04C096948794779467940A94D2F744
:1002100021E030E040E050E004C0220F331F441FD3
:10022000551F6A95D2F721503040404050402A2156
:100230003B214C215D21211531054105510521F05E
:1002400021E030E040E050E059016A01A628B728DB
:10025000C828D9280BC0821593052CF01C01AA24AC
:10026000BB24650103C0EE24FF24870111969C91F5
:10027000D20111968C91981709F445C0992339F051
:10028000A80197012A193B094C095D0906C0A6017E
:1002900095012E193F09400B510B57FD08C01182E3
:1002A0003382228224833583468357831DC081E0B5
:1002B00081833382228288279927DC01821B930B5A
:1002C000A40BB50B84839583A683B7830DC0220F3F
:1002D000331F441F551F24833583468357838281F0
:1002E000938101979383828324813581468157814D
:1002F000DA01C9010197A109B1098F5F9F4FAF4F83
:10030000BF4328F30BC0918333822282EA0CFB1C8B
:100310000C1D1D1DE482F5820683178383E0808314
:10032000248135814681578157FF1AC0C901AA2708
:1003300097FDA095BA2F81709070A070B0705695FF
:10034000479537952795822B932BA42BB52B848328
:100350009583A683B7838281938101969383828359
:10036000DF0101C0D201CD01CDB7DEB7E2E10C94CF
:100370006522A0E2B0E0EFEBF1E00C945522698336
:100380007A838B839C832D833E834F835887E9E058
:10039000EE2EF12CEC0EFD1ECE010196B7010E944F
:1003A000CA048E010F5E1F4FCE010596B8010E9450
:1003B000CA048A8991E089278A8BC701B801AE01F6
:1003C000475E5F4F0E946D000E94F503A096E6E035
:1003D0000C947122A0E2B0E0E0EFF1E00C94552221
:1003E00069837A838B839C832D833E834F835887D5
:1003F000F9E0EF2EF12CEC0EFD1ECE010196B701B7
:100400000E94CA048E010F5E1F4FCE010596B801EF
:100410000E94CA04C701B801AE01475E5F4F0E9447
:100420006D000E94F503A096E6E00C947122A0E214
:10043000B0E0EDE1F2E00C94492269837A838B838A
:100440009C832D833E834F835887CE010196BE0146
:10045000675F7F4F0E94CA04CE010596BE016F5EA2
:100460007F4F0E94CA049985923088F08989823032
:10047000C8F0943019F4823051F404C0843029F467
:10048000923081F48DE690E0C6C0923049F420E0CD
:100490009A858A89981321E02A87CE010996BBC0E4
:1004A000823049F420E09A858A89981321E02A8BCA
:1004B000CE014196B0C02D843E844F8458886D880B
:1004C0007E888F88988CEE24FF248701AA24BB2481
:1004D000650140E050E060E070E0E0E0F0E0C10184
:1004E00081709070892BE9F0E60CF71C081D191D2E
:1004F0009A01AB012A0D3B1D4C1D5D1D80E090E073
:10050000A0E0B0E0E614F7040805190520F481E046
:1005100090E0A0E0B0E0BA01A901480F591F6A1F9E
:100520007B1FAA0CBB1CCC1CDD1C97FE08C081E005
:1005300090E0A0E0B0E0A82AB92ACA2ADB2A3196C6
:10054000E032F10549F0660C771C881C991C569422
:10055000479437942794C3CFFA85EA892B893C893D
:100560008B859C85280F391F2E5F3F4F17C0CA010E
:1005700081709070892B61F016950795F794E79438
:1005800080E090E0A0E0B0E8E82AF92A0A2B1B2BD3
:1005900076956795579547952F5F3F4F77FDE7CF46
:1005A0000CC0440F551F661F771F17FD4160EE0CEE
:1005B000FF1C001F111F21503040403090E05907B0
:1005C00090E0690790E4790760F32B8F3C8FDB01A3
:1005D000CA018F779070A070B07080349105A1052A
:1005E000B10561F447FD0AC0E114F10401051105EC
:1005F00029F0405C5F4F6F4F7F4F40781A8EFE1797
:1006000011F081E08A8F4D8F5E8F6F8F78A383E02A
:10061000898FCE0149960E94F503A096E2E10C94E1
:100620006522A8E1B0E0E7E1F3E00C94552269838C
:100630007A838B839C832D833E834F83588789E005
:10064000E82EF12CEC0EFD1ECE010196B7010E94A2
:10065000CA048E010F5E1F4FCE010596B8010E949D
:10066000CA048985823040F08989823028F0C70128
:10067000B8010E94420501C08FEF6896E6E00C9435
:100680007122A8E1B0E0E7E4F3E00C94552269831D
:100690007A838B839C832D833E834F83588789E0A5
:1006A000E82EF12CEC0EFD1ECE010196B7010E9442
:1006B000CA048E010F5E1F4FCE010596B8010E943D
:1006C000CA048985823040F08989823028F0C701C8
:1006D000B8010E94420501C08FEF6896E6E00C94D5
:1006E0007122A8E1B0E0E7E7F3E00C9455226983BA
:1006F0007A838B839C832D833E834F83588789E045
:10070000E82EF12CEC0EFD1ECE010196B7010E94E1
:10071000CA048E010F5E1F4FCE010596B8010E94DC
:10072000CA048985823040F08989823028F0C70167
:10073000B8010E94420501C081E06896E6E00C9491
:100740007122ACE0B0E0E7EAF3E00C94592269834F
:100750007A838B839C83CE010196BE016B5F7F4FB2
:100760000E94CA048D81823061F1823050F1843060
:1007700021F48E81882351F12EC02F81388537FDD9
:1007800020C06E812F3131051CF06623F9F023C0A3
:100790008EE190E0821B930B29853A854B855C8521
:1007A00004C056954795379527958A95D2F76623C5
:1007B000B1F050954095309521953F4F4F4F5F4F89
:1007C0000EC020E030E040E050E009C02FEF3FEFE6
:1007D0004FEF5FE704C020E030E040E050E8B901AF
:1007E000CA012C96E2E00C947522DF92EF92FF9200
:1007F0000F931F93FC01E480F58006811781D1805F
:100800008081823048F480E090E0A0E1B0E0E82A06
:10081000F92A0A2B1B2BA5C0843009F49FC0823013
:1008200021F4EE24FF24870105C0E114F104010541
:10083000110519F4E0E0F0E096C0628173819FEF4A
:10084000623879070CF05BC022E83FEF261B370BBC
:100850002A3131052CF020E030E040E050E02AC0A1
:10086000B801A701022E04C0769567955795479564
:100870000A94D2F781E090E0A0E0B0E004C0880FD5
:10088000991FAA1FBB1F2A95D2F70197A109B10989
:100890008E219F21A023B1230097A105B10521F04E
:1008A00081E090E0A0E0B0E09A01AB01282B392B69
:1008B0004A2B5B2BDA01C9018F779070A070B07062
:1008C00080349105A105B10539F427FF09C0205CEA
:1008D0003F4F4F4F5F4F04C0215C3F4F4F4F5F4F23
:1008E000E0E0F0E02030A0E03A07A0E04A07A0E412
:1008F0005A0710F0E1E0F0E079018A0127C0603882
:10090000710564F5FB01E158FF4FD801C7018F77EE
:100910009070A070B07080349105A105B10539F4D4
:10092000E7FE0DC080E490E0A0E0B0E004C08FE3FB
:1009300090E0A0E0B0E0E80EF91E0A1F1B1F17FFB1
:1009400005C016950795F794E794319687E01695BC
:100950000795F794E7948A95D1F705C0EE24FF2414
:100960008701EFEFF0E06E2F679566276795902F70
:100970009F77D794DD24D7948E2F8695492F462BC9
:10098000582F5D29B701CA011F910F91FF90EF9079
:10099000DF900895FC01DB01408151812281622FAB
:1009A0006F7770E0221F2227221F9381892F880FE3
:1009B000822B282F30E0991F9927991F11969C931D
:1009C000119721153105A9F54115510561057105ED
:1009D00011F482E037C082E89FEF13969C938E93C8
:1009E00012979A01AB0167E0220F331F441F551F76
:1009F0006A95D1F783E08C930DC0220F331F441FFB
:100A0000551F12968D919C911397019713969C9365
:100A10008E931297203080E0380780E0480780E40A
:100A2000580758F314962D933D934D935C93179765
:100A300008952F3F310579F4411551056105710580
:100A400019F484E08C93089564FF03C081E08C93D3
:100A500012C01C9210C02F57304013963C932E9317
:100A6000129783E08C9387E0440F551F661F771F12
:100A70008A95D1F7706414964D935D936D937C9332
:100A8000179708951F93DC01FB019C91923008F4A5
:100A900047C08081823008F443C0943051F41196ED
:100AA0001C91843099F58181682F70E0611B710978
:100AB0003FC0843021F0923031F48230B9F181812D
:100AC000882389F12DC011961C9111978230F1F085
:100AD00081811817D9F412962D913C911397828138
:100AE00093818217930794F028173907BCF0149666
:100AF0008D919D910D90BC91A02D248135814681D1
:100B00005781281739074A075B0718F4112341F06A
:100B10000AC082179307A407B50740F4112319F000
:100B200061E070E005C06FEF7FEF02C060E070E051
:100B3000CB011F910895DF93CF93CDB7DEB72997EF
:100B40000FB6F894DEBF0FBECDBF89836A834B8397
:100B50008B81882309F0C2C08981282F30E0398732
:100B60002887888599858130910509F43FC02885BB
:100B70003985223031052CF488859985009771F0EC
:100B8000E1C1288539852230310509F457C08885AF
:100B900099858330910509F479C0D4C1AAE3B0E006
:100BA000EAE3F0E08081482F8A81282F30E081E05D
:100BB00090E002C0880F991F2A95E2F78095842360
:100BC0008C93ABE3B0E0EBE3F0E08081482F8A81C7
:100BD000282F30E081E090E0022E02C0880F991F9C
:100BE0000A94E2F7809584238C93ACC1A7E3B0E02C
:100BF000E7E3F0E08081482F8A81282F30E081E010
:100C000090E002C0880F991F2A95E2F7809584230F
:100C10008C93A8E3B0E0E8E3F0E08081482F8A817C
:100C2000282F30E081E090E0022E02C0880F991F4B
:100C30000A94E2F7809584238C9384C1A4E3B0E006
:100C4000E4E3F0E08081482F8A81282F30E081E0C2
:100C500090E002C0880F991F2A95E2F780958423BF
:100C60008C93A5E3B0E0E5E3F0E08081482F8A8132
:100C7000282F30E081E090E0022E02C0880F991FFB
:100C80000A94E2F7809584238C935CC1A1E3B0E0E1
:100C9000E1E3F0E08081482F8A81282F30E081E075
:100CA00090E002C0880F991F2A95E2F7809584236F
:100CB0008C93A2E3B0E0E2E3F0E08081482F8A81E8
:100CC000282F30E081E090E0022E02C0880F991FAB
:100CD0000A94E2F7809584238C9334C18B81813010
:100CE00009F0BEC08981282F30E03F832E838E819A
:100CF0009F818130910509F43EC02E813F812230D1
:100D000031052CF48E819F81009771F01BC12E81DB
:100D10003F812230310509F455C08E819F81833097
:100D2000910509F476C00EC1AAE3B0E0EAE3F0E071
:100D30008081482F8A81282F30E081E090E002C036
:100D4000880F991F2A95E2F7809584238C93ABE353
:100D5000B0E0EBE3F0E08081482F8A81282F30E07B
:100D600081E090E0022E02C0880F991F0A94E2F7FA
:100D7000842B8C93E7C0A7E3B0E0E7E3F0E0808149
:100D8000482F8A81282F30E081E090E002C0880F50
:100D9000991F2A95E2F7809584238C93A8E3B0E00D
:100DA000E8E3F0E08081482F8A81282F30E081E05D
:100DB00090E0022E02C0880F991F0A94E2F7842B5C
:100DC0008C93C0C0A4E3B0E0E4E3F0E08081482F5E
:100DD0008A81282F30E081E090E002C0880F991FBF
:100DE0002A95E2F7809584238C93A5E3B0E0E5E3B0
:100DF000F0E08081482F8A81282F30E081E090E068
:100E0000022E02C0880F991F0A94E2F7842B8C935C
:100E100099C0A1E3B0E0E1E3F0E08081482F8A814E
:100E2000282F30E081E090E002C0880F991F2A95BA
:100E3000E2F7809584238C93A2E3B0E0E2E3F0E054
:100E40008081482F8A81282F30E081E090E0022EB7
:100E500002C0880F991F0A94E2F7842B8C9372C00A
:100E60008B81823009F06EC08981282F30E03D836C
:100E70002C838C819D818130910549F12C813D81AC
:100E8000223031052CF48C819D81009761F05AC08D
:100E90002C813D812230310571F18C819D8183301F
:100EA0009105E9F14FC0AAE3B0E0EAE3F0E0808108
:100EB000482F8A81282F30E081E090E0022E02C086
:100EC000880F991F0A94E2F7842B8C933BC0A7E309
:100ED000B0E0E7E3F0E08081482F8A81282F30E0FE
:100EE00081E090E0022E02C0880F991F0A94E2F779
:100EF000842B8C9327C0A4E3B0E0E4E3F0E080818E
:100F0000482F8A81282F30E081E090E0022E02C035
:100F1000880F991F0A94E2F7842B8C9313C0A1E3E6
:100F2000B0E0E1E3F0E08081482F8A81282F30E0B3
:100F300081E090E0022E02C0880F991F0A94E2F728
:100F4000842B8C9329960FB6F894DEBF0FBECDBFCD
:100F5000CF91DF910895DF93CF93CDB7DEB72A9776
:100F60000FB6F894DEBF0FBECDBF89836A838A8136
:100F70008823D9F58981282F30E03A872987898508
:100F80009A8581309105E1F029853A852230310535
:100F90002CF489859A85009761F0D2C029853A851D
:100FA00022303105A1F089859A8583309105B1F011
:100FB000C7C0EAE3F0E01082EBE3F0E01082C0C0CB
:100FC000E7E3F0E01082E8E3F0E01082B9C0E4E388
:100FD000F0E01082E5E3F0E01082B2C0E1E3F0E07F
:100FE0001082E2E3F0E01082ABC08A81813009F028
:100FF0003FC08981282F30E038872F838F819885E3
:1010000081309105E9F02F813885223031052CF4AB
:101010008F819885009761F093C02F8138852230A9
:101020003105B1F08F81988583309105C9F088C072
:10103000EAE3F0E01082EBE3F0E08FEF808380C022
:10104000E7E3F0E01082E8E3F0E08FEF808378C020
:10105000E4E3F0E01082E5E3F0E08FEF808370C01E
:10106000E1E3F0E01082E2E3F0E08FEF808368C01C
:101070008A81823099F58981282F30E03E832D8343
:101080008D819E8181309105D1F02D813E8122306C
:1010900031052CF48D819E81009761F051C02D8126
:1010A0003E812230310581F08D819E818330910512
:1010B00081F046C0EAE3F0E08FEF808341C0E7E3D0
:1010C000F0E08FEF80833CC0E4E3F0E08FEF8083BB
:1010D00037C0E1E3F0E08FEF808332C08981282FB1
:1010E00030E03C832B838B819C8181309105D1F052
:1010F0002B813C81223031052CF48B819C8100971F
:1011000061F01EC02B813C812230310581F08B8142
:101110009C818330910581F013C0EAE3F0E08A817D
:1011200080830EC0E7E3F0E08A81808309C0E4E3B6
:10113000F0E08A81808304C0E1E3F0E08A8180836B
:101140002A960FB6F894DEBF0FBECDBFCF91DF91C8
:101150000895DF93CF93CDB7DEB727970FB6F894F6
:10116000DEBF0FBECDBF89836A834B838B81813005
:1011700009F06FC08981282F30E03F832E838E8154
:101180009F818130910549F12E813F8122303105C7
:101190002CF48E819F81009761F0D2C02E813F8117
:1011A0002230310571F18E819F8183309105E9F103
:1011B000C7C0ABE3B0E0EBE3F0E08081482F8A8169
:1011C000282F30E081E090E0022E02C0880F991FA6
:1011D0000A94E2F7842B8C93B3C0A8E3B0E0E8E371
:1011E000F0E08081482F8A81282F30E081E090E074
:1011F000022E02C0880F991F0A94E2F7842B8C9369
:101200009FC0A5E3B0E0E5E3F0E08081482F8A814C
:10121000282F30E081E090E0022E02C0880F991F55
:101220000A94E2F7842B8C938BC0A2E3B0E0E2E354
:10123000F0E08081482F8A81282F30E081E090E023
:10124000022E02C0880F991F0A94E2F7842B8C9318
:1012500077C08B81882309F073C08981282F30E003
:101260003D832C838C819D818130910559F12C81A6
:101270003D81223031052CF48C819D81009769F0ED
:101280005FC02C813D812230310589F18C819D81A7
:101290008330910509F440C053C0ABE3B0E0EBE309
:1012A000F0E08081482F8A81282F30E081E090E0B3
:1012B000022E02C0880F991F0A94E2F780958423BA
:1012C0008C933EC0A8E3B0E0E8E3F0E08081482FD3
:1012D0008A81282F30E081E090E0022E02C0880F42
:1012E000991F0A94E2F7809584238C9329C0A5E383
:1012F000B0E0E5E3F0E08081482F8A81282F30E0DC
:1013000081E090E0022E02C0880F991F0A94E2F754
:10131000809584238C9314C0A2E3B0E0E2E3F0E074
:101320008081482F8A81282F30E081E090E0022ED2
:1013300002C0880F991F0A94E2F7809584238C934A
:1013400027960FB6F894DEBF0FBECDBFCF91DF91C9
:101350000895DF93CF93CDB7DEB728970FB6F894F3
:10136000DEBF0FBECDBF89836A838A81813099F544
:101370008981282F30E038872F838F8198858130AD
:101380009105D1F02F813885223031052CF48F81E1
:101390009885009761F083C02F8138852230310510
:1013A00081F08F8198858330910581F078C0EBE3DF
:1013B000F0E08FEF808373C0E8E3F0E08FEF80838D
:1013C0006EC0E5E3F0E08FEF808369C0E2E3F0E018
:1013D0008FEF808364C08A81882379F58981282FE3
:1013E00030E03E832D838D819E8181309105C9F04F
:1013F0002D813E81223031052CF48D819E81009714
:1014000061F04DC02D813E812230310571F08D811A
:101410009E818330910569F042C0EBE3F0E01082D9
:101420003EC0E8E3F0E010823AC0E5E3F0E010826D
:1014300036C0E2E3F0E0108232C08981282F30E02C
:101440003C832B838B819C8181309105D1F02B8152
:101450003C81223031052CF48B819C81009761F016
:101460001EC02B813C812230310581F08B819C8113
:101470008330910581F013C0EBE3F0E08A81808333
:101480000EC0E8E3F0E08A81808309C0E5E3F0E084
:101490008A81808304C0E2E3F0E08A818083289619
:1014A0000FB6F894DEBF0FBECDBFCF91DF91089588
:1014B000DF93CF9300D000D00F92CDB7DEB78A83F1
:1014C0006B8319828A81282F30E03D832C834C81E5
:1014D0005D814130510541F18C819D8182309105C2
:1014E00034F42C813D812115310561F052C04C81CD
:1014F0005D814230510551F18C819D818330910590
:10150000B9F147C0E9E3F0E08081282F30E08B811A
:10151000882F90E0A90102C0559547958A95E2F77A
:10152000CA018170898335C0E6E3F0E08081282F0D
:1015300030E08B81882F90E0A90102C05595479536
:101540008A95E2F7CA018170898323C0E3E3F0E062
:101550008081282F30E08B81882F90E0A90102C084
:10156000559547958A95E2F7CA018170898311C024
:10157000E0E3F0E08081282F30E08B81882F90E03D
:10158000A90102C0559547958A95E2F7CA01817075
:10159000898389810F900F900F900F900F90CF91BA
:1015A000DF910895DF93CF9300D000D0CDB7DEB7A1
:1015B0008A8319828A81282F30E03C832B838B8198
:1015C0009C818130910549F12B813C81223031058C
:1015D0002CF48B819C81009761F05AC02B813C8157
:1015E0002230310571F18B819C8183309105E9F1C5
:1015F0004FC0E9E3F0E080818F3F19F481E08983F7
:1016000047C0E9E3F0E08081882311F4198240C0EB
:10161000E9E3F0E0808189833BC0E6E3F0E080818C
:101620008F3F19F481E0898333C0E6E3F0E08081E5
:10163000882311F419822CC0E6E3F0E080818983CD
:1016400027C0E3E3F0E080818F3F19F481E08983D4
:101650001FC0E3E3F0E08081882311F4198218C0F1
:10166000E3E3F0E08081898313C0E0E3F0E0808170
:101670008F3F19F481E089830BC0E0E3F0E08081C3
:10168000882311F4198204C0E0E3F0E080818983AB
:1016900089810F900F900F900F90CF91DF91089557
:1016A000DF93CF93CDB7DEB72F970FB6F894DEBF99
:1016B0000FBECDBF1F860E94DE0E80E090E0A0EF3F
:1016C000B1E48B879C87AD87BE876B857C858D85D4
:1016D0009E8520E030E04AEF54E40E941702DC01CE
:1016E000CB018F839887A987BA876F817885898591
:1016F0009A8520E030E040E85FE30E947103882390
:101700002CF481E090E09E838D833FC06F817885CB
:1017100089859A8520E03FEF4FE757E40E94110347
:1017200018164CF56B857C858D859E8520E030E014
:1017300040E251E40E941702DC01CB01BC01CD0163
:101740000E944100DC01CB019E838D830FC088EC99
:1017500090E09C838B838B819C810197F1F79C8324
:101760008B838D819E8101979E838D838D819E8148
:10177000009769F714C06F81788589859A850E94E2
:101780004100DC01CB019E838D838D819E819A83F4
:10179000898389819A810197F1F79A83898380E30C
:1017A0008F878F8588608F878F8584608F878F85EF
:1017B0000E94080D88E08F878F8584608F878F85D2
:1017C00081608F878F8582608F878F8582608F870A
:1017D0008F850E94080D81E00E94080D2F960FB69C
:1017E000F894DEBF0FBECDBFCF91DF910895DF9398
:1017F000CF93CDB7DEB781E00E94080DCF91DF9186
:101800000895DF93CF930F92CDB7DEB78983898197
:101810000E94F30D0F90CF91DF910895DF93CF9346
:1018200000D00F92CDB7DEB79B838A8319820EC09A
:101830008981282F30E08A819B81FC01E20FF31F10
:1018400080810E94010C89818F5F89838981282F83
:1018500030E08A819B81FC01E20FF31F80818823A5
:1018600039F70F900F900F90CF91DF910895DF938C
:10187000CF9300D00F92CDB7DEB78A836B838A8176
:10188000882F90E0002496958795079496958795E4
:101890000794982F802D982F8B81890F89838981B8
:1018A0008068898389810E94080D0F900F900F90A6
:1018B000CF91DF910895DF93CF9300D000D000D077
:1018C000CDB7DEB79E838D831C821B821A828D81E9
:1018D0009E8199235CF48D819E81909581959F4F87
:1018E0009E838D838DE20E94010C2DC08D819E818F
:1018F000009749F580E30E94010C25C08B819C81F3
:101900009C01220F331FC901880F991F880F991F4F
:10191000F901E80FF91F8D819E812AE030E0B901BD
:101920000E9436228E0F9F1F9C838B838D819E8108
:101930002AE030E0B9010E943622CB019E838D83DC
:101940008A818F5F8A838D819E810097B9F61BC043
:101950008B819C812AE030E0B9010E942222898398
:101960008981805D898389810E94010C8B819C81A2
:101970002AE030E0B9010E942222CB019C838B83B4
:101980008A8181508A838B819C81009709F706C0E8
:1019900080E30E94010C8A8181508A838A81882396
:1019A000B9F726960FB6F894DEBF0FBECDBFCF9124
:1019B000DF910895DF93CF9300D0CDB7DEB78A8350
:1019C000198206C088E10E94080D89818F5F898392
:1019D00099818A819817B0F30F900F90CF91DF9182
:1019E0000895DF93CF9300D0CDB7DEB78A831982F5
:1019F00006C08CE10E94080D89818F5F89839981DF
:101A00008A819817B0F30F900F90CF91DF910895CE
:101A1000DF93CF93CDB7DEB72F970FB6F894DEBF25
:101A20000FBECDBF8F8781E062E040E00E94A90831
:101A300081E061E040E00E94A9088F85982F9170B5
:101A400080E067E0492F0E94A9088F858695982F2E
:101A5000917080E066E0492F0E94A9088F858695E5
:101A60008695982F917080E065E0492F0E94A90823
:101A70008F85869586958695982F917080E064E095
:101A8000492F0E94A9088F8582958F70982F917099
:101A900080E063E0492F0E94A9088F858295869592
:101AA0008770982F917080E062E0492F0E94A9080A
:101AB0008F858295869586958370982F917080E0AA
:101AC00061E0492F0E94A9088F85982F991F9927B7
:101AD000991F80E060E0492F0E94A90881E060E042
:101AE00041E00E94A90880E090E0A0E0B0E48B878C
:101AF0009C87AD87BE876B857C858D859E8520E024
:101B000030E04AEF54E40E941702DC01CB018F83DE
:101B10009887A987BA876F81788589859A8520E01B
:101B200030E040E85FE30E94710388232CF481E0F9
:101B300090E09E838D833FC06F81788589859A85EB
:101B400020E03FEF4FE757E40E94110318164CF5D1
:101B50006B857C858D859E8520E030E040E251E4F8
:101B60000E941702DC01CB01BC01CD010E944100A3
:101B7000DC01CB019E838D830FC088EC90E09C83B9
:101B80008B838B819C810197F1F79C838B838D8163
:101B90009E8101979E838D838D819E81009769F739
:101BA00014C06F81788589859A850E944100DC0187
:101BB000CB019E838D838D819E819A8389838981C8
:101BC0009A810197F1F79A83898381E060E040E090
:101BD0000E94A9082F960FB6F894DEBF0FBECDBFA6
:101BE000CF91DF910895DF93CF93CDB7DEB72F97D5
:101BF0000FB6F894DEBF0FBECDBF8F8781E062E0E5
:101C000041E00E94A90881E061E040E00E94A9084B
:101C10008F85982F917080E067E0492F0E94A90876
:101C20008F858695982F917080E066E0492F0E94FD
:101C3000A9088F8586958695982F917080E065E03C
:101C4000492F0E94A9088F85869586958695982F9D
:101C5000917080E064E0492F0E94A9088F858295E9
:101C60008F70982F917080E063E0492F0E94A9083F
:101C70008F85829586958770982F917080E062E0BD
:101C8000492F0E94A9088F85829586958695837035
:101C9000982F917080E061E0492F0E94A9088F85FC
:101CA000982F991F9927991F80E060E0492F0E9483
:101CB000A90881E060E041E00E94A90880E090E08E
:101CC000A0E0B0E48B879C87AD87BE876B857C8561
:101CD0008D859E8520E030E04AEF54E40E94170293
:101CE000DC01CB018F839887A987BA876F817885BC
:101CF00089859A8520E030E040E85FE30E94710327
:101D000088232CF481E090E09E838D833FC06F8117
:101D1000788589859A8520E03FEF4FE757E40E9458
:101D2000110318164CF56B857C858D859E8520E00A
:101D300030E040E251E40E941702DC01CB01BC011B
:101D4000CD010E944100DC01CB019E838D830FC039
:101D500088EC90E09C838B838B819C810197F1F7C9
:101D60009C838B838D819E8101979E838D838D8142
:101D70009E81009769F714C06F81788589859A855F
:101D80000E944100DC01CB019E838D838D819E8169
:101D90009A83898389819A810197F1F79A8389834C
:101DA00081E060E040E00E94A9082F960FB6F89409
:101DB000DEBF0FBECDBFCF91DF910895DF93CF93EC
:101DC000CDB7DEB781E062E042E00E949B0581E092
:101DD00061E042E00E949B0581E060E042E00E94F9
:101DE0009B0580E067E042E00E949B0580E066E0A2
:101DF00042E00E949B0580E065E042E00E949B0576
:101E000080E064E042E00E949B0580E063E042E005
:101E10000E949B0580E062E042E00E949B0580E01A
:101E200061E042E00E949B0580E060E042E00E94A9
:101E30009B05CF91DF910895DF93CF93CDB7DEB7A8
:101E400083E060E042E00E949B0583E061E042E0C5
:101E50000E949B0583E062E042E00E949B0583E0D4
:101E600063E042E00E949B0583E064E042E00E9460
:101E70009B0583E065E042E00E949B0583E066E00D
:101E800042E00E949B05CF91DF910895DF93CF93AD
:101E900000D00F92CDB7DEB789838981282F30E03B
:101EA0003B832A838A819B818430910509F4D7C0C2
:101EB0002A813B8125303105ECF48A819B81813078
:101EC000910509F460C02A813B81223031052CF450
:101ED0008A819B81009799F19AC12A813B812230A6
:101EE000310509F474C08A819B818330910509F41E
:101EF00092C08DC12A813B812730310509F41BC175
:101F00008A819B81883091056CF42A813B81253040
:101F1000310509F4C8C08A819B818630910509F496
:101F2000E6C075C12A813B812830310509F427C1FB
:101F30008A819B818930910509F445C168C183E09C
:101F400060E041E00E94A90883E061E041E00E9476
:101F5000A90883E062E041E00E94A90883E063E011
:101F600041E00E94A90883E064E041E00E94A908E2
:101F700083E065E041E00E94A90883E066E040E07C
:101F80000E94A90867C183E060E040E00E94A908C0
:101F900083E061E041E00E94A90883E062E041E063
:101FA0000E94A90883E063E040E00E94A90883E062
:101FB00064E040E00E94A90883E065E040E00E9400
:101FC000A90883E066E040E00E94A90843C183E0DD
:101FD00060E041E00E94A90883E061E041E00E94E6
:101FE000A90883E062E040E00E94A90883E063E082
:101FF00041E00E94A90883E064E041E00E94A90852
:1020000083E065E040E00E94A90883E066E041E0EB
:102010000E94A9081FC183E060E041E00E94A90876
:1020200083E061E041E00E94A90883E062E041E0D2
:102030000E94A90883E063E041E00E94A90883E0D0
:1020400064E040E00E94A90883E065E040E00E946F
:10205000A90883E066E041E00E94A908FBC083E094
:1020600060E040E00E94A90883E061E041E00E9456
:10207000A90883E062E041E00E94A90883E063E0F0
:1020800040E00E94A90883E064E040E00E94A908C3
:1020900083E065E041E00E94A90883E066E041E05A
:1020A0000E94A908D7C083E060E041E00E94A9082F
:1020B00083E061E040E00E94A90883E062E041E043
:1020C0000E94A90883E063E041E00E94A90883E040
:1020D00064E040E00E94A90883E065E041E00E94DE
:1020E000A90883E066E041E00E94A908B3C083E04C
:1020F00060E041E00E94A90883E061E040E00E94C6
:10210000A90883E062E041E00E94A90883E063E05F
:1021100041E00E94A90883E064E041E00E94A90830
:1021200083E065E041E00E94A90883E066E041E0C9
:102130000E94A9088FC083E060E041E00E94A908E6
:1021400083E061E041E00E94A90883E062E041E0B1
:102150000E94A90883E063E040E00E94A90883E0B0
:1021600064E040E00E94A90883E065E040E00E944E
:10217000A90883E066E040E00E94A9086BC083E004
:1021800060E041E00E94A90883E061E041E00E9434
:10219000A90883E062E041E00E94A90883E063E0CF
:1021A00041E00E94A90883E064E041E00E94A908A0
:1021B00083E065E041E00E94A90883E066E041E039
:1021C0000E94A90847C083E060E041E00E94A9089E
:1021D00083E061E041E00E94A90883E062E041E021
:1021E0000E94A90883E063E041E00E94A90883E01F
:1021F00064E040E00E94A90883E065E041E00E94BD
:10220000A90883E066E041E00E94A90823C083E0BA
:1022100060E040E00E94A90883E061E040E00E94A5
:10222000A90883E062E040E00E94A90883E063E03F
:1022300040E00E94A90883E064E040E00E94A90811
:1022400083E065E040E00E94A90883E066E040E0AA
:102250000E94A9080F900F900F90CF91DF910895E1
:10226000DF93CF93CDB7DEB70E94A31280E090E05A
:10227000CF91DF910895DF93CF93CDB7DEB7279746
:102280000FB6F894DEBF0FBECDBF0E94500B82E0A8
:1022900060E041E00E949B0582E061E041E00E9435
:1022A0009B0582E062E041E00E949B0582E063E0E2
:1022B00041E00E949B0583E062E00E94AB071C8224
:1022C0001D821E821F821B821A823CC082E06A81AC
:1022D0000E94580A8823B1F48A81282F30E0CE0169
:1022E0000496FC01E20FF31F8081813059F481E0F4
:1022F0008B838A81282F30E0CE010496FC01E20F07
:10230000F31F108282E06A810E94580A8130B9F47A
:102310008A81282F30E0CE010496FC01E20FF31FE2
:102320008081882361F481E08B838A81282F30E0CB
:10233000CE010496FC01E20FF31F81E080838A81C5
:102340008F5F8A838A81843008F28B81882311F021
:102350000E94F70B198231C08981282F30E0CE010D
:102360000496FC01E20FF31F8081813091F480E636
:1023700090E00E940E0C8981882F90E00E945B0CF7
:1023800080E20E94010C83E0698140E00E94A9087C
:1023900011C084E690E00E940E0C8981882F90E0A5
:1023A0000E945B0C80E20E94010C83E0698141E0A5
:1023B0000E94A90889818F5F89838981843018F4FC
:1023C0008B81882349F61B827FCFDF93CF93CDB7D4
:1023D000DEB763970FB6F894DEBF0FBECDBF0E9485
:1023E000500B1A8A198A80E1888B1F861B8A89897B
:1023F000882311F481E08B8B8B89898B8A89282F24
:1024000030E0C901880F991F880F991F820F931F11
:10241000982F8989692F0E94370C87E690E00E94E7
:102420000E0C8F858B5F8F878889883268F48F8543
:10243000813150F085E00E94DA0C88898B5F888BAF
:102440008889893208F076C080E090E0AAE7B4E499
:102450008B879C87AD87BE876B857C858D859E85A8
:1024600020E030E04AEF54E40E941702DC01CB0187
:102470008F839887A987BA876F81788589859A85A0
:1024800020E030E040E85FE30E94710388232CF4F1
:1024900081E090E09E838D833FC06F817885898540
:1024A0009A8520E03FEF4FE757E40E94110318168A
:1024B0004CF56B857C858D859E8520E030E040E283
:1024C00051E40E941702DC01CB01BC01CD010E9446
:1024D0004100DC01CB019E838D830FC088EC90E02E
:1024E0009C838B838B819C810197F1F79C838B83E9
:1024F0008D819E8101979E838D838D819E81009722
:1025000069F714C06F81788589859A850E9441009A
:10251000DC01CB019E838D838D819E819A8389838B
:1025200089819A810197F1F79A8389838A898F5FDC
:102530008A8B5CCF63960FB6F894DEBF0FBECDBF1B
:10254000CF91DF910895DF93CF93CDB7DEB780E0D1
:1025500060E042E00E949B0580E061E042E00E9472
:102560009B0580E062E042E00E949B0582E060E023
:1025700042E00E949B0582E061E042E00E949B05F0
:102580000E941C0F80E060E041E00E94A9088AE000
:102590000E945A1F80E060E040E00E94A90880E0AD
:1025A00061E041E00E94A90883E00E945A1F80E098
:1025B00061E040E00E94A90880E062E041E00E9402
:1025C000A9088AE00E945A1F80E062E040E00E9471
:1025D000A908D8CFDF93CF93CDB7DEB7AB970FB6AF
:1025E000F894DEBF0FBECDBF1BA6F7C080E061E050
:1025F0000E94A90981E061E00E94A90980E090E0C1
:10260000AAE7B3E48FA398A7A9A7BAA76FA178A553
:1026100089A59AA520E030E04AEF54E40E94170211
:10262000DC01CB018BA39CA3ADA3BEA36BA17CA1BA
:102630008DA19EA120E030E040E85FE30E9471039D
:1026400088232CF481E090E09AA389A33FC06BA17A
:102650007CA18DA19EA120E03FEF4FE757E40E94AF
:10266000110318164CF56FA178A589A59AA520E04D
:1026700030E040E251E40E941702DC01CB01BC01D2
:10268000CD010E944100DC01CB019AA389A30FC0B8
:1026900088EC90E098A38F8F8F8D98A10197F1F728
:1026A00098A38F8F89A19AA101979AA389A389A141
:1026B0009AA1009769F714C06BA17CA18DA19EA17E
:1026C0000E944100DC01CB019AA389A389A19AA1B0
:1026D0009E8F8D8F8D8D9E8D0197F1F79E8F8D8FA3
:1026E00080E060E00E94A90981E060E00E94A90901
:1026F00080E090E0AAE7B3E4898F9A8FAB8FBC8F1C
:10270000698D7A8D8B8D9C8D20E030E04AEF54E40A
:102710000E941702DC01CB018D8B9E8BAF8BB88F93
:102720006D897E898F89988D20E030E040E85FE3F5
:102730000E94710388232CF481E090E09C8B8B8BAA
:102740003FC06D897E898F89988D20E03FEF4FE7EC
:1027500057E40E94110318164CF5698D7A8D8B8D04
:102760009C8D20E030E040E251E40E941702DC0141
:10277000CB01BC01CD010E944100DC01CB019C8B4F
:102780008B8B0FC088EC90E09A8B898B89899A8912
:102790000197F1F79A8B898B8B899C8901979C8B88
:1027A0008B8B8B899C89009769F714C06D897E8912
:1027B0008F89988D0E944100DC01CB019C8B8B8B13
:1027C0008B899C89988B8F878F8598890197F1F7E2
:1027D000988B8F878BA58F5F8BA78BA5853008F48F
:1027E00005CF80E090E0AAE7B3E48B879C87AD87B4
:1027F000BE876B857C858D859E8520E030E04AEF25
:1028000054E40E941702DC01CB018F839887A987CB
:10281000BA876F81788589859A8520E030E040E825
:102820005FE30E94710388232CF481E090E09E8393
:102830008D833FC06F81788589859A8520E03FEF41
:102840004FE757E40E94110318164CF56B857C8501
:102850008D859E8520E030E040E251E40E94170221
:10286000DC01CB01BC01CD010E944100DC01CB01A8
:102870009E838D830FC088EC90E09C838B838B813B
:102880009C810197F1F79C838B838D819E810197B9
:102890009E838D838D819E81009769F714C06F811F
:1028A000788589859A850E944100DC01CB019E8351
:1028B0008D838D819E819A83898389819A810197F5
:1028C000F1F79A838983AB960FB6F894DEBF0FBEFB
:1028D000CDBFCF91DF910895DF93CF93CDB7DEB712
:1028E00080E062E00E94AB0781E062E00E94AB07FB
:1028F00083E060E041E00E949B0583E061E041E00D
:102900000E949B0583E062E041E00E949B0583E01A
:1029100060E00E94580A882319F40E94A214F7CF9D
:1029200083E061E00E94580A882319F40E94E918A4
:10293000EECF83E062E00E94580A882341F70E94AC
:10294000F31AE5CF0F931F93DF93CF93CDB7DEB785
:10295000C356D0400FB6F894DEBF0FBECDBF0E9465
:10296000EA12FE01ED59FF4F1082FE01ED59FF4FB3
:102970001082C4C0FE01ED59FF4F80E0608141E04C
:102980000E94A908FE01E15AFF4F80E090E0AAE70B
:10299000B3E480839183A283B3838E01055A1F4FD2
:1029A000FE01E15AFF4F608171818281938120E0B5
:1029B00030E04AEF54E40E941702DC01CB01F80139
:1029C00080839183A283B383FE01E55AFF4F608128
:1029D00071818281938120E030E040E85FE30E94D2
:1029E0007103882344F4FE01E75AFF4F81E090E031
:1029F0009183808364C0FE01E55AFF4F608171813D
:102A00008281938120E03FEF4FE757E40E9411035A
:102A100018160CF043C0FE01E15AFF4F608171812E
:102A20008281938120E030E040E251E40E9417026D
:102A3000DC01CB018E01075A1F4FBC01CD010E9462
:102A40004100DC01CB01F801918380831FC0FE01AE
:102A5000E95AFF4F88EC90E091838083FE01E95AA8
:102A6000FF4F808191810197F1F7FE01E95AFF4FF5
:102A700091838083DE01A75ABF4FFE01E75AFF4FC3
:102A800080819181019711969C938E93FE01E75A64
:102A9000FF4F808191810097D1F627C08E01075AA0
:102AA0001F4FFE01E55AFF4F608171818281938142
:102AB0000E944100DC01CB01F80191838083DE019B
:102AC000AB5ABF4FFE01E75AFF4F808191818D9332
:102AD0009C93FE01EB5AFF4F808191810197F1F7A2
:102AE000FE01EB5AFF4F91838083DE01AD59BF4F4A
:102AF000FE01ED59FF4F80818F5F8C93FE01ED59F0
:102B0000FF4F8081893008F435CFFE01EF5AFF4F27
:102B100080E090E0AAE7B3E480839183A283B3834B
:102B20008E01035B1F4FFE01EF5AFF4F60817181E1
:102B30008281938120E030E04AEF54E40E94170242
:102B4000DC01CB01F80180839183A283B383FE0172
:102B5000E35BFF4F608171818281938120E030E0EF
:102B600040E85FE30E947103882344F4FE01E55BC3
:102B7000FF4F81E090E09183808364C0FE01E35BBE
:102B8000FF4F608171818281938120E03FEF4FE7A9
:102B900057E40E94110318160CF043C0FE01EF5ACF
:102BA000FF4F608171818281938120E030E040E2BB
:102BB00051E40E941702DC01CB018E01055B1F4F1F
:102BC000BC01CD010E944100DC01CB01F8019183E1
:102BD00080831FC0FE01E75BFF4F88EC90E091838C
:102BE0008083FE01E75BFF4F808191810197F1F7C0
:102BF000FE01E75BFF4F91838083DE01A55BBF4F42
:102C0000FE01E55BFF4F80819181019711969C93B6
:102C10008E93FE01E55BFF4F808191810097D1F695
:102C200028C08E01055B1F4FFE01E35BFF4F6081F3
:102C30007181828193810E944100DC01CB01F80106
:102C400091838083DE01A95BBF4FFE01E55BFF4FEF
:102C50008081918111969C938E93FE01E95BFF4FD9
:102C6000808191810197F1F7FE01E95BFF4F91832C
:102C70008083FE01ED59FF4F108296C0FE01ED5991
:102C8000FF4F81E0608141E00E94A908FE01ED5BF9
:102C9000FF4F80E090E0AAE7B3E480839183A283B2
:102CA000B3838E01015C1F4FFE01ED5BFF4F60811E
:102CB00071818281938120E030E04AEF54E40E94E8
:102CC0001702DC01CB01F80180839183A283B383D7
:102CD000FE01FF96608171818281938120E030E066
:102CE00040E85FE30E94710388232CF481E090E0C8
:102CF0009EAF8DAF46C0FE01FF96608171818281DB
:102D0000938120E03FEF4FE757E40E94110318162C
:102D100064F5FE01ED5BFF4F6081718182819381DB
:102D200020E030E040E251E40E941702DC01CB01D8
:102D3000BC01CD010E944100DC01CB019EAF8DAFF3
:102D40000FC088EC90E09CAF8BAF8BAD9CAD019732
:102D5000F1F79CAF8BAF8DAD9EAD01979EAF8DAF60
:102D60008DAD9EAD009769F716C0FE01FF9660819C
:102D70007181828193810E944100DC01CB019EAF71
:102D80008DAF8DAD9EAD9AAF89AF89AD9AAD0197EC
:102D9000F1F79AAF89AFDE01AD59BF4FFE01ED5992
:102DA000FF4F80818F5F8C93FE01ED59FF4F808133
:102DB000893008F463CF80E090E0AAE7B3E48DABFC
:102DC0009EABAFABB8AF6DA97EA98FA998AD20E03F
:102DD00030E04AEF54E40E941702DC01CB0189ABDA
:102DE0009AABABABBCAB69A97AA98BA99CA920E033
:102DF00030E040E85FE30E94710388232CF481E017
:102E000090E098AB8FA73FC069A97AA98BA99CA92C
:102E100020E03FEF4FE757E40E94110318164CF5EE
:102E20006DA97EA98FA998AD20E030E040E251E481
:102E30000E941702DC01CB01BC01CD010E944100C0
:102E4000DC01CB0198AB8FA70FC088EC90E09EA768
:102E50008DA78DA59EA50197F1F79EA78DA78FA59C
:102E600098A9019798AB8FA78FA598A9009769F7A4
:102E700014C069A97AA98BA99CA90E944100DC0110
:102E8000CB0198AB8FA78FA598A99CA78BA78BA5E3
:102E90009CA50197F1F79CA78BA7FE01ED59FF4F69
:102EA00087E08083FE01ED59FF4F81E0608140E0C3
:102EB0000E94A90880E090E0AAE7B3E48FA398A756
:102EC000A9A7BAA76FA178A589A59AA520E030E0A7
:102ED0004AEF54E40E941702DC01CB018BA39CA3B0
:102EE000ADA3BEA36BA17CA18DA19EA120E030E08B
:102EF00040E85FE30E94710388232CF481E090E0B6
:102F00009AA389A33FC06BA17CA18DA19EA120E0C3
:102F10003FEF4FE757E40E94110318164CF56FA1DD
:102F200078A589A59AA520E030E040E251E40E940E
:102F30001702DC01CB01BC01CD010E944100DC0184
:102F4000CB019AA389A30FC088EC90E098A38F8F40
:102F50008F8D98A10197F1F798A38F8F89A19AA1DE
:102F600001979AA389A389A19AA1009769F714C030
:102F70006BA17CA18DA19EA10E944100DC01CB012F
:102F80009AA389A389A19AA19E8F8D8F8D8D9E8DE5
:102F90000197F1F79E8F8D8FFE01ED59FF4F8081D4
:102FA000882351F0DE01AD59BF4FFE01ED59FF4FAF
:102FB000808181508C9376CF80E090E0AAE7B3E4E3
:102FC000898F9A8FAB8FBC8F698D7A8D8B8D9C8DFD
:102FD00020E030E04AEF54E40E941702DC01CB010C
:102FE0008D8B9E8BAF8BB88F6D897E898F89988DE5
:102FF00020E030E040E85FE30E94710388232CF476
:1030000081E090E09C8B8B8B3FC06D897E898F899E
:10301000988D20E03FEF4FE757E40E941103181608
:103020004CF5698D7A8D8B8D9C8D20E030E040E2EF
:1030300051E40E941702DC01CB01BC01CD010E94CA
:103040004100DC01CB019C8B8B8B0FC088EC90E0A6
:103050009A8B898B89899A890197F1F79A8B898B49
:103060008B899C8901979C8B8B8B8B899C89009782
:1030700069F714C06D897E898F89988D0E944100FF
:10308000DC01CB019C8B8B8B8B899C89988B8F87E8
:103090008F8598890197F1F7988B8F87FE01ED59FD
:1030A000FF4F87E08083FE01ED59FF4F80E0608194
:1030B00040E00E94A90880E090E0AAE7B3E48B8793
:1030C0009C87AD87BE876B857C858D859E8520E03E
:1030D00030E04AEF54E40E941702DC01CB018F83F9
:1030E0009887A987BA876F81788589859A8520E036
:1030F00030E040E85FE30E94710388232CF481E014
:1031000090E09E838D833FC06F81788589859A8505
:1031100020E03FEF4FE757E40E94110318164CF5EB
:103120006B857C858D859E8520E030E040E251E412
:103130000E941702DC01CB01BC01CD010E944100BD
:10314000DC01CB019E838D830FC088EC90E09C83D3
:103150008B838B819C810197F1F79C838B838D817D
:103160009E8101979E838D838D819E81009769F753
:1031700014C06F81788589859A850E944100DC01A1
:10318000CB019E838D838D819E819A8389838981E2
:103190009A810197F1F79A838983FE01ED59FF4FD8
:1031A0008081882351F0DE01AD59BF4FFE01ED59FA
:1031B000FF4F808181508C9376CFCD59DF4F0FB672
:1031C000F894DEBF0FBECDBFCF91DF911F910F915D
:1031D0000895DF93CF93CDB7DEB7E9970FB6F89494
:1031E000DEBF0FBECDBF0E94EA1219AE19AE82C07B
:1031F00080E069AD41E00E94A90897E089AD981B85
:1032000081E0692F41E00E94A90880E090E0AAE7F0
:10321000B3E48DAB9EABAFABB8AF6DA97EA98FA960
:1032200098AD20E030E04AEF54E40E941702DC0140
:10323000CB0189AB9AABABABBCAB69A97AA98BA923
:103240009CA920E030E040E85FE30E9471038823FE
:103250002CF481E090E098AB8FA73FC069A97AA9D0
:103260008BA99CA920E03FEF4FE757E40E94110390
:1032700018164CF56DA97EA98FA998AD20E030E015
:1032800040E251E40E941702DC01CB01BC01CD01F8
:103290000E944100DC01CB0198AB8FA70FC088ECE6
:1032A00090E09EA78DA78DA59EA50197F1F79EA7FB
:1032B0008DA78FA598A9019798AB8FA78FA598A9DF
:1032C000009769F714C069A97AA98BA99CA90E94E3
:1032D0004100DC01CB0198AB8FA78FA598A99CA7D3
:1032E0008BA78BA59CA50197F1F79CA78BA789AD10
:1032F0008F5F89AF89AD893008F47ACF80E090E0A4
:10330000AAE7B3E48FA398A7A9A7BAA76FA178A546
:1033100089A59AA520E030E04AEF54E40E94170204
:10332000DC01CB018BA39CA3ADA3BEA36BA17CA1AD
:103330008DA19EA120E030E040E85FE30E94710390
:1033400088232CF481E090E09AA389A33FC06BA16D
:103350007CA18DA19EA120E03FEF4FE757E40E94A2
:10336000110318164CF56FA178A589A59AA520E040
:1033700030E040E251E40E941702DC01CB01BC01C5
:10338000CD010E944100DC01CB019AA389A30FC0AB
:1033900088EC90E098A38F8F8F8D98A10197F1F71B
:1033A00098A38F8F89A19AA101979AA389A389A134
:1033B0009AA1009769F714C06BA17CA18DA19EA171
:1033C0000E944100DC01CB019AA389A389A19AA1A3
:1033D0009E8F8D8F8D8D9E8D0197F1F79E8F8D8F96
:1033E00087E089AF97E089AD981B81E0692F40E0C5
:1033F0000E94A90880E069AD40E00E94A90880E031
:1034000090E0AAE7B3E4898F9A8FAB8FBC8F698D68
:103410007A8D8B8D9C8D20E030E04AEF54E40E9441
:103420001702DC01CB018D8B9E8BAF8BB88F6D8922
:103430007E898F89988D20E030E040E85FE30E942C
:10344000710388232CF481E090E09C8B8B8B3FC030
:103450006D897E898F89988D20E03FEF4FE757E493
:103460000E94110318164CF5698D7A8D8B8D9C8DF9
:1034700020E030E040E251E40E941702DC01CB0181
:10348000BC01CD010E944100DC01CB019C8B8B8BE8
:103490000FC088EC90E09A8B898B89899A89019773
:1034A000F1F79A8B898B8B899C8901979C8B8B8BED
:1034B0008B899C89009769F714C06D897E898F89F3
:1034C000988D0E944100DC01CB019C8B8B8B8B89FA
:1034D0009C89988B8F878F8598890197F1F7988BB6
:1034E0008F8789AD882321F089AD815089AF7ACF4C
:1034F00080E090E0AAE7B3E48B879C87AD87BE8726
:103500006B857C858D859E8520E030E04AEF54E414
:103510000E941702DC01CB018F839887A987BA87A5
:103520006F81788589859A8520E030E040E85FE307
:103530000E94710388232CF481E090E09E838D83A8
:103540003FC06F81788589859A8520E03FEF4FE7FE
:1035500057E40E94110318164CF56B857C858D8508
:103560009E8520E030E040E251E40E941702DC0139
:10357000CB01BC01CD010E944100DC01CB019E8347
:103580008D830FC088EC90E09C838B838B819C8122
:103590000197F1F79C838B838D819E8101979E8398
:1035A0008D838D819E81009769F714C06F81788526
:1035B00089859A850E944100DC01CB019E838D8321
:1035C0008D819E819A83898389819A810197F1F700
:1035D0009A838983E9960FB6F894DEBF0FBECDBFFC
:1035E000CF91DF9108950F931F93DF93CF93CDB7C2
:1035F000DEB7C356D0400FB6F894DEBF0FBECDBFC6
:103600000E94EA12FE01ED59FF4F1082FE01ED59B2
:10361000FF4F1082CCC0FE01ED59FF4F80E060816A
:1036200041E00E94A908FE01E15AFF4F80E090E0CE
:10363000AAE7B3E480839183A283B3838E01055A02
:103640001F4FFE01E15AFF4F60817181828193819A
:1036500020E030E04AEF54E40E941702DC01CB0185
:10366000F80180839183A283B383FE01E55AFF4F63
:10367000608171818281938120E030E040E85FE3E6
:103680000E947103882344F4FE01E75AFF4F81E052
:1036900090E09183808364C0FE01E55AFF4F608112
:1036A00071818281938120E03FEF4FE757E40E94D0
:1036B000110318160CF043C0FE01E15AFF4F608160
:1036C00071818281938120E030E040E251E40E94E8
:1036D0001702DC01CB018E01075A1F4FBC01CD013F
:1036E0000E944100DC01CB01F801918380831FC05F
:1036F000FE01E95AFF4F88EC90E091838083FE0140
:10370000E95AFF4F808191810197F1F7FE01E95A53
:10371000FF4F91838083DE01A75ABF4FFE01E75A16
:10372000FF4F80819181019711969C938E93FE01AA
:10373000E75AFF4F808191810097D1F627C08E0113
:10374000075A1F4FFE01E55AFF4F60817181828148
:1037500093810E944100DC01CB01F80191838083B9
:10376000DE01AB5ABF4FFE01E75AFF4F80819181C6
:103770008D939C93FE01EB5AFF4F808191810197BD
:10378000F1F7FE01EB5AFF4F91838083FE01ED5963
:10379000FF4F80E0608140E00E94A908DE01AD5942
:1037A000BF4FFE01ED59FF4F80818F5F8C93FE016B
:1037B000ED59FF4F8081883008F42DCFFE01EF5A7C
:1037C000FF4F80E090E0AAE7B3E480839183A28377
:1037D000B3838E01035B1F4FFE01EF5AFF4F6081E1
:1037E00071818281938120E030E04AEF54E40E94AD
:1037F0001702DC01CB01F80180839183A283B3839C
:10380000FE01E35BFF4F608171818281938120E043
:1038100030E040E85FE30E947103882344F4FE0136
:10382000E55BFF4F81E090E09183808364C0FE01FF
:10383000E35BFF4F608171818281938120E03FEFE4
:103840004FE757E40E94110318160CF043C0FE0125
:10385000EF5AFF4F608171818281938120E030E0D7
:1038600040E251E40E941702DC01CB018E01055BAE
:103870001F4FBC01CD010E944100DC01CB01F801CA
:10388000918380831FC0FE01E75BFF4F88EC90E0CF
:1038900091838083FE01E75BFF4F808191810197D7
:1038A000F1F7FE01E75BFF4F91838083DE01A55BAB
:1038B000BF4FFE01E55BFF4F80819181019711961B
:1038C0009C938E93FE01E55BFF4F80819181009771
:1038D000D1F628C08E01055B1F4FFE01E35BFF4F51
:1038E00060817181828193810E944100DC01CB0162
:1038F000F80191838083DE01A95BBF4FFE01E55B88
:10390000FF4F8081918111969C938E93FE01E95B1C
:10391000FF4F808191810197F1F7FE01E95BFF4F35
:1039200091838083FE01ED59FF4F10829EC0FE01FE
:10393000ED59FF4F81E0608141E00E94A908FE013E
:10394000ED5BFF4F80E090E0AAE7B3E480839183D2
:10395000A283B3838E01015C1F4FFE01ED5BFF4F1D
:10396000608171818281938120E030E04AEF54E4EC
:103970000E941702DC01CB01F80180839183A283AE
:10398000B383FE01FF96608171818281938120E083
:1039900030E040E85FE30E94710388232CF481E06B
:1039A00090E09EAF8DAF46C0FE01FF9660817181B1
:1039B0008281938120E03FEF4FE757E40E9411039B
:1039C000181664F5FE01ED5BFF4F60817181828105
:1039D000938120E030E040E251E40E941702DC01D4
:1039E000CB01BC01CD010E944100DC01CB019EAFA7
:1039F0008DAF0FC088EC90E09CAF8BAF8BAD9CADD2
:103A00000197F1F79CAF8BAF8DAD9EAD01979EAF47
:103A10008DAF8DAD9EAD009769F716C0FE01FF9684
:103A200060817181828193810E944100DC01CB0120
:103A30009EAF8DAF8DAD9EAD9AAF89AF89AD9AAD7A
:103A40000197F1F79AAF89AFFE01ED59FF4F81E081
:103A5000608140E00E94A908DE01AD59BF4FFE0120
:103A6000ED59FF4F80818F5F8C93FE01ED59FF4F21
:103A70008081883008F45BCF80E090E0AAE7B3E46F
:103A80008DAB9EABAFABB8AF6DA97EA98FA998AD3A
:103A900020E030E04AEF54E40E941702DC01CB0141
:103AA00089AB9AABABABBCAB69A97AA98BA99CA932
:103AB00020E030E040E85FE30E94710388232CF4AB
:103AC00081E090E098AB8FA73FC069A97AA98BA944
:103AD0009CA920E03FEF4FE757E40E94110318161E
:103AE0004CF56DA97EA98FA998AD20E030E040E2A9
:103AF00051E40E941702DC01CB01BC01CD010E9400
:103B00004100DC01CB0198AB8FA70FC088EC90E09F
:103B10009EA78DA78DA59EA50197F1F79EA78DA7BE
:103B20008FA598A9019798AB8FA78FA598A9009703
:103B300069F714C069A97AA98BA99CA90E944100C0
:103B4000DC01CB0198AB8FA78FA598A99CA78BA769
:103B50008BA59CA50197F1F79CA78BA7FE01ED59BA
:103B6000FF4F87E08083FE01ED59FF4F81E06081C8
:103B700041E00E94A90880E090E0AAE7B3E48FA3A7
:103B800098A7A9A7BAA76FA178A589A59AA520E0AB
:103B900030E04AEF54E40E941702DC01CB018BA312
:103BA0009CA3ADA3BEA36BA17CA18DA19EA120E08F
:103BB00030E040E85FE30E94710388232CF481E049
:103BC00090E09AA389A33FC06BA17CA18DA19EA187
:103BD00020E03FEF4FE757E40E94110318164CF521
:103BE0006FA178A589A59AA520E030E040E251E4D4
:103BF0000E941702DC01CB01BC01CD010E944100F3
:103C0000DC01CB019AA389A30FC088EC90E098A3B4
:103C10008F8F8F8D98A10197F1F798A38F8F89A12E
:103C20009AA101979AA389A389A19AA1009769F7FC
:103C300014C06BA17CA18DA19EA10E944100DC015A
:103C4000CB019AA389A389A19AA19E8F8D8F8D8D77
:103C50009E8D0197F1F79E8F8D8FFE01ED59FF4FDD
:103C600081E0608140E00E94A908FE01ED59FF4F0C
:103C70008081882351F0DE01AD59BF4FFE01ED591F
:103C8000FF4F808181508C936ECF80E090E0AAE757
:103C9000B3E4898F9A8FAB8FBC8F698D7A8D8B8DB2
:103CA0009C8D20E030E04AEF54E40E941702DC01D2
:103CB000CB018D8B9E8BAF8BB88F6D897E898F8961
:103CC000988D20E030E040E85FE30E947103882394
:103CD0002CF481E090E09C8B8B8B3FC06D897E89BA
:103CE0008F89988D20E03FEF4FE757E40E94110342
:103CF00018164CF5698D7A8D8B8D9C8D20E030E007
:103D000040E251E40E941702DC01CB01BC01CD016D
:103D10000E944100DC01CB019C8B8B8B0FC088EC97
:103D200090E09A8B898B89899A890197F1F79A8B10
:103D3000898B8B899C8901979C8B8B8B8B899C8928
:103D4000009769F714C06D897E898F89988D0E94CC
:103D50004100DC01CB019C8B8B8B8B899C89988BE0
:103D60008F878F8598890197F1F7988B8F87FE0150
:103D7000ED59FF4F87E08083FE01ED59FF4F80E052
:103D8000608141E00E94A90880E090E0AAE7B3E4E6
:103D90008B879C87AD87BE876B857C858D859E854F
:103DA00020E030E04AEF54E40E941702DC01CB012E
:103DB0008F839887A987BA876F81788589859A8547
:103DC00020E030E040E85FE30E94710388232CF498
:103DD00081E090E09E838D833FC06F8178858985E7
:103DE0009A8520E03FEF4FE757E40E941103181631
:103DF0004CF56B857C858D859E8520E030E040E22A
:103E000051E40E941702DC01CB01BC01CD010E94EC
:103E10004100DC01CB019E838D830FC088EC90E0D4
:103E20009C838B838B819C810197F1F79C838B838F
:103E30008D819E8101979E838D838D819E810097C8
:103E400069F714C06F81788589859A850E94410041
:103E5000DC01CB019E838D838D819E819A83898332
:103E600089819A810197F1F79A838983FE01ED593F
:103E7000FF4F80E0608140E00E94A908FE01ED59FB
:103E8000FF4F8081882351F0DE01AD59BF4FFE0105
:103E9000ED59FF4F808181508C936ECFCD59DF4F0C
:103EA0000FB6F894DEBF0FBECDBFCF91DF911F914B
:103EB0000F910895DF93CF93CDB7DEB7A3970FB6D9
:103EC000F894DEBF0FBECDBF8BA31AA24AC182E019
:103ED00061E041E00E94A9088AA10E94460F82E0A9
:103EE00061E040E00E94A90819A227C11E8E1D8E24
:103EF00003C182E061E041E00E94A9088AA10E941A
:103F0000460F80E090E0A0E4B0E4898F9A8FAB8FF9
:103F1000BC8F698D7A8D8B8D9C8D20E030E04AEFCF
:103F200054E40E941702DC01CB018D8B9E8BAF8B7A
:103F3000B88F6D897E898F89988D20E030E040E8C8
:103F40005FE30E94710388232CF481E090E09C8B56
:103F50008B8B3FC06D897E898F89988D20E03FEFE4
:103F60004FE757E40E94110318164CF5698D7A8DBE
:103F70008B8D9C8D20E030E040E251E40E941702DE
:103F8000DC01CB01BC01CD010E944100DC01CB0171
:103F90009C8B8B8B0FC088EC90E09A8B898B8989E6
:103FA0009A890197F1F79A8B898B8B899C89019764
:103FB0009C8B8B8B8B899C89009769F714C06D89CA
:103FC0007E898F89988D0E944100DC01CB019C8BFA
:103FD0008B8B8B899C89988B8F878F85988901978C
:103FE000F1F7988B8F8782E061E040E00E94A9089A
:103FF00082E060E041E00E94A90889A10E94460F8A
:1040000080E090E0A0E4B0E48B879C87AD87BE871A
:104010006B857C858D859E8520E030E04AEF54E4F9
:104020000E941702DC01CB018F839887A987BA878A
:104030006F81788589859A8520E030E040E85FE3EC
:104040000E94710388232CF481E090E09E838D838D
:104050003FC06F81788589859A8520E03FEF4FE7E3
:1040600057E40E94110318164CF56B857C858D85ED
:104070009E8520E030E040E251E40E941702DC011E
:10408000CB01BC01CD010E944100DC01CB019E832C
:104090008D830FC088EC90E09C838B838B819C8107
:1040A0000197F1F79C838B838D819E8101979E837D
:1040B0008D838D819E81009769F714C06F8178850B
:1040C00089859A850E944100DC01CB019E838D8306
:1040D0008D819E819A83898389819A810197F1F7E5
:1040E0009A83898382E060E040E00E94A9088D8D78
:1040F0009E8D01969E8F8D8F8D8D9E8D8436910520
:1041000008F4F7CE8AA1882F90E09C01220F331F7C
:10411000C901880F991F880F991F280F391F89A17E
:10412000882F90E0280F391F8BA1882F90E0281747
:104130003907D9F089A18F5F89A389A18A3008F452
:10414000D5CE82E060E041E00E94A90880E00E94B4
:10415000460F82E060E040E00E94A9088AA18F5FDC
:104160008AA38AA18A3008F4B2CEA3960FB6F89437
:10417000DEBF0FBECDBFCF91DF910895DF93CF9308
:10418000CDB7DEB7A5970FB6F894DEBF0FBECDBF93
:104190008DA38DA19AE0692F0E9416228CA39DA168
:1041A0008CA1292F281B822F8BA381E08AA382E078
:1041B00061E041E00E94A9088AA10E94460F82E0C6
:1041C00061E040E00E94A90889E089A31E8E1D8E4F
:1041D00003C182E061E041E00E94A9088AA10E9437
:1041E000460F80E090E0A0E4B0E4898F9A8FAB8F17
:1041F000BC8F698D7A8D8B8D9C8D20E030E04AEFED
:1042000054E40E941702DC01CB018D8B9E8BAF8B97
:10421000B88F6D897E898F89988D20E030E040E8E5
:104220005FE30E94710388232CF481E090E09C8B73
:104230008B8B3FC06D897E898F89988D20E03FEF01
:104240004FE757E40E94110318164CF5698D7A8DDB
:104250008B8D9C8D20E030E040E251E40E941702FB
:10426000DC01CB01BC01CD010E944100DC01CB018E
:104270009C8B8B8B0FC088EC90E09A8B898B898903
:104280009A890197F1F79A8B898B8B899C89019781
:104290009C8B8B8B8B899C89009769F714C06D89E7
:1042A0007E898F89988D0E944100DC01CB019C8B17
:1042B0008B8B8B899C89988B8F878F8598890197A9
:1042C000F1F7988B8F8782E061E040E00E94A908B7
:1042D00082E060E041E00E94A90889A10E94460FA7
:1042E00080E090E0A0E4B0E48B879C87AD87BE8738
:1042F0006B857C858D859E8520E030E04AEF54E417
:104300000E941702DC01CB018F839887A987BA87A7
:104310006F81788589859A8520E030E040E85FE309
:104320000E94710388232CF481E090E09E838D83AA
:104330003FC06F81788589859A8520E03FEF4FE700
:1043400057E40E94110318164CF56B857C858D850A
:104350009E8520E030E040E251E40E941702DC013B
:10436000CB01BC01CD010E944100DC01CB019E8349
:104370008D830FC088EC90E09C838B838B819C8124
:104380000197F1F79C838B838D819E8101979E839A
:104390008D838D819E81009769F714C06F81788528
:1043A00089859A850E944100DC01CB019E838D8323
:1043B0008D819E819A83898389819A810197F1F702
:1043C0009A83898382E060E040E00E94A9088D8D95
:1043D0009E8D01969E8F8D8F8D8D9E8D843691053D
:1043E00008F4F7CE89A1882321F089A1815089A3FF
:1043F000EDCE82E060E041E00E94A90880E00E94EA
:10440000460F82E060E040E00E94A9088AA188236C
:1044100021F08AA181508AA3CACEA5960FB6F8943E
:10442000DEBF0FBECDBFCF91DF910895991B79E01C
:1044300004C0991F961708F0961B881F7A95C9F734
:1044400080950895AA1BBB1B51E107C0AA1FBB1F83
:10445000A617B70710F0A61BB70B881F991F5A9510
:10446000A9F780959095BC01CD01089597FB092E81
:1044700007260AD077FD04D0E5DF06D000201AF425
:10448000709561957F4F0895F6F7909581959F4FB0
:1044900008952F923F924F925F926F927F928F92E8
:1044A0009F92AF92BF92CF92DF92EF92FF920F93C3
:1044B0001F93CF93DF93CDB7DEB7CA1BDB0B0FB6CD
:1044C000F894DEBF0FBECDBF09942A88398848888A
:1044D0005F846E847D848C849B84AA84B984C88420
:1044E000DF80EE80FD800C811B81AA81B981CE0F17
:1044F000D11D0FB6F894DEBF0FBECDBFED010895FC
:04450000F894FFCF5D
:104504006F6666006F6E0041686D656400000000B0
:06451400000000000000A1
:00000001FF
