:100000000C942A000C94950C0C94C20C0C94EF0CDC
:100010000C9447000C9447000C9447000C94470044
:100020000C9447000C9447000C9447000C94470034
:100030000C9447000C9447000C9447000C94470024
:100040000C9447000C9447000C9447000C94470014
:100050000C94470011241FBECFE5D8E0DEBFCDBF12
:1000600010E0A0E6B0E0E8E9F6E302C005900D92EA
:10007000AE37B107D9F710E0AEE7B0E001C01D928E
:10008000A538B107E1F70E9461150C944A1B0C9446
:100090000000EF92FF920F931F937B018C0120E0F1
:1000A00030E040E05FE40E94490388238CF0C801FF
:1000B000B70120E030E040E05FE40E94C1010E940F
:1000C000A9039B01AC01205030404040504806C07D
:1000D000C801B7010E94A9039B01AC01B901CA0183
:1000E0001F910F91FF90EF900895A0E0B0E0EBE733
:1000F000F0E00C94131BDC012B01FA019C9192306F
:1001000008F439C1EB018881823008F433C194309E
:1001100069F4843009F02FC111969C91119789815F
:10012000981709F428C1A6E7B0E025C1843009F486
:1001300021C18230A9F4923009F01DC19A01AD01AC
:1001400088E0EA010990AE01E90109929E0181501F
:10015000C1F7E201898111969C918923818308C1AD
:10016000923009F407C112962D903C901397EB0141
:100170008A819B811496AD90BD90CD90DC901797AD
:10018000EC80FD800E811F819101281B390BB90184
:1001900037FF04C066277727621B730B6032710537
:1001A0000CF061C0121613066CF537014801062EDB
:1001B00004C096948794779467940A94D2F721E0C8
:1001C00030E040E050E004C0220F331F441F551FB1
:1001D0006A95D2F721503040404050402E213F21B7
:1001E00040235123211531054105510521F021E01E
:1001F00030E040E050E079018A01E628F72808293C
:1002000019293CC0232BD1F1260E371E350146019A
:10021000062E04C096948794779467940A94D2F734
:1002200021E030E040E050E004C0220F331F441FC3
:10023000551F6A95D2F721503040404050402A2146
:100240003B214C215D21211531054105510521F04E
:1002500021E030E040E050E059016A01A628B728CB
:10026000C828D9280BC0821593052CF01C01AA249C
:10027000BB24650103C0EE24FF24870111969C91E5
:10028000D20111968C91981709F445C0992339F041
:10029000A80197012A193B094C095D0906C0A6016E
:1002A00095012E193F09400B510B57FD08C01182D3
:1002B0003382228224833583468357831DC081E0A5
:1002C00081833382228288279927DC01821B930B4A
:1002D000A40BB50B84839583A683B7830DC0220F2F
:1002E000331F441F551F24833583468357838281E0
:1002F000938101979383828324813581468157813D
:10030000DA01C9010197A109B1098F5F9F4FAF4F72
:10031000BF4328F30BC0918333822282EA0CFB1C7B
:100320000C1D1D1DE482F5820683178383E0808304
:10033000248135814681578157FF1AC0C901AA27F8
:1003400097FDA095BA2F81709070A070B0705695EF
:10035000479537952795822B932BA42BB52B848318
:100360009583A683B7838281938101969383828349
:10037000DF0101C0D201CD01CDB7DEB7E2E10C94BF
:100380002F1BA0E2B0E0E7ECF1E00C941F1B6983A7
:100390007A838B839C832D833E834F835887E9E048
:1003A000EE2EF12CEC0EFD1ECE010196B7010E943F
:1003B000D2048E010F5E1F4FCE010596B8010E9438
:1003C000D2048A8991E089278A8BC701B801AE01DE
:1003D000475E5F4F0E9475000E94FD03A096E6E015
:1003E0000C943B1BA0E2B0E0E8EFF1E00C941F1B83
:1003F00069837A838B839C832D833E834F835887C5
:10040000F9E0EF2EF12CEC0EFD1ECE010196B701A6
:100410000E94D2048E010F5E1F4FCE010596B801D7
:100420000E94D204C701B801AE01475E5F4F0E942F
:1004300075000E94FD03A096E6E00C943B1BA0E231
:10044000B0E0E5E2F2E00C94131B69837A838B83BE
:100450009C832D833E834F835887CE010196BE0136
:10046000675F7F4F0E94D204CE010596BE016F5E8A
:100470007F4F0E94D2049985923088F0898982301A
:10048000C8F0943019F4823051F404C0843029F457
:10049000923081F486E790E0C6C0923049F420E0C3
:1004A0009A858A89981321E02A87CE010996BBC0D4
:1004B000823049F420E09A858A89981321E02A8BBA
:1004C000CE014196B0C02D843E844F8458886D88FB
:1004D0007E888F88988CEE24FF248701AA24BB2471
:1004E000650140E050E060E070E0E0E0F0E0C10174
:1004F00081709070892BE9F0E60CF71C081D191D1E
:100500009A01AB012A0D3B1D4C1D5D1D80E090E062
:10051000A0E0B0E0E614F7040805190520F481E036
:1005200090E0A0E0B0E0BA01A901480F591F6A1F8E
:100530007B1FAA0CBB1CCC1CDD1C97FE08C081E0F5
:1005400090E0A0E0B0E0A82AB92ACA2ADB2A3196B6
:10055000E032F10549F0660C771C881C991C569412
:10056000479437942794C3CFFA85EA892B893C892D
:100570008B859C85280F391F2E5F3F4F17C0CA01FE
:1005800081709070892B61F016950795F794E79428
:1005900080E090E0A0E0B0E8E82AF92A0A2B1B2BC3
:1005A00076956795579547952F5F3F4F77FDE7CF36
:1005B0000CC0440F551F661F771F17FD4160EE0CDE
:1005C000FF1C001F111F21503040403090E05907A0
:1005D00090E0690790E4790760F32B8F3C8FDB0193
:1005E000CA018F779070A070B07080349105A1051A
:1005F000B10561F447FD0AC0E114F10401051105DC
:1006000029F0405C5F4F6F4F7F4F40781A8EFE1786
:1006100011F081E08A8F4D8F5E8F6F8F78A383E01A
:10062000898FCE0149960E94FD03A096E2E10C94C9
:100630002F1BA8E1B0E0EFE1F3E00C941F1B6983EE
:100640007A838B839C832D833E834F83588789E0F5
:10065000E82EF12CEC0EFD1ECE010196B7010E9492
:10066000D2048E010F5E1F4FCE010596B8010E9485
:10067000D2048985823040F08989823028F0C70110
:10068000B8010E944A0501C08FEF6896E6E00C941D
:100690003B1BA8E1B0E0EFE4F3E00C941F1B69837F
:1006A0007A838B839C832D833E834F83588789E095
:1006B000E82EF12CEC0EFD1ECE010196B7010E9432
:1006C000D2048E010F5E1F4FCE010596B8010E9425
:1006D000D2048985823040F08989823028F0C701B0
:1006E000B8010E944A0501C08FEF6896E6E00C94BD
:1006F0003B1BA8E1B0E0EFE7F3E00C941F1B69831C
:100700007A838B839C832D833E834F83588789E034
:10071000E82EF12CEC0EFD1ECE010196B7010E94D1
:10072000D2048E010F5E1F4FCE010596B8010E94C4
:10073000D2048985823040F08989823028F0C7014F
:10074000B8010E944A0501C081E06896E6E00C9479
:100750003B1BACE0B0E0EFEAF3E00C94231B6983B1
:100760007A838B839C83CE010196BE016B5F7F4FA2
:100770000E94D2048D81823061F1823050F1843048
:1007800021F48E81882351F12EC02F81388537FDC9
:1007900020C06E812F3131051CF06623F9F023C093
:1007A0008EE190E0821B930B29853A854B855C8511
:1007B00004C056954795379527958A95D2F76623B5
:1007C000B1F050954095309521953F4F4F4F5F4F79
:1007D0000EC020E030E040E050E009C02FEF3FEFD6
:1007E0004FEF5FE704C020E030E040E050E8B9019F
:1007F000CA012C96E2E00C943F1BDF92EF92FF922D
:100800000F931F93FC01E480F58006811781D1804E
:100810008081823048F480E090E0A0E1B0E0E82AF6
:10082000F92A0A2B1B2BA5C0843009F49FC0823003
:1008300021F4EE24FF24870105C0E114F104010531
:10084000110519F4E0E0F0E096C0628173819FEF3A
:10085000623879070CF05BC022E83FEF261B370BAC
:100860002A3131052CF020E030E040E050E02AC091
:10087000B801A701022E04C0769567955795479554
:100880000A94D2F781E090E0A0E0B0E004C0880FC5
:10089000991FAA1FBB1F2A95D2F70197A109B10979
:1008A0008E219F21A023B1230097A105B10521F03E
:1008B00081E090E0A0E0B0E09A01AB01282B392B59
:1008C0004A2B5B2BDA01C9018F779070A070B07052
:1008D00080349105A105B10539F427FF09C0205CDA
:1008E0003F4F4F4F5F4F04C0215C3F4F4F4F5F4F13
:1008F000E0E0F0E02030A0E03A07A0E04A07A0E402
:100900005A0710F0E1E0F0E079018A0127C0603871
:10091000710564F5FB01E158FF4FD801C7018F77DE
:100920009070A070B07080349105A105B10539F4C4
:10093000E7FE0DC080E490E0A0E0B0E004C08FE3EB
:1009400090E0A0E0B0E0E80EF91E0A1F1B1F17FFA1
:1009500005C016950795F794E794319687E01695AC
:100960000795F794E7948A95D1F705C0EE24FF2404
:100970008701EFEFF0E06E2F679566276795902F60
:100980009F77D794DD24D7948E2F8695492F462BB9
:10099000582F5D29B701CA011F910F91FF90EF9069
:1009A000DF900895FC01DB01408151812281622F9B
:1009B0006F7770E0221F2227221F9381892F880FD3
:1009C000822B282F30E0991F9927991F11969C930D
:1009D000119721153105A9F54115510561057105DD
:1009E00011F482E037C082E89FEF13969C938E93B8
:1009F00012979A01AB0167E0220F331F441F551F66
:100A00006A95D1F783E08C930DC0220F331F441FEA
:100A1000551F12968D919C911397019713969C9355
:100A20008E931297203080E0380780E0480780E4FA
:100A3000580758F314962D933D934D935C93179755
:100A400008952F3F310579F4411551056105710570
:100A500019F484E08C93089564FF03C081E08C93C3
:100A600012C01C9210C02F57304013963C932E9307
:100A7000129783E08C9387E0440F551F661F771F02
:100A80008A95D1F7706414964D935D936D937C9322
:100A9000179708951F93DC01FB019C91923008F495
:100AA00047C08081823008F443C0943051F41196DD
:100AB0001C91843099F58181682F70E0611B710968
:100AC0003FC0843021F0923031F48230B9F181811D
:100AD000882389F12DC011961C9111978230F1F075
:100AE00081811817D9F412962D913C911397828128
:100AF00093818217930794F028173907BCF0149656
:100B00008D919D910D90BC91A02D248135814681C0
:100B10005781281739074A075B0718F4112341F05A
:100B20000AC082179307A407B50740F4112319F0F0
:100B300061E070E005C06FEF7FEF02C060E070E041
:100B4000CB011F910895DF93CF93CDB7DEB72D97DB
:100B50000FB6F894DEBF0FBECDBF198618861F8270
:100B60001E821D821C821B821A820E94420F898370
:100B700089818031D1F38981882339F41D821C82D7
:100B80001B821A820E940710F0CF8D81882361F4A6
:100B900081E08D8389810E94690689878985882FF4
:100BA00090E00E946B10E1CF8B81882389F581E072
:100BB0008B838981282F30E03D872C878C859D850C
:100BC00087309105C9F02C853D852830310534F4F6
:100BD0008C859D858330910561F016C02C853D85FF
:100BE0002B30310561F08C859D858F30910551F05A
:100BF0000BC08BE28F8308C08DE28F8305C08AE231
:100C00008F8302C08FE28F838F810E941110ADCF3E
:100C10008C81882361F481E08C8389810E9469063C
:100C200088878885882F90E00E946B109ECF8A81EC
:100C3000882309F09ACF8981823009F096CF81E02C
:100C40008A838F81282F30E03B872A878A859B857E
:100C50008B329105B1F02A853B852C32310534F475
:100C60008A859B858A329105B1F022C02A853B8511
:100C70002D32310559F08A859B858F32910591F08F
:100C800017C089859885890F8E8312C089859885BC
:100C9000891B8E830DC089859885899F802D11249D
:100CA0008E8306C089859885692F0E94E01A8E83FD
:100CB0008DE30E94111081E060E00E94471080E601
:100CC00090E00E941E108E81882F90E00E946B1091
:100CD0004CCFDF93CF9300D000D0CDB7DEB78A835F
:100CE00019828A81282F30E03C832B838B819C8161
:100CF0008830910509F44BC02B813C8129303105A6
:100D0000DCF48B819C8184309105C1F12B813C8185
:100D10002530310534F48B819C818130910561F15E
:100D200047C02B813C812530310559F18B819C8155
:100D30008630910549F13CC02B813C812C30310536
:100D400079F18B819C818D3091055CF42B813C8104
:100D500029303105F9F08B819C818A309105E9F0C9
:100D600027C02B813C812D303105E9F08B819C819E
:100D70008E309105D9F01CC019821AC081E0898398
:100D800017C082E0898314C083E0898311C084E0A6
:100D900089830EC085E089830BC086E0898308C003
:100DA00087E0898305C088E0898302C089E0898360
:100DB00089810F900F900F900F90CF91DF91089540
:100DC000DF93CF93CDB7DEB729970FB6F894DEBF88
:100DD0000FBECDBF89836A834B838B81882309F043
:100DE000C2C08981282F30E0398728878885998576
:100DF0008130910509F43FC02885398522303105BD
:100E00002CF488859985009771F0E1C12885398592
:100E10002230310509F457C08885998583309105C2
:100E200009F479C0D4C1AAE3B0E0EAE3F0E080813C
:100E3000482F8A81282F30E081E090E002C0880F9F
:100E4000991F2A95E2F7809584238C93ABE3B0E059
:100E5000EBE3F0E08081482F8A81282F30E081E0A9
:100E600090E0022E02C0880F991F0A94E2F7809545
:100E700084238C93ACC1A7E3B0E0E7E3F0E080818A
:100E8000482F8A81282F30E081E090E002C0880F4F
:100E9000991F2A95E2F7809584238C93A8E3B0E00C
:100EA000E8E3F0E08081482F8A81282F30E081E05C
:100EB00090E0022E02C0880F991F0A94E2F78095F5
:100EC00084238C9384C1A4E3B0E0E4E3F0E0808168
:100ED000482F8A81282F30E081E090E002C0880FFF
:100EE000991F2A95E2F7809584238C93A5E3B0E0BF
:100EF000E5E3F0E08081482F8A81282F30E081E00F
:100F000090E0022E02C0880F991F0A94E2F78095A4
:100F100084238C935CC1A1E3B0E0E1E3F0E0808145
:100F2000482F8A81282F30E081E090E002C0880FAE
:100F3000991F2A95E2F7809584238C93A2E3B0E071
:100F4000E2E3F0E08081482F8A81282F30E081E0C1
:100F500090E0022E02C0880F991F0A94E2F7809554
:100F600084238C9334C18B81813009F0BEC0898188
:100F7000282F30E03F832E838E819F818130910521
:100F800009F43EC02E813F81223031052CF48E8140
:100F90009F81009771F01BC12E813F812230310566
:100FA00009F455C08E819F818330910509F476C084
:100FB0000EC1AAE3B0E0EAE3F0E08081482F8A8125
:100FC000282F30E081E090E002C0880F991F2A9519
:100FD000E2F7809584238C93ABE3B0E0EBE3F0E0A1
:100FE0008081482F8A81282F30E081E090E0022E16
:100FF00002C0880F991F0A94E2F7842B8C93E7C0F4
:10100000A7E3B0E0E7E3F0E08081482F8A81282F52
:1010100030E081E090E002C0880F991F2A95E2F746
:10102000809584238C93A8E3B0E0E8E3F0E080812E
:10103000482F8A81282F30E081E090E0022E02C004
:10104000880F991F0A94E2F7842B8C93C0C0A4E305
:10105000B0E0E4E3F0E08081482F8A81282F30E07F
:1010600081E090E002C0880F991F2A95E2F78095F1
:1010700084238C93A5E3B0E0E5E3F0E08081482F82
:101080008A81282F30E081E090E0022E02C0880F94
:10109000991F0A94E2F7842B8C9399C0A1E3B0E0E6
:1010A000E1E3F0E08081482F8A81282F30E081E061
:1010B00090E002C0880F991F2A95E2F7809584235B
:1010C0008C93A2E3B0E0E2E3F0E08081482F8A81D4
:1010D000282F30E081E090E0022E02C0880F991F97
:1010E0000A94E2F7842B8C9372C08B81823009F0D2
:1010F0006EC08981282F30E03D832C838C819D81B7
:101100008130910549F12C813D81223031052CF44B
:101110008C819D81009761F05AC02C813D812230E5
:10112000310571F18C819D8183309105E9F14FC0CA
:10113000AAE3B0E0EAE3F0E08081482F8A81282F1B
:1011400030E081E090E0022E02C0880F991F0A94DF
:10115000E2F7842B8C933BC0A7E3B0E0E7E3F0E039
:101160008081482F8A81282F30E081E090E0022E94
:1011700002C0880F991F0A94E2F7842B8C9327C032
:10118000A4E3B0E0E4E3F0E08081482F8A81282FD7
:1011900030E081E090E0022E02C0880F991F0A948F
:1011A000E2F7842B8C9313C0A1E3B0E0E1E3F0E01D
:1011B0008081482F8A81282F30E081E090E0022E44
:1011C00002C0880F991F0A94E2F7842B8C9329960A
:1011D0000FB6F894DEBF0FBECDBFCF91DF9108955B
:1011E000DF93CF93CDB7DEB72A970FB6F894DEBF63
:1011F0000FBECDBF89836A838A818823D9F589810F
:10120000282F30E03A87298789859A858130910592
:10121000E1F029853A85223031052CF489859A85BB
:10122000009761F0D2C029853A8522303105A1F0BE
:1012300089859A8583309105B1F0C7C0EAE3F0E073
:101240001082EBE3F0E01082C0C0E7E3F0E0108230
:10125000E8E3F0E01082B9C0E4E3F0E01082E5E3F7
:10126000F0E01082B2C0E1E3F0E01082E2E3F0E0EF
:101270001082ABC08A81813009F03FC08981282F5C
:1012800030E038872F838F81988581309105E9F090
:101290002F813885223031052CF48F819885009775
:1012A00061F093C02F81388522303105B1F08F81F4
:1012B000988583309105C9F088C0EAE3F0E0108298
:1012C000EBE3F0E08FEF808380C0E7E3F0E0108293
:1012D000E8E3F0E08FEF808378C0E4E3F0E0108291
:1012E000E5E3F0E08FEF808370C0E1E3F0E010828F
:1012F000E2E3F0E08FEF808368C08A81823099F565
:101300008981282F30E03E832D838D819E8181301D
:101310009105D1F02D813E81223031052CF48D8153
:101320009E81009761F051C02D813E8122303105B0
:1013300081F08D819E818330910581F046C0EAE382
:10134000F0E08FEF808341C0E7E3F0E08FEF808330
:101350003CC0E4E3F0E08FEF808337C0E1E3F0E0EE
:101360008FEF808332C08981282F30E03C832B832C
:101370008B819C8181309105D1F02B813C81223081
:1013800031052CF48B819C81009761F01EC02B816C
:101390003C812230310581F08B819C818330910525
:1013A00081F013C0EAE3F0E08A8180830EC0E7E3B6
:1013B000F0E08A81808309C0E4E3F0E08A818083E1
:1013C00004C0E1E3F0E08A8180832A960FB6F894A6
:1013D000DEBF0FBECDBFCF91DF910895DF93CF93D6
:1013E000CDB7DEB727970FB6F894DEBF0FBECDBFDF
:1013F00089836A834B838B81813009F06FC0898137
:10140000282F30E03F832E838E819F81813091058C
:1014100049F12E813F81223031052CF48E819F814C
:10142000009761F0D2C02E813F812230310571F1E9
:101430008E819F8183309105E9F1C7C0ABE3B0E0B5
:10144000EBE3F0E08081482F8A81282F30E081E0B3
:1014500090E0022E02C0880F991F0A94E2F7842BB5
:101460008C93B3C0A8E3B0E0E8E3F0E08081482FBC
:101470008A81282F30E081E090E0022E02C0880FA0
:10148000991F0A94E2F7842B8C939FC0A5E3B0E0E8
:10149000E5E3F0E08081482F8A81282F30E081E069
:1014A00090E0022E02C0880F991F0A94E2F7842B65
:1014B0008C938BC0A2E3B0E0E2E3F0E08081482FA0
:1014C0008A81282F30E081E090E0022E02C0880F50
:1014D000991F0A94E2F7842B8C9377C08B81882321
:1014E00009F073C08981282F30E03D832C838C81E3
:1014F0009D818130910559F12C813D81223031054A
:101500002CF48C819D81009769F05FC02C813D8116
:101510002230310589F18C819D818330910509F458
:1015200040C053C0ABE3B0E0EBE3F0E08081482F74
:101530008A81282F30E081E090E0022E02C0880FDF
:10154000991F0A94E2F7809584238C933EC0A8E308
:10155000B0E0E8E3F0E08081482F8A81282F30E076
:1015600081E090E0022E02C0880F991F0A94E2F7F2
:10157000809584238C9329C0A5E3B0E0E5E3F0E0F7
:101580008081482F8A81282F30E081E090E0022E70
:1015900002C0880F991F0A94E2F7809584238C93E8
:1015A00014C0A2E3B0E0E2E3F0E08081482F8A813A
:1015B000282F30E081E090E0022E02C0880F991FB2
:1015C0000A94E2F7809584238C9327960FB6F894BB
:1015D000DEBF0FBECDBFCF91DF910895DF93CF93D4
:1015E000CDB7DEB728970FB6F894DEBF0FBECDBFDC
:1015F00089836A838A81813099F58981282F30E037
:1016000038872F838F81988581309105D1F02F8184
:101610003885223031052CF48F819885009761F050
:1016200083C02F8138852230310581F08F819885E4
:101630008330910581F078C0EBE3F0E08FEF808399
:1016400073C0E8E3F0E08FEF80836EC0E5E3F0E085
:101650008FEF808369C0E2E3F0E08FEF808364C0A6
:101660008A81882379F58981282F30E03E832D8374
:101670008D819E8181309105C9F02D813E8122307E
:1016800031052CF48D819E81009761F04DC02D8134
:101690003E812230310571F08D819E81833091052C
:1016A00069F042C0EBE3F0E010823EC0E8E3F0E016
:1016B00010823AC0E5E3F0E0108236C0E2E3F0E0E9
:1016C000108232C08981282F30E03C832B838B81AC
:1016D0009C8181309105D1F02B813C8122303105F4
:1016E0002CF48B819C81009761F01EC02B813C8182
:1016F0002230310581F08B819C818330910581F00E
:1017000013C0EBE3F0E08A8180830EC0E8E3F0E0F1
:101710008A81808309C0E5E3F0E08A81808304C088
:10172000E2E3F0E08A81808328960FB6F894DEBF6A
:101730000FBECDBFCF91DF910895DF93CF9300D03F
:1017400000D00F92CDB7DEB78A836B8319828A816E
:10175000282F30E03D832C834C815D814130510541
:1017600041F18C819D818230910534F42C813D8141
:101770002115310561F052C04C815D814230510527
:1017800051F18C819D8183309105B9F147C0E9E326
:10179000F0E08081282F30E08B81882F90E0A90134
:1017A00002C0559547958A95E2F7CA0181708983F1
:1017B00035C0E6E3F0E08081282F30E08B81882F70
:1017C00090E0A90102C0559547958A95E2F7CA01B4
:1017D0008170898323C0E3E3F0E08081282F30E02B
:1017E0008B81882F90E0A90102C0559547958A9575
:1017F000E2F7CA018170898311C0E0E3F0E08081E3
:10180000282F30E08B81882F90E0A90102C05595E8
:1018100047958A95E2F7CA018170898389810F9083
:101820000F900F900F900F90CF91DF910895DF935D
:10183000CF9300D000D0CDB7DEB78A8319828A81DA
:10184000282F30E03C832B838B819C818130910554
:1018500049F12B813C81223031052CF48B819C8114
:10186000009761F05AC02B813C812230310571F123
:101870008B819C8183309105E9F14FC0E9E3F0E071
:1018800080818F3F19F481E0898347C0E9E3F0E06C
:101890008081882311F4198240C0E9E3F0E080815F
:1018A00089833BC0E6E3F0E080818F3F19F481E05B
:1018B000898333C0E6E3F0E08081882311F4198244
:1018C0002CC0E6E3F0E08081898327C0E3E3F0E009
:1018D00080818F3F19F481E089831FC0E3E3F0E04A
:1018E0008081882311F4198218C0E3E3F0E080813D
:1018F000898313C0E0E3F0E080818F3F19F481E039
:1019000089830BC0E0E3F0E08081882311F4198221
:1019100004C0E0E3F0E08081898389810F900F901B
:101920000F900F90CF91DF9108951F920F920FB6F5
:101930000F9211242F933F934F935F936F937F9355
:101940008F939F93AF93BF93EF93FF93DF93CF93C7
:10195000CDB7DEB7E0918000F09181000995CF917D
:10196000DF91FF91EF91BF91AF919F918F917F9107
:101970006F915F914F913F912F910F900FBE0F90FC
:101980001F9018951F920F920FB60F9211242F934C
:101990003F934F935F936F937F938F939F93AF93F7
:1019A000BF93EF93FF93DF93CF93CDB7DEB7E09173
:1019B0007E00F0917F000995CF91DF91FF91EF912B
:1019C000BF91AF919F918F917F916F915F914F9157
:1019D0003F912F910F900FBE0F901F9018951F925F
:1019E0000F920FB60F9211242F933F934F935F9353
:1019F0006F937F938F939F93AF93BF93EF93FF93D7
:101A0000DF93CF93CDB7DEB7E0918200F0918300F2
:101A10000995CF91DF91FF91EF91BF91AF919F9188
:101A20008F917F916F915F914F913F912F910F9087
:101A30000FBE0F901F901895DF93CF93CDB7DEB7F1
:101A4000ABE5B0E0EBE5F0E0808180648C930E9430
:101A5000930DA5E5B0E0E5E5F0E0808181608C9331
:101A6000A5E5B0E0E5E5F0E080818D7F8C93ABE506
:101A7000B0E0EBE5F0E0808180688C93A5E5B0E014
:101A8000E5E5F0E0808184608C93A5E5B0E0E5E5D4
:101A9000F0E08081877F8C93ABE5B0E0EBE5F0E090
:101AA000808180628C93A5E5B0E0E5E5F0E080817F
:101AB0008F7B8C93CF91DF910895DF93CF9300D0EC
:101AC000CDB7DEB79A83898389819A81909381000B
:101AD000809380000F900F90CF91DF910895DF9356
:101AE000CF9300D0CDB7DEB79A83898389819A815D
:101AF00090937F0080937E000F900F90CF91DF91A5
:101B00000895DF93CF9300D0CDB7DEB79A83898352
:101B100089819A8190938300809382000F900F9027
:101B2000CF91DF910895DF93CF93CDB7DEB7AFE5C7
:101B3000B0E0EFE5F0E0808180688C93CF91DF9199
:101B40000895DF93CF93CDB7DEB7AFE5B0E0EFE513
:101B5000F0E080818F778C93CF91DF910895DF93B0
:101B6000CF93CDB7DEB783E060E041E00E94E006AE
:101B700083E061E041E00E94E00683E062E041E052
:101B80000E94E00683E063E041E00E94E00683E01B
:101B900064E042E00E94E00683E065E042E00E94EB
:101BA000E00683E066E042E00E94E00683E067E052
:101BB00042E00E94E006CF91DF910895DF93CF933A
:101BC000CDB7DEB728970FB6F894DEBF0FBECDBFF6
:101BD0008C8381E08B838C81869586958A838C812A
:101BE0008370898383E064E041E00E94EE0983E032
:101BF00065E041E00E94EE0983E066E041E00E947A
:101C0000EE0983E067E041E00E94EE098981282F18
:101C100030E038872F838F81988581309105D9F006
:101C20002F813885223031052CF48F8198850097DB
:101C300061F022C02F8138852230310591F08F81EB
:101C400098858330910599F017C083E064E040E007
:101C50000E94EE0911C083E065E040E00E94EE09B9
:101C60000BC083E066E040E00E94EE0905C083E01F
:101C700067E040E00E94EE098A81282F30E03E8331
:101C80002D838D819E8181309105E9F02D813E81EA
:101C9000223031052CF48D819E81009761F02AC09D
:101CA0002D813E8122303105B1F08D819E818330BE
:101CB0009105C9F01FC083E060E00E949D0B88235E
:101CC000C9F41B8217C083E061E00E949D0B88234A
:101CD00089F41B820FC083E062E00E949D0B882381
:101CE00049F41B8207C083E063E00E949D0B8823B8
:101CF00009F41B828B8128960FB6F894DEBF0FBEC5
:101D0000CDBFCF91DF910895DF93CF93CDB7DEB7ED
:101D100028970FB6F894DEBF0FBECDBF8C8381E04D
:101D20008B838C81869586958A838C818370898349
:101D300083E064E041E00E94EE0983E065E041E079
:101D40000E94EE0983E066E041E00E94EE0983E034
:101D500067E041E00E94EE098981282F30E0388752
:101D60002F838F81988581309105D9F02F81388517
:101D7000223031052CF48F819885009761F022C0C4
:101D80002F8138852230310591F08F8198858330FD
:101D9000910599F017C083E064E040E00E94EE09ED
:101DA00011C083E065E040E00E94EE090BC083E0D3
:101DB00066E040E00E94EE0905C083E067E040E095
:101DC0000E94EE098A81282F30E03E832D838D8189
:101DD0009E818130910519F12D813E81223031059E
:101DE0002CF48D819E81009761F042C02D813E814F
:101DF0002230310511F18D819E818330910559F199
:101E000037C083E060E00E949D0B882389F51B8228
:101E100083E060E00E949D0B8823D1F329C083E01A
:101E200061E00E949D0B882319F51B8283E061E02D
:101E30000E949D0B8823D1F31BC083E062E00E94C7
:101E40009D0B8823A9F41B8283E062E00E949D0B16
:101E50008823D1F30DC083E063E00E949D0B8823AB
:101E600039F41B8283E063E00E949D0B8823D1F349
:101E70008B8128960FB6F894DEBF0FBECDBFCF91F1
:101E8000DF910895DF93CF9300D0CDB7DEB71A82EC
:101E900080E189831A820BC08A810E94840E882384
:101EA00019F48A81898306C08A818F5F8A838A8137
:101EB000803190F389810F900F90CF91DF91089539
:101EC000DF93CF93CDB7DEB72F970FB6F894DEBF71
:101ED0000FBECDBF1F860E94EE1280E090E0A0EF03
:101EE000B1E48B879C87AD87BE876B857C858D85AC
:101EF0009E8520E030E04AEF54E40E941F02DC019E
:101F0000CB018F839887A987BA876F817885898568
:101F10009A8520E030E040E85FE30E94790388235F
:101F20002CF481E090E09E838D833FC06F817885A3
:101F300089859A8520E03FEF4FE757E40E94190317
:101F400018164CF56B857C858D859E8520E030E0EC
:101F500040E251E40E941F02DC01CB01BC01CD0133
:101F60000E944900DC01CB019E838D830FC088EC69
:101F700090E09C838B838B819C810197F1F79C83FC
:101F80008B838D819E8101979E838D838D819E8120
:101F9000009769F714C06F81788589859A850E94BA
:101FA0004900DC01CB019E838D838D819E819A83C4
:101FB000898389819A810197F1F79A83898380E3E4
:101FC0008F878F8588608F878F8584608F878F85C7
:101FD0000E94181188E08F878F8584608F878F8596
:101FE00081608F878F8582608F878F8582608F87E2
:101FF0008F850E94181181E00E9418112F960FB64C
:10200000F894DEBF0FBECDBFCF91DF910895DF936F
:10201000CF93CDB7DEB781E00E941811CF91DF9149
:102020000895DF93CF930F92CDB7DEB7898389816F
:102030000E9403120F90CF91DF910895DF93CF9309
:1020400000D00F92CDB7DEB79B838A8319820EC072
:102050008981282F30E08A819B81FC01E20FF31FE8
:1020600080810E94111089818F5F89838981282F47
:1020700030E08A819B81FC01E20FF31F808188237D
:1020800039F70F900F900F90CF91DF910895DF9364
:10209000CF9300D00F92CDB7DEB78A836B838A814E
:1020A000882F90E0002496958795079496958795BC
:1020B0000794982F802D982F8B81890F8983898190
:1020C0008068898389810E9418110F900F900F906A
:1020D000CF91DF910895DF93CF9300D000D000D04F
:1020E000CDB7DEB79E838D831C821B821A828D81C1
:1020F0009E8199235CF48D819E81909581959F4F5F
:102100009E838D838DE20E9411102DC08D819E8152
:10211000009749F580E30E94111025C08B819C81B6
:102120009C01220F331FC901880F991F880F991F27
:10213000F901E80FF91F8D819E812AE030E0B90195
:102140000E94001B8E0F9F1F9C838B838D819E811D
:102150002AE030E0B9010E94001BCB019E838D83F1
:102160008A818F5F8A838D819E810097B9F61BC01B
:102170008B819C812AE030E0B9010E94EC1A8983AE
:102180008981805D898389810E9411108B819C8166
:102190002AE030E0B9010E94EC1ACB019C838B83CA
:1021A0008A8181508A838B819C81009709F706C0C0
:1021B00080E30E9411108A8181508A838A8188235A
:1021C000B9F726960FB6F894DEBF0FBECDBFCF91FC
:1021D000DF910895DF93CF9300D0CDB7DEB78A8328
:1021E000198206C088E10E94181189818F5F898356
:1021F00099818A819817B0F30F900F90CF91DF915A
:102200000895DF93CF9300D0CDB7DEB78A831982CC
:1022100006C08CE10E94181189818F5F89839981A2
:102220008A819817B0F30F900F90CF91DF910895A6
:10223000DF93CF93CDB7DEB72F970FB6F894DEBFFD
:102240000FBECDBF8F8781E062E040E00E94EE09C3
:1022500081E061E040E00E94EE098F85982F917047
:1022600080E067E0492F0E94EE098F858695982FC0
:10227000917080E066E0492F0E94EE098F85869577
:102280008695982F917080E065E0492F0E94EE09B5
:102290008F85869586958695982F917080E064E06D
:1022A000492F0E94EE098F8582958F70982F91702B
:1022B00080E063E0492F0E94EE098F858295869524
:1022C0008770982F917080E062E0492F0E94EE099C
:1022D0008F858295869586958370982F917080E082
:1022E00061E0492F0E94EE098F85982F991F992749
:1022F000991F80E060E0492F0E94EE0981E060E0D4
:1023000041E00E94EE0980E090E0A0E0B0E48B871D
:102310009C87AD87BE876B857C858D859E8520E0FB
:1023200030E04AEF54E40E941F02DC01CB018F83AE
:102330009887A987BA876F81788589859A8520E0F3
:1023400030E040E85FE30E94790388232CF481E0C9
:1023500090E09E838D833FC06F81788589859A85C3
:1023600020E03FEF4FE757E40E94190318164CF5A1
:102370006B857C858D859E8520E030E040E251E4D0
:102380000E941F02DC01CB01BC01CD010E9449006B
:10239000DC01CB019E838D830FC088EC90E09C8391
:1023A0008B838B819C810197F1F79C838B838D813B
:1023B0009E8101979E838D838D819E81009769F711
:1023C00014C06F81788589859A850E944900DC0157
:1023D000CB019E838D838D819E819A8389838981A0
:1023E0009A810197F1F79A83898381E060E040E068
:1023F0000E94EE092F960FB6F894DEBF0FBECDBF38
:10240000CF91DF910895DF93CF93CDB7DEB72F97AC
:102410000FB6F894DEBF0FBECDBF8F8781E062E0BC
:1024200041E00E94EE0981E061E040E00E94EE0997
:102430008F85982F917080E067E0492F0E94EE0908
:102440008F858695982F917080E066E0492F0E94D5
:10245000EE098F8586958695982F917080E065E0CE
:10246000492F0E94EE098F85869586958695982F2F
:10247000917080E064E0492F0E94EE098F8582957B
:102480008F70982F917080E063E0492F0E94EE09D1
:102490008F85829586958770982F917080E062E095
:1024A000492F0E94EE098F858295869586958370C7
:1024B000982F917080E061E0492F0E94EE098F858E
:1024C000982F991F9927991F80E060E0492F0E945B
:1024D000EE0981E060E041E00E94EE0980E090E0DA
:1024E000A0E0B0E48B879C87AD87BE876B857C8539
:1024F0008D859E8520E030E04AEF54E40E941F0263
:10250000DC01CB018F839887A987BA876F81788593
:1025100089859A8520E030E040E85FE30E947903F6
:1025200088232CF481E090E09E838D833FC06F81EF
:10253000788589859A8520E03FEF4FE757E40E9430
:10254000190318164CF56B857C858D859E8520E0DA
:1025500030E040E251E40E941F02DC01CB01BC01EB
:10256000CD010E944900DC01CB019E838D830FC009
:1025700088EC90E09C838B838B819C810197F1F7A1
:102580009C838B838D819E8101979E838D838D811A
:102590009E81009769F714C06F81788589859A8537
:1025A0000E944900DC01CB019E838D838D819E8139
:1025B0009A83898389819A810197F1F79A83898324
:1025C00081E060E040E00E94EE092F960FB6F8949B
:1025D000DEBF0FBECDBFCF91DF910895DF93CF93C4
:1025E000CDB7DEB781E062E042E00E94E00681E024
:1025F00061E042E00E94E00681E060E042E00E948B
:10260000E00680E067E042E00E94E00680E066E0ED
:1026100042E00E94E00680E065E042E00E94E006C1
:1026200080E064E042E00E94E00680E063E042E097
:102630000E94E00680E062E042E00E94E00680E066
:1026400061E042E00E94E00680E060E042E00E943B
:10265000E006CF91DF910895DF93CF93CDB7DEB73A
:1026600082E060E042E00E94E00682E061E042E059
:102670000E94E00682E062E042E00E94E00682E022
:1026800063E042E00E94E00682E064E042E00E94F3
:10269000E00682E065E042E00E94E00682E066E05B
:1026A00042E00E94E006CF91DF910895DF93CF933F
:1026B00000D00F92CDB7DEB789838981282F30E013
:1026C0003B832A838A819B818430910509F4D7C09A
:1026D0002A813B8125303105ECF48A819B81813050
:1026E000910509F460C02A813B81223031052CF428
:1026F0008A819B81009799F19AC12A813B8122307E
:10270000310509F474C08A819B818330910509F4F5
:1027100092C08DC12A813B812730310509F41BC14C
:102720008A819B81883091056CF42A813B81253018
:10273000310509F4C8C08A819B818630910509F46E
:10274000E6C075C12A813B812830310509F427C1D3
:102750008A819B818930910509F445C168C182E075
:1027600060E041E00E94EE0982E061E041E00E9409
:10277000EE0982E062E041E00E94EE0982E063E05F
:1027800041E00E94EE0982E064E041E00E94EE092F
:1027900082E065E041E00E94EE0982E066E040E010
:1027A0000E94EE0967C182E060E040E00E94EE090D
:1027B00082E061E041E00E94EE0982E062E041E0F7
:1027C0000E94EE0982E063E040E00E94EE0982E0B0
:1027D00064E040E00E94EE0982E065E040E00E9493
:1027E000EE0982E066E040E00E94EE0943C182E02B
:1027F00060E041E00E94EE0982E061E041E00E9479
:10280000EE0982E062E040E00E94EE0982E063E0CF
:1028100041E00E94EE0982E064E041E00E94EE099E
:1028200082E065E040E00E94EE0982E066E041E07F
:102830000E94EE091FC182E060E041E00E94EE09C3
:1028400082E061E041E00E94EE0982E062E041E066
:102850000E94EE0982E063E041E00E94EE0982E01E
:1028600064E040E00E94EE0982E065E040E00E9402
:10287000EE0982E066E041E00E94EE09FBC082E0E2
:1028800060E040E00E94EE0982E061E041E00E94E9
:10289000EE0982E062E041E00E94EE0982E063E03E
:1028A00040E00E94EE0982E064E040E00E94EE0910
:1028B00082E065E041E00E94EE0982E066E041E0EE
:1028C0000E94EE09D7C082E060E041E00E94EE097C
:1028D00082E061E040E00E94EE0982E062E041E0D7
:1028E0000E94EE0982E063E041E00E94EE0982E08E
:1028F00064E040E00E94EE0982E065E041E00E9471
:10290000EE0982E066E041E00E94EE09B3C082E099
:1029100060E041E00E94EE0982E061E040E00E9458
:10292000EE0982E062E041E00E94EE0982E063E0AD
:1029300041E00E94EE0982E064E041E00E94EE097D
:1029400082E065E041E00E94EE0982E066E041E05D
:102950000E94EE098FC082E060E041E00E94EE0933
:1029600082E061E041E00E94EE0982E062E041E045
:102970000E94EE0982E063E040E00E94EE0982E0FE
:1029800064E040E00E94EE0982E065E040E00E94E1
:10299000EE0982E066E040E00E94EE096BC082E052
:1029A00060E041E00E94EE0982E061E041E00E94C7
:1029B000EE0982E062E041E00E94EE0982E063E01D
:1029C00041E00E94EE0982E064E041E00E94EE09ED
:1029D00082E065E041E00E94EE0982E066E041E0CD
:1029E0000E94EE0947C082E060E041E00E94EE09EB
:1029F00082E061E041E00E94EE0982E062E041E0B5
:102A00000E94EE0982E063E041E00E94EE0982E06C
:102A100064E040E00E94EE0982E065E041E00E944F
:102A2000EE0982E066E041E00E94EE0923C082E008
:102A300060E040E00E94EE0982E061E040E00E9438
:102A4000EE0982E062E040E00E94EE0982E063E08D
:102A500040E00E94EE0982E064E040E00E94EE095E
:102A600082E065E040E00E94EE0982E066E040E03E
:102A70000E94EE090F900F900F90CF91DF91089573
:102A8000DF93CF93CDB7DEB710928400CF91DF9163
:102A90000895DF93CF93CDB7DEB783E064E041E0E4
:102AA0000E94EE09CF91DF910895DF93CF93CDB7C8
:102AB000DEB783E065E041E00E94EE09CF91DF914F
:102AC0000895DF93CF93CDB7DEB70E946C1580E0F9
:102AD00090E0CF91DF910895DF93CF93CDB7DEB72C
:102AE0002E970FB6F894DEBF0FBECDBF83E062E035
:102AF00041E00E94E00683E063E041E00E94E006DE
:102B000081E062E041E00E94E00683E064E042E0B0
:102B10000E94E00683E065E042E00E94E0060E9439
:102B20002C1380E495E10E945D0D89E495E10E94FB
:102B30006F0D85E595E10E94810D0E941C0D10929C
:102B400084007BC0809184000E94561380E090E056
:102B5000AAEFB3E48B879C87AD87BE876B857C85A6
:102B60008D859E8520E030E04AEF54E40E941F02EC
:102B7000DC01CB018F839887A987BA876F8178851D
:102B800089859A8520E030E040E85FE30E94790380
:102B900088232CF481E090E09E838D833FC06F8179
:102BA000788589859A8520E03FEF4FE757E40E94BA
:102BB000190318164CF56B857C858D859E8520E064
:102BC00030E040E251E40E941F02DC01CB01BC0175
:102BD000CD010E944900DC01CB019E838D830FC093
:102BE00088EC90E09C838B838B819C810197F1F72B
:102BF0009C838B838D819E8101979E838D838D81A4
:102C00009E81009769F714C06F81788589859A85C0
:102C10000E944900DC01CB019E838D838D819E81C2
:102C20009A83898389819A810197F1F79A838983AD
:102C3000809184008F5F80938400809184008A302B
:102C400008F480CF7CCF0F931F93DF93CF93CDB742
:102C5000DEB7E7970FB6F894DEBF0FBECDBF9AABD5
:102C600089AB6BAB18861F821E821D821C821B8261
:102C700081E08A83FBC08A81882F90E09C01220F2B
:102C8000331F89A99AA9FC01E20FF31F208131812A
:102C90003FAB2EAB8EA99FA98A32910539F0EEA9E0
:102CA000FFA9EF32F10509F44BC096C08A81882F45
:102CB00090E001969C01220F331F89A99AA9DC019B
:102CC000A20FB31F8A81282F30E081E090E0821BA1
:102CD000930B880F991F22273327281B390B89A9AB
:102CE0009AA9FC01E20FF31F408151818A81882F4C
:102CF00090E001969C01220F331F89A99AA9FC013B
:102D0000E20FF31F808191819C01429FC001439F8C
:102D1000900D529F900D112411969C938E938A8151
:102D2000882F90E001969C01220F331F89A99AA950
:102D3000FC01E20FF31F808191819C838B838FC004
:102D40008A81882F90E001969C01220F331F89A968
:102D50009AA9FC01E20FF31F80819181009729F469
:102D600081E090E09E838D837AC08A81882F90E0F5
:102D700001969C01220F331F89A99AA98C01020F89
:102D8000131F8A81282F30E081E090E0821B930B93
:102D9000880F991F22273327281B390B89A99AA945
:102DA000FC01E20FF31F408151818A81882F90E05E
:102DB00001969C01220F331F89A99AA9FC01E20FF9
:102DC000F31F20813181CA01B9010E94001BCB0190
:102DD000F8019183808343C06F8178858A81282F91
:102DE00030E081E090E0821B930B880F991F22272F
:102DF0003327281B390B89A99AA9FC01E20FF31F7D
:102E0000408151819B01220F331FCE010196820F19
:102E1000931FFC013896518340838F819885BC01B4
:102E20006F5F7F4F8A81882F90E09C01220F331FB4
:102E300089A99AA9FC01E20FF31F408151819B01EE
:102E4000220F331FCE010196820F931FFC0138968B
:102E5000518340838F819885029698878F838D81D7
:102E60009E81009771F48A818E5F8A838A81282FE0
:102E700030E08BA9882F90E00196281739070CF4D1
:102E8000FACE8D819E81009709F040C16F817885CF
:102E90008BA9882F90E09C01220F331F89A99AA942
:102EA000FC01E20FF31F408151819B01220F331F70
:102EB000CE010196820F931FFC0138965183408307
:102EC00081E0898301C18981882F90E09C01220FD4
:102ED000331FCE010196820F931FFC01389620818B
:102EE00031813DAB2CAB8CA99DA98B329105C1F0F2
:102EF000ECA9FDA9EC32F1053CF42CA93DA92A323C
:102F0000310509F471C0DDC08CA99DA98D329105F0
:102F1000C9F1ECA9FDA9EF32F10509F49CC0D1C0BB
:102F20008981882F90E0BC016F5F7F4F8981882F56
:102F300090E001979C01220F331FCE010196820F72
:102F4000931FFC013896408151818981882F90E040
:102F500001969C01220F331FCE010196820F931F11
:102F6000FC01389680819181480F591F9B01220FE7
:102F7000331FCE010196820F931FFC0138965183B7
:102F800040839FC08981882F90E0BC016F5F7F4F95
:102F90008981882F90E001979C01220F331FCE0179
:102FA0000196820F931FFC013896408151818981DF
:102FB000882F90E001969C01220F331FCE010196CD
:102FC000820F931FFC01389680819181481B590B19
:102FD0009B01220F331FCE010196820F931FFC012C
:102FE0003896518340836DC08981882F90E0BC0161
:102FF0006F5F7F4F8981882F90E001979C01220F9E
:10300000331FCE010196820F931FFC013896408139
:1030100051818981882F90E001969C01220F331FF6
:1030200089A99AA9FC01E20FF31F808191819A017D
:10303000289FA001299F500D389F500D11249B01FE
:10304000220F331FCE010196820F931FFC01389689
:103050005183408336C08981882F90E001969C017E
:10306000220F331F89A99AA98C01020F131F89818E
:10307000282F30E081E090E0821B930B880F991F8E
:1030800022273327281B390B89A99AA9FC01E20FB3
:10309000F31F408151818981882F90E001969C0126
:1030A000220F331F89A99AA9FC01E20FF31F208187
:1030B0003181CA01B9010E94001BCB01F801918343
:1030C000808389818E5F89838981282F30E08F8179
:1030D00098850196281739070CF4F5CE8F819885CD
:1030E0009C01220F331FCE010196820F931FFC011A
:1030F00038968081918198878F8381E060E00E947B
:1031000047108F8198850E946B1006C00E9407109F
:103110008AE690E00E941E10E7960FB6F894DEBF94
:103120000FBECDBFCF91DF911F910F9108950F93E7
:103130001F93DF93CF93CDB7DEB728970FB6F894E0
:10314000DEBF0FBECDBF9D838C836E830E940710B0
:103150001B821A8281E0898309C18981882F90E0CE
:103160009C01220F331F8C819D81FC01E20FF31F14
:103170002081318138872F838F8198858B3291050B
:10318000C1F0EF81F885EC32F1053CF42F813885F0
:103190002A32310509F477C0E6C08F8198858D32D7
:1031A0009105D9F1EF81F885EF32F10509F4A5C059
:1031B000DAC08981882F90E001969C01220F331F8D
:1031C0008C819D81DC01A20FB31F8981282F30E003
:1031D00081E090E0821B930B880F991F22273327F1
:1031E000281B390B8C819D81FC01E20FF31F40816C
:1031F00051818981882F90E001969C01220F331F15
:103200008C819D81FC01E20FF31F80819181840FED
:10321000951F11969C938E93A6C08981882F90E06C
:1032200001969C01220F331F8C819D81DC01A20F2E
:10323000B31F8981282F30E081E090E0821B930B3F
:10324000880F991F22273327281B390B8C819D81DA
:10325000FC01E20FF31F408151818981882F90E0AA
:1032600001969C01220F331F8C819D81FC01E20F8E
:10327000F31F808191819A01281B390BC901119696
:103280009C938E9370C08981882F90E001969C0159
:10329000220F331F8C819D81DC01A20FB31F898116
:1032A000282F30E081E090E0821B930B880F991F5C
:1032B00022273327281B390B8C819D81FC01E20FCB
:1032C000F31F408151818981882F90E001969C01F4
:1032D000220F331F8C819D81FC01E20FF31F80813F
:1032E0009181FC014E9FC0014F9F900D5E9F900DFC
:1032F000112411969C938E9336C08981882F90E07B
:1033000001969C01220F331F8C819D818C01020F3D
:10331000131F8981282F30E081E090E0821B930BFE
:10332000880F991F22273327281B390B8C819D81F9
:10333000FC01E20FF31F408151818981882F90E0C9
:1033400001969C01220F331F8C819D81FC01E20FAD
:10335000F31F20813181CA01B9010E94001BCB01FA
:10336000F8019183808389818E5F89838981282FE9
:1033700030E08E81882F90E00196281739070CF4F1
:10338000ECCE8E81882F90E09C01220F331F8C8120
:103390009D81FC01E20FF31F808191819B838A83D1
:1033A0008A819B810E946B1028960FB6F894DEBF2D
:1033B0000FBECDBFCF91DF911F910F910895DF9385
:1033C000CF93CDB7DEB7E2970FB6F894DEBF0FBE4E
:1033D000CDBF0E94600F0E94AF0D1F821E8288E247
:1033E000FE013996DF01282F1D922A95E9F70E94E8
:1033F000420F888788858031D1F388858823D1F46E
:103400000E9407101F821D8211C08D81882F90E0BD
:103410009C01220F331FCE010196820F931FFC01E6
:103420003896118210828D818F5F8D838D818431DA
:1034300060F3DDCF88850E94BE1A8823B9F18885A4
:103440000E946906882F90E09C838B838B819C81EE
:103450000E946B108F81682F70E08F81882F90E021
:103460009C01220F331FCE010196820F931FFC0196
:103470003896808191819C01220F331FC901880FEA
:10348000991F880F991F280F391F8B819C81A901D3
:10349000480F591F9B01220F331FCE010196820F47
:1034A000931FFC01389651834083A1CF88858230D9
:1034B00009F447C01A828885A82FB0E0BAABA9AB3F
:1034C00029A93AA927303105C9F089A99AA98830D4
:1034D000910534F4A9A9BAA9A330B10561F016C0C9
:1034E00029A93AA92B30310561F089A99AA98F3011
:1034F000910551F00BC08BE28A8308C08DE28A836C
:1035000005C08AE28A8302C08FE28A838A810E9490
:1035100011101E828F818F5F8F838F81282F30E063
:103520008A81482F50E0220F331FCE010196820F6F
:10353000931FFC013896518340838F818F5F8F8367
:1035400056CFCE0109966F810E9423161F821982E1
:1035500011C08981882F90E09C01220F331FCE017A
:103560000196820F931FFC01389611821082898187
:103570008F5F89838981843160F339CFDF93CF9363
:1035800000D0CDB7DEB789838981882391F0898106
:10359000833079F08981873061F089818B3049F0FF
:1035A00089818F3031F08981823019F081E08A83FE
:1035B00001C01A828A810F900F90CF91DF910895F8
:1035C000991B79E004C0991F961708F0961B881F75
:1035D0007A95C9F780950895AA1BBB1B51E107C0D6
:1035E000AA1FBB1FA617B70710F0A61BB70B881F93
:1035F000991F5A95A9F780959095BC01CD01089522
:1036000097FB092E07260AD077FD04D0E5DF06D008
:1036100000201AF4709561957F4F0895F6F7909504
:1036200081959F4F08952F923F924F925F926F9294
:103630007F928F929F92AF92BF92CF92DF92EF9242
:10364000FF920F931F93CF93DF93CDB7DEB7CA1BC3
:10365000DB0B0FB6F894DEBF0FBECDBF09942A88EE
:10366000398848885F846E847D848C849B84AA8496
:10367000B984C884DF80EE80FD800C811B81AA8123
:10368000B981CE0FD11D0FB6F894DEBF0FBECDBFEE
:08369000ED010895F894FFCF4D
:10369800526573756C74203D20006D6174687320E9
:0E36A8006572726F72000000000000000000EA
:00000001FF
